:020000040800F2
:10000000007F0010A9670008F9670008CD580008B4
:10001000F9670008F9670008F967000800000000A8
:10002000000000000000000000000000F967000868
:10003000F967000800000000F9670008655800082B
:10004000F9670008F9670008F9670008D55A000841
:10005000F9670008F9670008155500081B550008E6
:1000600021550008275500082D550008F96700089C
:10007000F9670008F9670008F9670008F9670008E0
:10008000F9670008F9670008F9670008F9670008D0
:10009000F9670008F9670008F96700083355000898
:1000A000F9670008F9670008F9670008F9670008B0
:1000B000F9670008F9670008F9670008F9670008A0
:1000C000F9670008F9670008F9670008F967000890
:1000D000F9670008F9670008F9670008F967000880
:1000E0005B550008F9670008F9670008F967000820
:1000F000F9670008F9670008F9670008F967000860
:10010000F9670008F9670008F9670008F96700084F
:10011000F9670008F9670008F9670008F96700083F
:10012000F9670008F9670008F9670008F96700082F
:1001300015630008F9670008F9670008F967000807
:10014000F9670008D55F0008FD5F0008F96700083F
:10015000F9670008F9670008F9670008F9670008FF
:10016000F9670008F9670008F9670008F9670008EF
:10017000F9670008F9670008F96700080000000047
:08018000F9670008F9670008A7
:1001C0000348044B834202D0034B03B118477047E6
:1001D0002002002020020020000000000548064BFD
:1001E0001B1AD90F01EBA301491002D0034B03B135
:1001F0001847704720020020200200200000000065
:1002000010B5064C237843B9FFF7DAFF044B13B15E
:100210000448AFF300800123237010BD20020020AA
:10022000000000007C2D010808B5044B1BB10449F7
:100230000448AFF30080BDE80840CFE700000000AD
:10024000240200207C2D01080CB410B59CB01EAB1C
:10025000029106916FF0004104910791084953F80B
:10026000042B0591002402A901931B9400F010F9BE
:10027000029B1C701CB0BDE8104002B0704700BF6C
:100280000802FFFF0EB430B59CB06FF000411FAB09
:10029000049107910A4953F8042B02900024069018
:1002A000084D0868019302A905951B9400F0F0F829
:1002B000029B1C701CB0BDE8304003B0704700BF0B
:1002C000000000200802FFFF2DE9F0478F681D465F
:1002D000AF420B680C46164636D8B1F90CC01CF478
:1002E000906F0ED13D46184631462A4600F008FC74
:1002F000A368DF1B2368A7602B4400202360BDE8B0
:10030000F0874A69096902EB42025F1A02EBD27276
:100310006B1C52103B44934292BF914699461A4639
:100320001CF4806F804611D0114600F00BFB824612
:1003300000B321693A4600F0B3FCA38923F490632B
:1003400043F08003A38105E02F46CCE700F042FD97
:10035000824658B10AEB0703A9EB0707A760C4F868
:1003600010A0C4F8149023602F46BCE721694046D2
:1003700000F068FBA3890C2243F04003C8F800207A
:100380004FF0FF30A381BAE72DE9F04F936817686B
:1003900083B09246002B74D04FF0000B8B680A6834
:1003A00081460C465D4645E0B4F90C3013F4906F7D
:1003B0002CD0D4E90401161A01EB410202EBD272EF
:1003C000711C52102944914292BF904688460A46B9
:1003D0005B0539D51146484600F0B4FA0190002873
:1003E0003DD03246216900F05BFCA289019B22F4DA
:1003F000906242F08002A2819819A8EB0606A660DE
:10040000C4F8148023612060A8462E46324659461F
:1004100000F076FBDAF80810A3682268A3EB080363
:100420003244491BA3602260CAF8081049B3D7E9D7
:1004300000B5083798461046002DF8D09D421E465C
:10044000B2D2A8462E46E1E70146484600F0C2FC7B
:1004500003460028D0D12169484600F0F3FAA38969
:100460000C2243F04003C9F800204FF0FF30A38175
:1004700000220023CAF80820CAF8043003B0BDE8FF
:10048000F08F00200023CAF8043003B0BDE8F08FDD
:100490002DE9F04F1C468B891D069DB0884681468C
:1004A000934603D50B69002B00F0F18000230993DC
:1004B00043F22003ADF829309BF800307D4D0394C2
:1004C0000126002B73D0DA4603E01AF8013F002B17
:1004D00075D0252BF9D1BAEB0B0473D19AF8002013
:1004E000002A64D000234FF0FF32CDE905230AF142
:1004F000010A049307938DF853301A9305E0049A88
:1005000006FA03F31A430492A2465446052214F84D
:10051000011B284600F074FBA346431B0028EED1C4
:10052000049BD80644BF20228DF8532019079AF85F
:10053000001044BF2B228DF853202A2950D1039A52
:1005400011680432002903927CDB07919AF80110AC
:100550002E295BD0584C0322204600F051FB38B1C5
:10056000049B001B4022824013430BF1010B0493B8
:100570001BF8011B51488DF82810062200F040FBA3
:10058000002865D04E4B002B55D003AA00924D4B4E
:10059000424604A94846AFF3008007467A1C06D0BD
:1005A000099B3B4409939BF80030002B8BD1B8F892
:1005B0000C305B067AD409981DB0BDE8F08FBAEB19
:1005C0000B04F4D023465A4641464846FFF77CFECA
:1005D0000130ECD0099B9AF80020234409937FE76F
:1005E000A1F13002092A88BFD346B1D8079B00E0A9
:1005F0000134217803EB830302EB4303A1F13002C2
:10060000092AF5D92E290793A346A3D19BF80110F7
:100610002A2927D1039B9BF802101A6805920433FC
:10062000002A0BF102000393B8BF4FF0FF3383465B
:10063000B8BF05938EE7039B073323F00703083306
:100640000393ADE7494243F00203079104937DE72A
:1006500003AA00921B4B424604A9484600F07EFCC8
:1006600007469BE7A1F130020023092A05930BF10D
:10067000010B3FF66FAF1BF8011F03EB830302EB87
:100680004303A1F13002092AF5D9059362E740211D
:1006900000F058F9C8F80000C8F8100018B140235D
:1006A000C8F8143002E70C23C9F800304FF0FF30CF
:1006B00082E700BFD4860108DC860108E0860108D5
:1006C00000000000C902000870B50F4B0F4DAB428F
:1006D000A3EB050607D0B610002455F8043B0134FF
:1006E0009847A642F9D812F049FB094D094B5E1B09
:1006F000AB424FEAA60606D0002455F8043B01346D
:100700009847A642F9D870BD1887010818870108D4
:10071000188701081C87010870B59AB013460A4E65
:100720000A466FF000410291059108490391044681
:10073000002530681995694600940494FFF7A8FED7
:10074000009B1D701AB070BD000000200802FFFF62
:1007500010B59AB00024009104916FF0004102910D
:1007600005910549039169461994FFF791FE009B95
:100770001C701AB010BD00BF0802FFFF000000008F
:1007800030B490F800F020F007016FF0000C10F08A
:10079000070491F820F040F048804FF000046FF01B
:1007A0000700D1E9002391F840F000F1080082FA37
:1007B0004CF2A4FA8CF283FA4CF3A2FA8CF34BBB02
:1007C000D1E9022382FA4CF200F10800A4FA8CF27B
:1007D00083FA4CF3A2FA8CF3E3B9D1E9042382FA49
:1007E0004CF200F10800A4FA8CF283FA4CF3A2FA5E
:1007F0008CF37BB9D1E9062301F1200182FA4CF296
:1008000000F10800A4FA8CF283FA4CF3A2FA8CF3FC
:10081000002BC6D0002A04BF04301A4612BAB2FA1E
:1008200082F200EBD20030BC7047D1E9002304F023
:100830000305C4F100004FEAC50514F0040F91F858
:1008400040F00CFA05F562EA05021CBF63EA0503F5
:1008500062464FF00004AAE7830730B547D0541E24
:10086000002A3ED0CAB2034601E0013C39D303F866
:10087000012B9D07F9D1032C2CD9CDB205EB052511
:100880000F2C05EB054535D9A4F1100222F00F0C11
:1008900003F1100EE6444FEA121C1A46C2E9005555
:1008A000C2E9025510327245F8D10CF1010214F080
:1008B0000C0F03EB021204F00F0C13D0ACF1040385
:1008C00023F003030433134442F8045B9342FBD147
:1008D0000CF003042CB1C9B21C4403F8011BA34261
:1008E000FBD130BD64461346002CF4D1F9E7034632
:1008F0001446C0E71A46A446E0E700BF70B5104EA4
:10090000336805460C46B3B12146284600F0A0FEE8
:10091000431C0CD0C41C24F00304A04205D0211AAF
:10092000284600F095FE013001D0204670BD4FF002
:10093000FF34204670BD194600F08AFE3060E3E7C0
:100940003C0200202DE9F843CD1C25F003050835B5
:100950000C2D38BF0C25002D064618DBA94216D8F1
:10096000DFF8DC8000F03CFCD8F80420A2B114468B
:1009700003E0636822467BB11C4623685B1BF8D406
:100980000B2B1FD89442636854D053600CE00C23A7
:1009900033600020BDE8F88329463046FFF7AEFFFC
:1009A000431C044619D00560304600F01BFC04F1DE
:1009B0000B00231D20F00700C21A1CBF1B1AA350F6
:1009C000BDE8F88361199442256014BF5160C8F8EE
:1009D0000410635163684B60E6E7D8F804701FB3F6
:1009E0003C467F68002FFBD123683946304604EB34
:1009F000030900F02DFE814516D12368ED1A294622
:100A00003046FFF77BFF01300ED02368D8F8042072
:100A10002B442360536883B1A34203D01A465B681A
:100A20009C42FBD10023B0E70C233360304600F03A
:100A3000D9FBAEE7C8F80430B6E7C8F80470B3E7EE
:100A40003C020020002950D038B551F8043C0C1F5E
:100A5000002BB8BFE418054600F0C2FB274A136814
:100A60002BB1A3420CD92168601883422CD063605B
:100A700028461460BDE8384000F0B4BBA3420FD84C
:100A80001A465B68002BF9D111685018844217D0C0
:100A90002CD3636054602846BDE8384000F0A2BB08
:100AA00011685018A04214D020D8216860188342E1
:100AB000EFD118685B680844C4E900035460EAE7B2
:100AC00023680B441360E6E718685B6808442060FD
:100AD000CDE720680144501883421160DBD1D3E98F
:100AE00000040144C2E90014D5E770470C232B60D1
:100AF0002846BDE8384000F075BB00BF400200202A
:100B000088420ED98B1883420BD900EB020C002AC5
:100B10006ED0624613F801CD02F801CD9942F9D1A9
:100B200070470F2A0FD8034602F1FF3C002A5FD01E
:100B30000CF1010C013B8C4411F8012B03F8012F3F
:100B40006145F9D1704740EA01039B0751D1A2F1F9
:100B5000100370B501F1200C23F00F0501F1100E08
:100B600000F11004AC441B095EF8105C44F8105C02
:100B70005EF80C5C44F80C5C5EF8085C44F8085CB9
:100B80005EF8045C44F8045C0EF1100EE64504F1D6
:100B90001004E9D1013312F00C0F01EB031102F044
:100BA0000F0400EB031328D0043C24F003064FEAA3
:100BB000940C1E441C1F8E465EF8045B44F8045FD0
:100BC000B442F9D10CF1010402F0030203EB8403F7
:100BD00001EB840102F1FF3C4AB10CF1010C013B35
:100BE0008C4411F8012B03F8012F6145F9D170BD38
:100BF000704702F1FF3C03469AE72246EAE700BF4E
:100C000001F0FF01102A2BDB10F0070F08D010F8BD
:100C1000013B013A8B422DD010F0070F42B3F6D1C1
:100C2000F0B441EA012141EA014122F007047FF0DA
:100C300000070023F0E80256083C85EA010586EA31
:100C4000010685FA47F5A3FA87F586FA47F6A5FA6D
:100C500087F68EB9EED1F0BC01F0FF0102F0070279
:100C600032B110F8013B013A83EA010313B1F8D124
:100C70000020704701387047002D06BF3546033805
:100C8000073815F0010F07D1013015F4807F02BF3E
:100C9000013015F4C03F0130F0BC0138704700BF8F
:100CA000844641EA000313F003036DD1403A41D377
:100CB00051F8043B40F8043B51F8043B40F8043B36
:100CC00051F8043B40F8043B51F8043B40F8043B26
:100CD00051F8043B40F8043B51F8043B40F8043B16
:100CE00051F8043B40F8043B51F8043B40F8043B06
:100CF00051F8043B40F8043B51F8043B40F8043BF6
:100D000051F8043B40F8043B51F8043B40F8043BE5
:100D100051F8043B40F8043B51F8043B40F8043BD5
:100D200051F8043B40F8043B51F8043B40F8043BC5
:100D3000403ABDD2303211D351F8043B40F8043B65
:100D400051F8043B40F8043B51F8043B40F8043BA5
:100D500051F8043B40F8043B103AEDD20C3205D375
:100D600051F8043B40F8043B043AF9D2043208D06D
:100D7000D2071CBF11F8013B00F8013B01D30B88DF
:100D800003806046704700BF082A13D38B078DD0BD
:100D900010F003038AD0C3F10403D21ADB071CBF8F
:100DA00011F8013B00F8013B80D331F8023B20F8F9
:100DB000023B7BE7043AD9D3013A11F8013B00F832
:100DC000013BF9D20B7803704B7843708B788370BA
:100DD000604670472DE9F041144641B30AB3064618
:100DE0000D4600F047FC8442074602D8B4EB500F92
:100DF00013D821463046FFF7A5FD804650B1BC42CE
:100E00002246294628BF3A46FFF74AFF2946304680
:100E1000FFF718FE4046BDE8F081A8464046BDE811
:100E2000F081A046FFF70EFE4046BDE8F081BDE828
:100E3000F0411146FFF786BD2DE9F84F92461F4657
:100E40000A698B68DDF828909A42B8BF1A46CAF83A
:100E5000002091F843300C46064613B10132CAF81F
:100E60000020226891065FD5DAF800300233CAF814
:100E70000030226812F0060F11461DD1E168994238
:100E8000D8BF114618DD4FF0000804F1190B05E03A
:100E9000E568DAF80030ED1A45450CDD01235A46C5
:100EA00039463046C847013008F10108F0D14FF00B
:100EB000FF30BDE8F88F216894F84330003B18BF3D
:100EC00001238A060AD5E1185A1C302081F8430014
:100ED000224494F8451082F84310023304F143028F
:100EE00039463046C8470130E1D02368DAF800506F
:100EF000216903F00603042BD4E902201BD08A42A7
:100F000020DD4FF00008521A90441A34002501E009
:100F1000454517DA0123224639463046C847013095
:100F200005F10105F4D1C2E712F0060F0DD0003B28
:100F300018BF0123D2E7401B8A4220EAE078E2DCB6
:100F40000028E2DC0020BDE8F88FE168DAF8003024
:100F50009942D8BF114696DCAEE700BF2DE9F047B5
:100F6000174684B00A7E0C9D0C460646984601F151
:100F7000430C002A35D0A2F15803D9B2202969D8F0
:100F8000202B67D8DFE813F0E600660066006600F5
:100F90006600660066006600660066006600AC00DB
:100FA00070006600660066006600700066006600FD
:100FB0006600660021008300C60066006600B60079
:100FC0006600830066006600EC002B682268616999
:100FD000181D286010061B6802D4520600F1E0803C
:100FE00019600023E1462361CDF800803B4603AA47
:100FF00021463046FFF720FF013020D023694A46C2
:1010000039463046C047013019D02368E068DDF822
:101010000C909B0718D5484516DD002504F1190AE8
:1010200004E0E068A0EB0903AB420DDD012352466A
:1010300039463046C047013005F10105F1D14FF086
:10104000FF3004B0BDE8F0874845B8BF484604B05B
:10105000BDE8F08784F84220012004F14209002312
:10106000206184F84330BFE72A682368111D180601
:10107000296002D4590600F19580106801460028C5
:101080006268C0F2938054484FF00A0E15E0206861
:101090002B6810F0800F53F8041B02D1400648BFA4
:1010A00089B26F2A4C482B6014BF4FF00A0E4FF0E4
:1010B000080E0023626884F84330002AA26051DBE6
:1010C000236823F00403236000294BD1002A7BD13D
:1010D000E146BEF1080F56D0ACEB0903236183E76C
:1010E0002B681A6804332B6004F1420984F842200B
:1010F0000120B4E72B686268191D2960D3F80090BD
:1011000000214846FFF77CFD002863D0A0EB0900D2
:101110006060A4E7236843F02003236078222F480F
:1011200084F845202A6813F0800F52F8041B03D17D
:1011300013F0400F18BF89B22A60DA0744BF43F0AA
:101140002003236019B9236823F0200323604FF0A4
:10115000100EAEE7582384F845301F482368E1E7B6
:101160002368DBE77546E146B1FBF5F305FB131A8F
:101170000A46AA4210F80A1009F8011D1946F3D2CE
:10118000BEF1080FA8D12368DD07A5D562682369E1
:101190009A42A1DC302309F8013C09F1FF399BE7B1
:1011A00019801EE7B2F90010084668E72D20002AD2
:1011B000A26084F8430002DB23F0040323600A25C5
:1011C00005484942AE46CEE7037884F8423004F140
:1011D00042097EE7606842E7E8860108FC8601086C
:1011E000704700BF704700BF000000000000000013
:1011F00000000000000000000000000000000000EF
:1012000002780B78012A28BF9A4240F0D8806DE915
:10121000044540EA0104CDE902676FF0000C4FEA93
:1012200044721AB380EA010414F0070F6BD100F086
:10123000070420F0070004F0030521F007014FEA3E
:10124000C505F0E8042314F0040FF1E804670CFA74
:1012500005F462EA040266EA04060BD063EA0403BA
:10126000624667EA0407664604E000BFF0E804232C
:10127000F1E8046782FA4CF582EA0604A4FA8CF4D9
:101280006CBB83FA4CF583EA0705A5FA8CF595B992
:1012900050E9022351E9026782FA4CF582EA06041A
:1012A000A4FA8CF483FA4CF583EA0705A5FA8CF5C9
:1012B0002543DBD09CB92DBAB5FA85F424F0070498
:1012C00027FA04F1DDE9026723FA04F303F0FF00D3
:1012D00001F0FF01FDE80445A0EB0100704724BACE
:1012E000B4FA84F424F0070426FA04F1DDE9026775
:1012F00022FA04F202F0FF0001F0FF01FDE80445CC
:10130000A0EB0100704714F0030F3CD110F0030470
:1013100028D150F8082B51F8083B82FA4CF582EAA4
:101320000305A5FA8CF55DB950F8042C51F8043C7E
:1013300082FA4CF582EA0305A5FA8CF5002DE8D077
:101340002DBAB5FA85F424F0070423FA04F122FA41
:1013500004F202F0FF0001F0FF01FDE80445A0EBFC
:10136000010070474FEAC40420F0030050F8082B36
:1013700021F0030151F8083B0CFA04F462EA04027C
:1013800063EA0403C9E710F003041DD0A1EB0401D4
:1013900020F00300E40750F8042B06D012D28B781B
:1013A0005FFAA2F4E41A06D12BB1CB785FFAB2F45B
:1013B000E41A00D133B920465DF8104B7047A2EB18
:1013C0000300704701F1040150F8042BCC0721F011
:1013D000030151F8043B48D824D222F07F4482FA1A
:1013E0004CF594EA1325A5FA8CF50AD165B951F8A4
:1013F000043B84EA0204B4EB036F0ED150F8042BD3
:10140000EBE74FEA132355E035F07F454DD10878DF
:10141000FDE80445C0F1000070474FEA126203F096
:10142000FF0347E002EA1C4482FA4CF594EA1345B4
:10143000A5FA8CF50AD165B951F8043B84EA020497
:10144000B4EB034F0CD150F8042BEBE74FEA1343F6
:1014500030E015EA1C4528D10B884FEA124229E0FA
:101460004FEA124203EA1C4324E002F0FF0482FA2E
:101470004CF594EA1365A5FA8CF50AD165B951F8D3
:10148000043B84EA0204B4EB032F09D150F8042B87
:10149000EBE74FEA13630DE015F0FF0F05D10B6882
:1014A0004FEA122223F07F4304E04FF00000FDE8F2
:1014B0000445704712BA1BBA82FA4CF482EA03045C
:1014C000A4FA8CF5B5FA85F402FA04F203FA04F3EF
:1014D0004FEA1260FDE80445A0EB1360704700BFBF
:1014E00008B410B5002A9DB0044636DB4FF40273F1
:1014F000ADF814304FF000031B930291069120AB1E
:1015000017D0013A4FF6FF7104920792ADF816100A
:101510001F9A019302A9FEF7BBFF421C01DA8B233D
:101520002360029B00221A701DB0BDE8104001B07C
:1015300070474FF6FF7104920792ADF816101F9A8C
:10154000019302A9FEF7A4FF431C01DA8B23236059
:101550001DB0BDE8104001B070478B2303604FF011
:10156000FF30F5E70CB410B5214B00291C689CB086
:1015700038DB4FF000034FF402721B93ADF81420D8
:10158000029006901FAB18D001394FF6FF720491FC
:101590000791ADF8162002A91E9A01932046FEF786
:1015A00077FF421C01DA8B232360029B00221A7012
:1015B0001CB0BDE8104002B070474FF6FF720491B6
:1015C0000791ADF8162002A91E9A01932046FEF756
:1015D0005FFF431C01DA8B2323601CB0BDE8104081
:1015E00002B070478B2323604FF0FF30F5E700BF58
:1015F00000000020032A30B415D941EA0004A407F2
:1016000084460B4604D0541E0FE0043A032A08D93E
:101610001946604653F8044B5CF8045BA542F4D0CD
:10162000F1E760461946541E7AB1431E013902198A
:1016300001E09A4209D013F8010F11F801CF60457B
:10164000F7D0A0EB0C0030BC7047002030BC7047D6
:1016500038B5074D0022044608462A6000F012F80B
:10166000431C00D038BD2B68002BFBD0236038BD55
:101670008003002051F8043C181F002BBCBF0B58FE
:10168000C0187047044A05491368002B08BF0B4671
:1016900018441060184670478403002000000010B2
:1016A00053B94AB9002908BF00281CBF4FF0FF31C9
:1016B0004FF0FF3000F06AB9ADF1080C6DE904CECF
:1016C00000F006F8DDF804E0DDE9022304B070471D
:1016D0002DE9F047089D0E4604460F46002B4AD1DF
:1016E00094468C45B2FA82F260D942B1C2F120032D
:1016F000974020FA03F30CFA02FC1F4394404FEA90
:101700001C4E1FFA8CF6B7FBFEF1230C0EFB117773
:1017100043EA074301FB06F098420AD91CEB030396
:1017200001F1FF3780F01581984240F212810239B1
:1017300063441B1AA4B2B3FBFEF00EFB103344EA61
:10174000034400FB06F6A6420AD91CEB040400F190
:10175000FF3380F00081A64240F2FD8064440238ED
:1017600040EA0140A41B00211DB1D4400023C5E97B
:101770000043BDE8F0878B4205D90DB1C5E90001F2
:1017800000210846F5E7B3FA83F1002946D1B342B8
:1017900002D3824200F2F580841A66EB0302012034
:1017A0001746002DE5D0C5E90047E2E7002A40F0E2
:1017B0009380A1EB0C034FEA1C471FFA8CFE01211A
:1017C000B3FBF7F607FB1630230C43EA00430EFB8E
:1017D00006F0984208D91CEB030306F1FF3802D249
:1017E000984200F2D08046461B1AA4B2B3FBF7F031
:1017F00007FB103344EA03440EFB00FEA64508D95C
:101800001CEB040400F1FF3302D2A64500F2B680BF
:101810001846A4EB0E0440EA0640A5E7C1F12007F4
:101820008B4022FA07FC4CEA030C06FA01FE20FA70
:1018300007F426FA07F344EA0E0400FA01F84FEA27
:101840001C404FEA1449B3FBF0FE1FFA8CF600FB74
:101850001E3349EA03430EFB06F9994502FA01F2E9
:101860000BD91CEB03030EF1FF3A80F085809945FC
:1018700040F28280AEF1020E6344A3EB0909A4B2E8
:10188000B9FBF0F300FB139944EA094403FB06F6A5
:10189000A64208D91CEB040403F1FF3068D2A6422B
:1018A00066D9023B644443EA0E40A41BA0FB02E657
:1018B000B4427346B14652D34FD05DB1B8EB030288
:1018C00064EB090404FA07F722FA01F31F43CC4042
:1018D000C5E9007400214CE7C2F1200120FA01F3B0
:1018E0000CFA02FC26FA01F1964033434FEA1C47FA
:1018F0001FFA8CFEB1FBF7F007FB1016190C41EA3A
:10190000064100FB0EF68E4204FA02F408D91CEBE5
:10191000010100F1FF382DD28E422BD902386144EB
:10192000891B9BB2B1FBF7F607FB161143EA014393
:1019300006FB0EF1994208D91CEB030306F1FF38B0
:1019400014D2994212D9023E63445B1A46EA00411E
:1019500036E73946EDE6184602E7F045ADD2BEEB74
:10196000020366EB0C060138B146A6E74646ECE7F3
:10197000034698E74046D3E7D6467EE764440238FC
:1019800047E708460DE7023E63442DE7704700BF76
:1019900008B500F0B7FC002008BD00001FB51F4CC3
:1019A00023681BBA039300220423014600931046C8
:1019B00003AB05F089FE0138062811D8DFE800F0F6
:1019C000041517191B232500154B164A16491748ED
:1019D000009340F2472304F072FB154804F06FFBBC
:1019E00023680133236004B010BD124BEDE7124BA6
:1019F000EBE7124BE9E7124B00930A4A0A491148F8
:101A000040F24723E7E7104BDFE7104B0093054A0E
:101A100005490F4840F24723DDE700BF8C03002053
:101A200087300108B76B0108383001085F300108C2
:101A30009E300108A3300108B9300108CC300108FC
:101A400006310108DF3001081C310108623101084C
:101A50003B3101082DE9F04F854B864A864987487E
:101A6000DFF85482864C874D8DB004F028FB0DF1D1
:101A70000E0105A805F042FE0138062811D8DFE85E
:101A800000F004383A3C3E4648007F4B7F480093C4
:101A9000224640F23113294604F011FB744804F049
:101AA0000EFB9DF81510202900F2F583DFE811F0F8
:101AB00039008F01BC01EF01F901860288028A0218
:101AC0008C028E029002920299029B029D029F025A
:101AD000A102B402B602B802BA02F303F303F3039D
:101AE000F303F303BC02BE02C002C202A803C40295
:101AF000C602674BCAE7674BC8E7674BC6E7674B49
:101B00000093674840F2311322462946C4E7654BEB
:101B1000BCE76548CDF8008040F2311322462946E3
:101B2000BAE7624804F0CBFA514804F0C8FA6049B9
:101B3000002005F081FC0138062811D8DFE800F00C
:101B4000041D1F21232B2D004F4B4D4A4D494F485B
:101B500000934FF49D7304F0B2FA454804F0AFFAD5
:101B60005449002005F040FC0138062829D8DFE858
:101B700000F01C3537393B434500454BE5E7454B05
:101B8000E3E7454BE1E7454B00933D4A3D49444877
:101B90004FF49D73DFE7434BD7E7474B0093384A39
:101BA000384941484FF49D73D5E7374B344A35499E
:101BB0003648009340F23B1304F081FA2C4804F0BD
:101BC0007EFA3E49002005F05FFC0138062829D83E
:101BD000DFE800F01C3537393B4345002C4BE5E787
:101BE0002C4BE3E72C4BE1E72C4B0093244A25498F
:101BF0002B4840F23B13DFE72A4BD7E72E4B0093ED
:101C00001F4A2049284840F23B13D5E71E4B1C4A87
:101C10001C491E4800934FF49E7304F050FA144878
:101C200004F04DFA2649002005F056FC013806283C
:101C300054D8DFE800F047606264666E7000144BB1
:101C4000E5E7144BE3E7144BE1E7144B00930C4A30
:101C50000C4913484FF49E73DFE7124BD7E7164B3E
:101C60000093074A074910484FF49E73D5E700BF19
:101C70009E300108A2310108B8310108C0310108C5
:101C8000D36B010838300108873001085F30010844
:101C9000A3300108B9300108CC3001080631010831
:101CA000DF3001081C3101083B310108C731010850
:101CB000106C0108086C010862310108F86B01081A
:101CC000E86B0108814B824A82498348009340F2C5
:101CD0003D1304F0F4F9814804F0F1F901210020EA
:101CE00005F022FC0138062829D8DFE800F01C3571
:101CF00037393B4345007A4BE5E77A4BE3E77A4BCC
:101D0000E1E77A4B0093724A7249794840F23D13F9
:101D1000DFE7784BD7E7784B00936D4A6D497748FA
:101D200040F23D13D5E7694B694A6A496A48009316
:101D30004FF4A37304F0C3F9684804F0C0F900201D
:101D400005F072FC0138062800F25E81DFE800F041
:101D50001C27292B2D353700614BE5E7614BE3E765
:101D6000614BE1E7614B0093594A5A4960484FF48F
:101D7000A373DFE75F4BD7E75F4B0093544A5549A6
:101D80005E484FF4A373D5E7504B009340F26713BE
:101D90004F4A5049504804F092F95048E6E0504B01
:101DA000F3E7504BF1E7504BEFE7504B009340F215
:101DB0006713474A47494E48EDE74E4BE5E74E4B20
:101DC000009340F26713424A42494C48E3E74C48CB
:101DD00004F075F9414804F072F96520FFF7DEFD63
:101DE0003C2005F041FD0138062800F20D81DFE8B6
:101DF00000F004090B0D0F141600344B009340F251
:101E00006F13C5E7364BF9E7364BF7E7364BF5E787
:101E1000364B009340F26F13CBE7364BEEE7364B71
:101E2000009340F26F13CEE7364804F048F92B4890
:101E300004F045F9344804F042F9284804F03FF929
:101E40006520FFF7ABFD3C2005F00EFD01380628AC
:101E500000F2DA80DFE800F004090B0D0F14160021
:101E60001A4B009340F2791392E71D4BF9E71D4B93
:101E7000F7E71D4BF5E71D4B009340F2791398E708
:101E80001C4BEEE71C4B009340F279139BE71F4875
:101E900004F015F9114804F012F91D4804F00FF987
:101EA0007BE71C4804F00BF90C4804F008F91A4BC6
:101EB0001A4A1B491B4805F08DFC013806283FD8FB
:101EC000DFE800F03257595B5D6567008730010835
:101ED000D36B0108383001085F3001089E300108DB
:101EE000A3300108B9300108CC30010806310108DF
:101EF000DF3001081C310108623101083B31010863
:101F0000EB3101080F320108343201085732010861
:101F10007C3201089D3201089103002094030020C7
:101F2000A4030020A8030020844B854A85498648E5
:101F300000934FF4C27304F0C2F8844804F0BFF871
:101F4000834B844F19798448DFF8AC92DFF814A2F0
:101F5000DFF8A8B204F0B3F83A788049804804F07A
:101F6000AEF800263B78B3421BD87E4804F0A7F8B1
:101F70004AE07D4BD9E77D4BD7E77D4BD5E77D4BDD
:101F800000936F4A6F497C484FF4C273D3E77B4B91
:101F9000CBE77B4B00936A4A6A497A484FF4C27395
:101FA000C9E7320703D116B1504604F088F819F892
:101FB000011B584604F083F80136D3E772486DE7F9
:101FC00072486BE7724869E7724867E7724865E7ED
:101FD000724863E79DF818300BB171485EE77148AD
:101FE0005CE771485AE7714858E7714856E771480D
:101FF00054E7714804F063F8544804F060F89DF821
:1020000018300BB902F0CBFE9DF80E30002B7FF498
:102010002EAD0DB0BDE8F08F68483FE768483DE75A
:1020200068483BE7684839E7684837E7684835E774
:10203000684833E7684831E768482FE7684804F0A4
:102040003EF8424804F03BF89DF81830002B72D05F
:1020500005F022FC002005F04FFC0138062811D8BD
:10206000DFE800F0041C1E20222A2C00334B344AE7
:1020700034493548009340F2FD1304F020F833480A
:1020800004F01DF8002005F0CFFA0138062829D801
:10209000DFE800F01C393B3D3F474900324BE6E7A3
:1020A000324BE4E7324BE2E7324B0093244A2549B6
:1020B000314840F2FD13E0E7304BD8E7304B009356
:1020C0001F4A20492F4840F2FD13D6E71B4B1C4AFC
:1020D0001C491D4800934FF4FF7303F0F0FF1B48A9
:1020E00003F0EDFF9DF818203E4B3F493F4812F0AA
:1020F000010F08BF194612F0020F3D4A08BF1A46E9
:1021000003F0DDFF49E6184BE1E7184BDFE7184B1A
:10211000DDE7184B00930A4A0A4917484FF4FF734A
:10212000DBE7164BD3E7164B0093054A05491548E4
:102130004FF4FF73D1E72F48B0E600BF87300108A6
:10214000D36B0108383001085F3001089E30010868
:1021500094030020A4030020C4320108DE320108E9
:10216000EF320108FD560108A3300108B93001081B
:10217000CC30010806310108DF3001081C310108AC
:10218000623101083B310108083301082F3301088F
:10219000623301088B330108C0330108ED330108B5
:1021A0001C3401084B34010874340108A9340108B7
:1021B000DE34010813350108473501087935010877
:1021C000A3350108CD350108F73501081A36010895
:1021D0004936010875360108A1360108D0360108D4
:1021E000F936010840410108793101082D3701080D
:1021F0008A31010851370108A80300200233010881
:10220000274F9DF818900FCF07AE0FC6B9F1030FF7
:102210003B6833603FF6F8AE0CAB03EB8903214813
:1022200053F8141C03F04BFF1F4803F048FFB9F1AB
:10223000030F7FF4E9AE1D4A1C4FDFF87C90DFF8F6
:1022400084A00DF10F030DF1120104A805F0ACFEFE
:102250009DF80F201649174803F031FF00269DF81E
:102260000F30B3420AD8144803F029FFBDF91220F9
:10227000BDF91010114803F022FFC5E6330703D162
:1022800016B1484603F01BFF17F8011B504603F038
:1022900016FF0136E3E70A4803F011FF7DE500BFB2
:1022A000982D0108733701089E300108A80300200B
:1022B000A1370108EF320108FD560108AC370108CB
:1022C000BF3701080233010810B50A480A4C03F071
:1022D000F6FE0A4803F0F3FE02F065FD2368C01A1B
:1022E000B0F5FA7F05DD02F05EFD054B20600122AE
:1022F0001A7010BDDF370108880300209E300108E6
:10230000900300207FB503F079F903F08DF91F48A1
:102310001F4C04F0F9FF1F4A07CA01AB83E807000E
:10232000022200212D2003F023F803F069F91A4856
:102330003C2103F0C4FE194803F0C1FE00262378B7
:102340005BB1694600202670009605F07BFA009B81
:102350001B0702D56620FFF721FB05F035F805467F
:1023600003F04CF923785BB905F038F840B903F075
:10237000E7FF44F62060A84228BF284603F00AFA87
:1023800003F0DEFF03F03CF9D9E700BF551A00085F
:1023900090030020AC2D0108FB3701089E30010896
:1023A00038B5044690B1437903F0FF0213B90271C6
:1023B00003F004FC0223637123681A6842F00402EC
:1023C0001A605B685B0603D504236371012038BD86
:1023D00001F04CF805462368586810F0040003D15A
:1023E00001236371A060F2E701F040F8401B02286E
:1023F000F1D9042363710223A360E7E710B5044613
:1024000078B103681A6822F00C021A605A6822F048
:1024100060025A6003F00AFC002060712071A06025
:1024200010BD0120FCE72DE9F0410379012B0446A2
:102430000F462AD0427901239A420371D5B220D1A6
:102440000223437101F012F880462268566816F0A4
:10245000010608D09368E3603B60012363710025A7
:10246000002323710AE001F001F8A0EB0800022824
:10247000EBD9012363710223A36026712846BDE8CE
:10248000F081042282601D46EAE70225F6E700009B
:102490000A4B44F620621B68B3FBF2F34FF47A72E6
:1024A00010B55343046800202268013B08BF032095
:1024B00031EA020201D0002BF6D110BD7C000020D1
:1024C00070B50446002844D090F8363003F0FF027F
:1024D0001BB980F8352003F0A5FD0223226860684F
:1024E00084F83630D368616901284FF6FF7508BF5C
:1024F00023F00603A94218BF23F4604308B923F070
:10250000D803154D266A1D40A36803433343666A0A
:102510003343A66A33432B43B8B9E069256928439E
:1025200003434FF6FF7081421EBFA06901430B4376
:102530000A49D3608A42E36A04BF216B0B431362EA
:10254000012384F83630002070BD0128E9D1E0680D
:10255000E6E70120F8E700BFF8F119FF007C004032
:1025600070477047704770477047704770470368FF
:102570001A68D10710B5044606D59A68D20703D564
:1025800001225A60FFF7ECFF23681A68900707D50D
:102590009A68910704D502225A602046FFF7E1FFAE
:1025A00023681A68520707D59A68500704D5042291
:1025B0005A602046FFF7D6FF23681A68110707D52F
:1025C0009A68120704D508225A602046FFF7CBFF0D
:1025D00023681A68D00607D59A68D10604D5102258
:1025E0005A602046FFF7C0FF23681A68920607D595
:1025F0009A68900604D520225A602046FFF7B5FF5E
:1026000023681A68510607D59A68520604D54022F5
:102610005A602046FFF7AAFF10BD00002DE9F047E1
:10262000064672B64C4B04689C4216D003F5C05364
:102630009C4218D00025484AA768D4F80C806369EA
:10264000D4F818A0D4F82090944212D002F5C052C9
:10265000944227D0002B3ED115E0404BD3F8885050
:1026600005F44025E7E73D4BD3F8885005F44015C5
:10267000E1E73A4A916B41F000419163916B21F09F
:1026800000419163FBB9BAF1000F5CD1236923F0DB
:1026900001032361A760C4F80C80C4F8209062B6DF
:1026A000BDE8F0872D4AD16B41F02001D163D16B99
:1026B00021F02001D163002BE5D02849D1F88820F2
:1026C00022F4401204E02549D1F8882022F4402267
:1026D000C1F8882073B1226942F001022261082109
:1026E00063613046FFF7D4FE0823032808BF86F84D
:1026F00036006360BAF1000F0FD0236943F0010385
:1027000023611021C4F818A03046FFF7C1FE102342
:10271000032808BF86F8360063600F4B9C4209D03F
:1027200003F5C0539C42B1D10C4AD2F8883023F44F
:10273000401304E0094AD2F8883023F440232B43A5
:10274000C2F88830A2E7044A9442BCD002F5C052D5
:102750009442D2D1B1E700BF007C0040001002409B
:1027600010B50223044680F83630FFF757FF94F87F
:102770003630032BD8B208D02268D36823F4002364
:10278000D360012384F83630002010BD70B50446B4
:10279000022384F8363025681F4B9D4203F5084319
:1027A00016461A6A0CBF42F0010242F002021A6297
:1027B000EB6843F40023EB602B69084643F0010308
:1027C00010212B616960A8612046FFF761FE032894
:1027D00001D1032070BD0821696020466E61FFF7BA
:1027E00057FE0328F5D02046FFF718FF94F836303F
:1027F000032BEED023689A6842F001029A601A69AE
:1028000042F001021A611A6942F004021A610123BE
:1028100084F836300020DDE7007C004002230268A7
:1028200010B580F83630104B9A4203F50843044641
:102830001A6A0CBF22F0010222F002021A62FFF7AC
:10284000EDFE94F83630032BD8B20CD02368DA684A
:1028500022F40022DA609A6822F001029A600123D1
:1028600084F83630002010BD007C0040026838B586
:10287000D36823F0A003D360044600F0F7FD0546BB
:102880002368DB689B0601D5002038BD00F0EEFD13
:10289000401BB0F57A7FF3D90320F6E7026870B5E4
:1028A000D46814F0400405461AD14FF0FF33D360CA
:1028B00000F0DCFD234606462A68D46814F0400484
:1028C00001D1032B01D1184670BD00F0CFFD801B54
:1028D000B0F57A7F234684BF032385F82130EBE7E8
:1028E0000023F0E738B50F4CE36823F08003E36082
:1028F000A3689B06054606D4FFF7B8FF10B1032076
:1029000085F8210038BDA36823F02003A360FFF7FA
:10291000ADFF10B1032085F82100A36843F0200328
:10292000A360EFE70028004038B5044600283FD0F8
:1029300090F8213003F0FF021BB980F8202003F04B
:10294000CFF8022384F821302368CA225A62532226
:102950005A622046FFF7A2FF48BB236820699A68A5
:1029600022F4E00222F040029A6062689968024311
:10297000A06902430A439A60E2681A611A69A16871
:1029800042EA01421A612046FFF7ACFF78B923689A
:102990006569DA6C22F00302DA64E269D96C2A43D1
:1029A0000A43DA64FF225A62012384F8213038BDD9
:1029B0000120FCE70023092803D840EA0310C0B235
:1029C00070470A380133C0B2F5E72DE9F04190F8BD
:1029D0002030012B05460E4690464FF0020353D09F
:1029E00080F821300122036880F82020CA225A6230
:1029F00053225A62FFF752FF70BB2968307874780F
:102A0000B7788B68B8F1000F32D113F0400308BFDC
:102A1000F370FFF7CFFF80462046FFF7CBFF02465B
:102A20003846FFF7C7FFF37840EA835343EA084389
:102A300043EA022303F07F3323F0FE430B608B68ED
:102A400023F480238B60D6E903308A680343134361
:102A50008B602846FFF746FF2B68FF225A6210B9A9
:102A6000012385F82130002385F82030BDE8F0816E
:102A700013F0400308BFF3702402F27844EA0043E5
:102A80003B4343EA8253D5E71846EFE7F8B590F8A1
:102A90002030012B05464FF002002BD0012385F892
:102AA000203085F821000E78C8784C788F7876032E
:102AB0000AB346EA00433B4343EA04242B68CA2294
:102AC0005A6253225A622846FFF7E8FE40B92A6844
:102AD00024F07F4424F0C00454602846FFF702FF2E
:102AE0002B68FF225A6210B9012385F82130002398
:102AF00085F82030F8BDE30642BF24F010040A3404
:102B00004C70FFF757FF04464878FFF753FF024623
:102B10003846FFF74FFF40EA060343EA044343EA1F
:102B20000224CBE7030903EB830300F00F0000EB63
:102B30004300C0B270470368986A486018691B6810
:102B4000C0F30E0070B588600024C3F30540C3F3E2
:102B5000062660F3070403F07F0566F30F2465F390
:102B60001744C3F3805363F31F640C6052B9FFF73B
:102B7000D9FF08703046FFF7D5FF48702846FFF7A9
:102B8000D1FF8870002070BD03685B6870B5C3F327
:102B90000740C3F3042603F03F050024C3F3423388
:102BA00063F3070466F30F2465F3174460F31F64AF
:102BB0000C6052B9FFF7B6FFC8703046FFF7B2FF9E
:102BC00048702846FFF7AEFF8870002070BD0000F7
:102BD0002DE9F04190F82030012B04460E461546B1
:102BE0004FF0020035D0012384F82030236884F8A8
:102BF0002100CA225A6253225A629A6822F48062E1
:102C00009A60D868C0B260F49060D860DB685B06F8
:102C100021D523681C4A5E61996821F00701294388
:102C20009960116841F480111160916841F480113C
:102C300091609A6842F480429A609A6842F4806295
:102C40009A60FF225A620020012384F8213084F820
:102C50002000BDE8F08100F009FC80462368DF68B1
:102C600017F00407D5D100F001FCA0EB0800B0F587
:102C70007A7FF3D92368FF2203205A6284F8210067
:102C800084F82070E5E700BF0004014070B590F8BB
:102C90002030012B04464FF0020030D0012384F88D
:102CA0002030236884F82100CA225A6253225A62D3
:102CB0009A6822F480629A609A6822F480429A604C
:102CC00000F0D4FB06462268D56815F0040508D04C
:102CD000FF2353620020012384F8213084F8200070
:102CE0000DE000F0C3FB801BB0F57A7FEBD92368C1
:102CF000FF2203205A6284F8210084F8205070BD1E
:102D0000704700000A4B4FF4801210B55A610268F8
:102D1000D3685B05044606D5D368DBB263F49063E1
:102D2000D360FFF7EDFF012384F8213010BD00BF11
:102D30000004014090F82020012A03464FF00200D1
:102D400012D01A6883F82100CA21516253215162BE
:102D5000916841F020019160FF2151620020012221
:102D600083F8212083F820007047F8B50446002836
:102D70007AD0436A002B50D14268B2F5827F00D0EE
:102D8000C36194F85D3003F0FF0223B984F85C203E
:102D9000204602F0CDFF2268E068022384F85D300F
:102DA0001368B0F5E06F23F0400313604FF00003A9
:102DB00037D91D46B0F5706F18BFA362A768636866
:102DC000A169A66A07F4044703F482733B432769A9
:102DD00007F002073B43676907F001073B4301F433
:102DE00000773B43E76907F038073B43276A07F062
:102DF00080073B4306F400573B43B6F5005F136082
:102E000014D1236B6BBBB0F5E06F0DD902232363A4
:102E1000136843F40063136008E00023C0E904333F
:102E2000AFE74FF48055C7E701232363636A676BFD
:102E300003F0100307F0080700F470603B43090C2F
:102E4000034301F004010B432B43B6F5005F5360CD
:102E500004BFA38D136100200123206684F85D3038
:102E6000F8BD022BE2D1D3E70120F9E710B5044603
:102E700080B10268022380F85D30136823F04003BC
:102E8000136002F0C9FF0020206684F85C0084F81B
:102E90005D0010BD0120FCE738B5054698B124233C
:102EA000436703681A68002422F001021A601C605C
:102EB0005C609C6003F0F2F9EC6785F870406C6729
:102EC0002046AC6738BD0120FCE7000038B5044659
:102ED000C0692169A26823680A4361691D680A43C1
:102EE0007549024329400A431A605A68E16822F48E
:102EF00040520A435A60714AA16993421CBF226A38
:102F000011439A6822F430620A439A606C4A9342F1
:102F10002BD16C4BD3F8883003F00303022B00F065
:102F2000C380032B00F0B380012B00F0B780B0F515
:102F3000004F40F0BE8000F065FE002870D062684F
:102F4000530803EB4003B3FBF2F39AB2A2F1100073
:102F50004FF6EF7188421FD823F00F0321689BB210
:102F6000C2F342021343CB605AE0574A934215D151
:102F7000544BD3F8883003F00C03082B00F09480F6
:102F800008D8002B40F08A80B0F5004F69D100F0DE
:102F900027FED2E70C2B7AD0012042E04B4A934225
:102FA00009D1484BD3F8883003F03003202B7BD075
:102FB000E7D9302BEFE7464A934209D1414BD3F88A
:102FC000883003F0C003802B6ED0DAD9C02BE2E743
:102FD000404A93420BD13B4BD3F8883003F4407303
:102FE000B3F5007F60D0CCD9B3F5407FD3E7334A47
:102FF0009342D1D1334BD3F8883003F44063B3F517
:10300000006F12D003D843B900F0EAFD07E0B3F532
:10301000406FC1D14FF4004008E000F07DFA28B9BC
:1030200000200023C4E9183338BD2B48626802EB46
:1030300042038342B0D8B0EB023FADD85108002321
:103040008C464FF480751946E0FB05C16046FEF7DB
:1030500027FB224BA0F540729A429DD82368D86086
:10306000DEE700F0BDFD0028DAD0626800EB520315
:10307000B3FBF2F39BB2A3F110014FF6EF72914252
:103080008AD82268D360CBE700F046FAEBE7B0F5C8
:10309000004F3FF454AF4FF40040E6E7B0F5004F67
:1030A000F2D100F039FA48E7B0F5004F0A48DCD118
:1030B00045E700F0A7FDD6E7F369FFEF0080004089
:1030C0000038014000100240004400400048004029
:1030D000004C0040005000400024F400FFFC0F00B2
:1030E000436ADA0710B506D50168846A4A6822F493
:1030F000003222434A609C0706D50168C46A4A68C8
:1031000022F4803222434A60590706D50168046BD5
:103110004A6822F4802222434A601A0706D50168D1
:10312000446B4A6822F4004222434A60DC0606D51A
:103130000168846B8A6822F4805222438A6099066F
:1031400006D50168C46B8A6822F4005222438A6063
:103150005A060FD50168046C4A6822F48012224393
:10316000B4F5801F4A6005D14A68446C22F4C0025D
:1031700022434A601B0606D50268816C536823F41B
:1031800000230B43536010BD2DE9F843DDF8209078
:1031900005460F46164698462A68D36937EA030360
:1031A0000CBF01230023B34201D000201BE0B9F182
:1031B000FF3FF2D000F05AF92C68A0EB0800484518
:1031C000236802D8B9F1000F0FD123F4D073236024
:1031D000A36823F00103A36020236B67AB67002380
:1031E00085F870300320BDE8F8835A07D4D5E36929
:1031F0001B05D1D54FF400632362236823F4D073F9
:103200002360A36823F00103A36020236B67AB67EF
:10321000EB67E4E72DE9F7439846436F202B04461C
:103220000E4617464CD1002948D0002A46D090F8C7
:103230007030012B44D0012380F870300025212309
:10324000C567436700F012F9A368A4F85070B3F59E
:10325000805F8146A4F8527003D123690BB93546CB
:103260001E46002384F87030B4F85220CDF8008058
:1032700092B24B463AB940212046FFF785FF40B94C
:103280002023636706E0002280212046FFF77CFFB1
:1032900018B1032003B0BDE8F08322685EB935F8A9
:1032A000023BC3F308031385B4F85220013A92B2EB
:1032B000A4F85220D8E716F8013BF4E70120E9E72B
:1032C0000220E7E773B504460026C66700F0CEF893
:1032D00023681B681A07054615D423681B685B071B
:1032E0000AD56FF07E43009300222B464FF48001F5
:1032F0002046FFF749FF90B920230020636784F838
:103300007000A3670CE06FF07E43009332460346E3
:103310004FF400112046FFF737FF0028DDD00320CF
:1033200002B070BD10B5044640B3436F1BB980F8BE
:10333000703002F013FF226824236367136823F0C0
:10334000010313602046FFF7C1FD012816D0636A10
:1033500013B12046FFF7C4FE23685A6822F4904256
:103360005A609A6822F02A029A601A6842F00102B2
:1033700020461A60BDE81040FFF7A4BF012010BD31
:1033800038B5044610B303684CF6CC421A6045F2D7
:1033900055521A6042685A6082689A6000F066F876
:1033A00005462368DA6832B91969E268914209D0A2
:1033B0001A61002038BD00F059F8401B3028F0D9C0
:1033C0000320F7E74AF6AA221A60F2E70120F1E7A4
:1033D00003684AF6AA221A600020704738B50F4BDE
:1033E0001A7805460AB9012038BD4FF47A73B3FB49
:1033F000F2F30B4A1068B0FBF3F001F0B7FC04469F
:103400000028F0D10F2DEED8024629464FF0FF30AC
:1034100001F05AFC034B20461D60E5E750000020F8
:103420007C00002054000020094A136843F4807394
:1034300010B50320136001F035FC0020FFF7CEFF2C
:10344000044618B902F015FA204610BD0124FBE726
:1034500000200240034A044B11681B780B441360A0
:10346000704700BF9C04002050000020014B1868EA
:10347000704700BF9C0400204FF0E022136923F046
:103480000203136170474FF0E022136943F0020317
:103490001361704737B51E4DAB6DDA00044618D581
:1034A00001F0DCFBB0F5007F23D1802C29D9A02CC2
:1034B0008CBF0224012417490A6822F00702224324
:1034C0000A60086800F00700001B18BF012003B065
:1034D00030BDAB6D43F08053AB65AB6D03F08053F3
:1034E0000193019B01F0BAFBAB6D23F08053AB65F8
:1034F000D8E7802C07D808D0A4F170035C425C4167
:10350000D9E70024D7E70324D5E70224D3E700BF97
:103510000010024000200240204B9A68D96812F047
:103520000C0205D00C2A2CD101F0030101292FD166
:1035300019681B48090755BFD3F894101968C1F3DF
:103540000321C1F3031150F8210032B3DA6802F00D
:103550000302022A1ED01349032A08BF0846D9686D
:10356000DA68C2F306224243D868C0F34160C1F36F
:103570000211013001314000B2FBF1F2B2FBF0F078
:103580007047042A08D0082A064818BF0020704750
:103590000020DBE70448E2E70348704700100240E0
:1035A000546C010800127A000024F4002DE9F7435E
:1035B000054618B9012003B0BDE8F083924C0368BA
:1035C000A668E768D80606F00C0607F003073DD5A5
:1035D0001EB10C2E66D1012F64D12368990702D544
:1035E000AB69002BE6D02368286A1A0756BFD4F8C7
:1035F000943023681B0903F0F00398423BD9FFF78E
:1036000049FF0028D6D1236843F0080323602368CC
:103610002A6A23F0F003134323606368EA6923F402
:103620007F4343EA02236360FFF776FFA368774A8C
:10363000C3F30313D35C03F01F03D840744B18602B
:10364000744B1868FFF7CAFE0028B4D12B68D9075D
:103650005FD42B689A0700F19E802B68190700F150
:10366000DB802B685A0700F10181AB6A002B40F028
:103670006A8100209FE7236843F0080323602368E2
:1036800023F0F003034323606368EA6923F47F4374
:1036900043EA02236360002EC6D1FFF7FBFE002839
:1036A000C2D087E7AB691BB3236843F001032360F3
:1036B000FFF7DCFE804623689B0711D5236843F0A3
:1036C0000803236023682A6A23F0F003134323606E
:1036D0006368EA6923F47F4343EA02236360B5E742
:1036E000FFF7C4FEA0EB08000228E4D9032062E73C
:1036F000236823F001032360FFF7B8FE80462368A8
:103700009807A3D5FFF7B2FEA0EB08000228F6D970
:10371000ECE7082E03D00C2E08D1032F06D1236826
:103720009B0396D56B68002B93D143E76B68B3F589
:10373000803F10D1236843F480332360FFF796FE67
:1037400080462368980384D4FFF790FEA0EB08001E
:103750006428F6D9CAE7B3F5A02F04D1236843F44F
:1037600080232360E6E7226822F480322260226808
:1037700022F480222260002BE0D1FFF777FE804602
:10378000236899037FF565AFFFF770FEA0EB080093
:103790006428F5D9AAE7042E03D00C2E10D1022FED
:1037A0000ED123685A0503D5EB68002B3FF402AF16
:1037B00063682A6923F0F85343EA026363604CE7C5
:1037C000EB687BB1236843F480732360FFF74EFE00
:1037D000074623685B05EBD4FFF748FEC01B0228B1
:1037E000F7D983E7236823F480732360FFF73EFE55
:1037F0000746236858057FF530AFFFF737FEC01B3B
:103800000228F6D972E700BF001002408C6C010854
:103810007C000020540000206B699BB1D4F89430E8
:1038200043F00103C4F89430FFF720FE0746D4F8B4
:1038300094309B073FF515AFFFF718FEC01B022819
:10384000F5D953E7D4F8943023F00103C4F8943049
:10385000FFF70CFE0746D4F8943098077FF501AFC8
:10386000FFF704FEC01B0228F5D93FE7A36DD9007E
:1038700029D4A36D43F08053A365A36D03F0805357
:103880000193019B4FF00108894F3B68DA051DD574
:10389000AB68012B2BD1D4F8903043F00103C4F86E
:1038A0009030FFF7E3FD41F288390746D4F89030B5
:1038B000980742D5B8F1000F3FF4D7AEA36D23F0BF
:1038C0008053A365D1E64FF00008DDE73B6843F481
:1038D00080733B60FFF7CAFD81463B68DB05D7D4A8
:1038E000FFF7C4FDA0EB09000228F6D9FEE6052B80
:1038F00006D1D4F8903043F00403C4F89030CAE7FE
:10390000D4F8902022F00102C4F89020D4F890203E
:1039100022F00402C4F89020002BC2D1FFF7A6FDCC
:1039200041F288390746D4F890309907C2D5FFF79D
:103930009DFDC01B4845F6D9D8E6FFF797FDC01B93
:103940004845B3D9D2E6022B40F08F80E368EA6A9B
:1039500003F00301914224D1296B03F07002013975
:10396000B2EB011F1DD1696B03F4FE42B2EB012FD4
:1039700017D1AA6B073A03F4003118BF0122914214
:103980000FD1EA6B520803F4C001013AB1EB425F78
:1039900007D12A6C520803F0C063013AB3EB426FBF
:1039A0004AD00C2E3FF406AE23685A013FF502AE12
:1039B0002368DB003FF5FEAD236823F080732360AE
:1039C000FFF754FD064623689F012FD4E268394B68
:1039D0001340EA6A13436A6B43EA02232A6B013AF3
:1039E00043EA0213AA6B120943EA4243EA6B520804
:1039F000013A43EA42532A6C5208013A43EA4263CD
:103A0000E360236843F080732360E36843F08073CE
:103A1000E360FFF72BFD0546236898013FF529AECB
:103A2000FFF724FD401B0228F6D95FE6FFF71EFDD5
:103A3000801B0228C7D959E6236899013FF519AEC2
:103A4000236843F080732360E36843F08073E3608E
:103A5000FFF70CFD054623689A013FF50AAEFFF714
:103A600005FD401B0228F6D940E60C2E3FF4A2AD1E
:103A7000236823F080732360236813F0205F02BF64
:103A8000E36823F00303E360E36823F0887323F41F
:103A90008033E360FFF7EAFC054623689B017FF56E
:103AA000E8ADFFF7E3FC401B0228F6D91EE600BF95
:103AB000007000408C809DF92DE9F0410D460446D0
:103AC00010B90120BDE8F081404A136803F00703F4
:103AD0008B422AD32368D90732D421688A075BD462
:103AE0003A4A136803F00703AB425DD811F0040FA4
:103AF000374D64D10B0706D5AB68226923F46053B8
:103B000043EAC203AB60FFF707FDAB68314AC3F37A
:103B10000313BDE8F041D35C03F01F03D8402E4BE4
:103B200018602E4B1868FFF759BC136823F0070381
:103B30000B431360136803F007038B42C1D1C9E73D
:103B40006268234E032A33681AD113F0007FB8D07D
:103B5000B36823F003031343B360FFF787FC41F21C
:103B600088380746B368626803F00C03B3EB820F32
:103B7000B3D0FFF77BFCC01B4045F3D90320A1E77E
:103B8000022A02D113F4003FE1E712B913F0020F49
:103B9000DDE713F4806FDAE70D4AA068936823F03D
:103BA000F003034393609BE7136823F007032B4361
:103BB0001360136803F00703AB4282D196E7AB684A
:103BC000E26823F4E0631343AB6093E70020024014
:103BD000001002408C6C01087C0000205400002082
:103BE000054B064A9B68C3F30223D35C044A106862
:103BF00003F01F03D840704700100240846C010896
:103C00007C000020054B064A9B68C3F3C223D35CAB
:103C1000044A106803F01F03D840704700100240A8
:103C2000846C01087C0000201F2303602B4B1A6862
:103C3000510356BF1A684FF4A02202F4803242604A
:103C40001A6802F0010282615A68C2F30722C26157
:103C50001A6802F0F00202621A6802F48072C2600E
:103C60005A68C2F304620261D3F89020520756BF2B
:103C7000D3F89020052202F001028260D3F894204C
:103C800002F001024261002242621A6812F0807F53
:103C90000CBF012202228262DA6802F00302C262D1
:103CA000DA68C2F3021201320263DA68C2F3062252
:103CB0004263DA68C2F3415201325200C263DA68E9
:103CC000C2F34162013252000264DB6813F4003F28
:103CD0000CBF072311238363704700BF001002400D
:103CE0000F2303600B4B9A6802F0030242609A684C
:103CF00002F0F00282609A6802F4E062C2609B689F
:103D0000DB0803F4E0630361034B1B6803F0070364
:103D10000B6070470010024000200240F8B5414C93
:103D2000E3689B0705460E46006828D0E36803F069
:103D3000030383423AD1002B38D0E3686A68C3F3A7
:103D400002130133934231D1236823F0806323604F
:103D5000FFF78CFB074623681A0130D4AA681202C9
:103D6000A6B3012E23694CD1296923F4C003490865
:103D700023F4FE430139134343EA415330E0022860
:103D800010D0032814D0012810D123689F071CD518
:103D9000E3686A6823F07303013A034343EA0213BA
:103DA000E360D1E7236813F4806FF1D101200CE0C8
:103DB00023689903ECD4236813F4802FF5E7FFF709
:103DC00055FBC01B0228C6D90320F8BD2369E9684A
:103DD00023F41F3323F440730909134343EA414397
:103DE0002361236843F080632360FFF73FFB0646AF
:103DF00023681B0110D52369AA691343236100209E
:103E0000E3E7696923F0C063490823F4FE430139FD
:103E1000134343EA4163E3E7FFF728FB801B0228D3
:103E2000E6D9D1E700100240F8B53B4CE3689B07A8
:103E300005460E46006826D0E36803F0030383427C
:103E400038D1002B36D0E3686A68C3F3021301331C
:103E500093422FD1236823F080532360FFF706FBA2
:103E6000074623689A002ED4A968090296B36369AD
:103E70002A6923F0C063520823F4FE43013A0B433E
:103E800043EA426330E0022810D0032814D001280E
:103E900010D123689F071CD5E3686A6823F0730379
:103EA000013A034343EA0213E360D3E7236813F4C0
:103EB000806FF1D101200CE023689903ECD42368D2
:103EC00013F4802FF5E7FFF7D1FAC01B0228C8D9F9
:103ED0000320F8BD6369EA6823F41F3323F44073B9
:103EE00012090B4343EA42436361236843F0805362
:103EF0002360FFF7BBFA064623689B0005D563697C
:103F00006A69134363610020E3E7FFF7AFFA801BA0
:103F10000228F1D9DCE700BF0010024003682DE958
:103F2000F3471D05044628D5416EB1F5000F26D094
:103F300017D851B3B1F5800F2ED001252368D804CE
:103F40000DD5A16EB1F1007F00F0488129D800297C
:103F500000F04A81B1F1807F00F04B8101252F46AE
:103F60002FE0B1F5400FE8D1AC4A616ED2F888304D
:103F700023F440030B43C2F888300025DEE7A74A4C
:103F8000D36843F48033D360EEE70430FFF7C6FE16
:103F900005460028D2D1E7E700212030FFF744FF93
:103FA000F6E7B1F1407FD9D12F46002F40F02781AD
:103FB0009A4AA16ED2F8883023F040730B43C2F8BE
:103FC0008830236899033AD5944EB36DDA0000F136
:103FD0001881B36D43F08053B365B36D03F0805324
:103FE0000193019B4FF00108DFF83492D9F80030BB
:103FF00043F48073C9F80030FFF738FA8246D9F8E5
:104000000030DB0540F100818FB9D6F89030D4F84C
:10401000842013F4407340F00581D6F89030D4F832
:10402000842023F440731343C6F890302F46B8F130
:10403000000F03D0B36D23F08053B3653D46236872
:10404000DA0708D57549A06BD1F8882022F0030261
:104050000243C1F888209F0708D57049E06BD1F86A
:10406000882022F00C020243C1F888205E0708D5A0
:104070006A49206CD1F8882022F030020243C1F84E
:104080008820180708D56549606CD1F8882022F08F
:10409000C0020243C1F88820D90608D55F49A06C48
:1040A000D1F8882022F440720243C1F888209A0691
:1040B00008D55A49E06CD1F8882022F440620243C6
:1040C000C1F888209F0508D55449E06DD1F88820B3
:1040D00022F440220243C1F888205E0508D54F49EA
:1040E000206ED1F8882022F440120243C1F88820C3
:1040F000580608D54949206DD1F8882022F440524D
:104100000243C1F88820190608D54449606DD1F8EA
:10411000882022F440420243C1F88820DA0508D5FD
:104120003E49A06DD1F8882022F440320243C1F804
:1041300088209F0410D5394AE16ED2F8883023F0E8
:1041400040630B43B1F1006FC2F8883040F09280B9
:10415000D36843F48013D3602F4623681E0310D521
:104160002E4A216FD2F8883023F040630B43B1F11F
:10417000006FC2F8883040F08A80D36843F480131F
:10418000D3603E4623685D0310D5244A616FD2F8A0
:10419000883023F040630B43B1F1006FC2F88830E0
:1041A00040F08280D36843F48013D360354623689F
:1041B000580440F189801949A26FD1F8883023F062
:1041C00040531343B2F1805FC1F8883079D10221A6
:1041D000201DFFF7A3FD002876D076E00F4AD368B4
:1041E00043F48033D360DFE6201DFFF797FD0746D9
:1041F000DBE6002104F12000FFF716FEF7E73D465D
:10420000DFE64FF00008EFE6FFF730F9A0EB0A0019
:1042100002287FF6F4AE032709E700BF0010024032
:104220000070004093423FF4F8AED6F89020D6F8E4
:10423000903043F48033C6F89030D6F8903022F4B2
:10424000407123F48033D007C6F89030C6F8901040
:104250007FF5E3AEFFF70AF941F288390746D6F851
:10426000903099073FF5D9AEFFF700F9C01B4845DC
:10427000F5D9D0E7B1F1806F7FF46EAF0121201D39
:10428000FFF74CFD074600283FF466AF65E7B1F144
:10429000806F7FF476AF0121201DFFF73FFD0646BA
:1042A00000283FF46EAF6DE7B1F1806F7FF47EAF11
:1042B0000121201DFFF732FD054600283FF476AFAF
:1042C00075E7B2F1005F1BD028462268110408D5BB
:1042D0000E49E56FD1F8883023F080432B43C1F8B5
:1042E0008830D30309D5094AD4F88010D2F8883031
:1042F00023F000430B43C2F8883002B0BDE8F087DA
:10430000022104F12000FFF78FFD64E70010024056
:104310004D4B03604D4B10B5DC6804F00304446062
:10432000D968C1F30211013181601A69C2F3062212
:10433000C2601A69520B02F01002073202611A6958
:10434000C2F341520132520042611A69C2F3416222
:10435000C0E908410132520082615A69C2F3062263
:1043600082625A69520B02F010020732C2625A6925
:10437000C2F34162013252000263D3F8882002F096
:1043800003028263D3F8882002F00C02C263D3F8E0
:10439000882002F030020264D3F8882002F0C002C4
:1043A0004264D3F8882002F440728264D3F88820F3
:1043B00002F44062C264D3F8882002F440520265DD
:1043C000D3F8882002F440424265D3F8882002F4F2
:1043D00040328265D3F8882002F44022C265D3F8C7
:1043E000882002F440120266D3F8882002F44002CA
:1043F0004266D3F8882002F040728266D3F890209B
:1044000002F44072C0F88420D3F8882002F04062A1
:10441000C266D3F8882002F040620267D3F8882091
:1044200002F040624267D3F8882002F0405282676F
:10443000D3F8882002F08042C267D3F8883003F0B6
:104440000043C0F8803010BDFFFF0F000010024095
:10445000094A536943F4802310B55361EFF3108286
:1044600072B600235C581C500433B3F5807FF9D139
:1044700082F3108810BD00BF00200240064B5A692D
:10448000002ABFBF054A9A6002F188329A60BABF1B
:104490005869C00F00207047002002402301674583
:1044A000034A536943F0004353610020704700BF43
:1044B0000020024070B50546FEF7D8FF104C0646B6
:1044C0002369DA030BD423694CF2FA3213400FD07C
:1044D0000C494A681A434A600120236170BD691C77
:1044E000EED0FEF7C3FF801BA842E9D30320F5E717
:1044F0002369DB0744BF012323610020EEE700BFEF
:1045000000200240580000202DE9F843254D99462F
:104510002B78012B04460F46904641D001234CF2E4
:1045200050302B70FFF7C6FF064630BB68601E4850
:10453000026812F4806217BF03682A7723F480634D
:1045400003601CBF02232B77E4B9436943F00103E6
:104550004361C7F80080BFF36F8F0124C7F8049050
:104560004CF25030FFF7A6FF064624B10E4A5369BD
:1045700023EA0403536100F049F800232B7030460E
:10458000BDE8F883631E012B08D841463846FFF783
:104590005FFFA31E5C425C41A404E1E70024DFE767
:1045A0000226ECE75800002000200240094B10F0E2
:1045B000010F1EBF5A6942F004025A61820742BFCE
:1045C0005A6942F400425A615A6942F480325A618F
:1045D000704700BF002002400B4B5A6911F0010FD9
:1045E00014BF22F4006242F400625A615A6960F317
:1045F000CA025A615A6942F002025A615A6942F487
:1046000080325A61704700BF002002401348037F88
:10461000DAB203F0FD03012B0CD1114B196841F400
:1046200000611960196821F400611960196841F48A
:1046300000711960931E012B0CD8094B1A6842F4C3
:1046400080521A601A6822F480521A601A6842F482
:1046500080621A6000230377704700BF5800002073
:10466000002002402DE9F047354D2B78012B0646FE
:10467000884662D001274CF250302F70FFF71AFFA6
:10468000044640BB2F4B68601A6812F4007F1A681A
:1046900026D022F400721A601A68510506D51A68ED
:1046A00022F480621A6003232B7700E02F773368AF
:1046B000012B1FD17068FFF779FF4CF25030FFF7E4
:1046C000F9FE204A536923F4004323F0040304460F
:1046D0005361FFF79BFF00232B702046BDE8F08756
:1046E000520505D51A6822F480621A600223DBE7BE
:1046F0002877DCE74FF0FF33C8F80030B768DFF801
:104700004490DFF844A0D6E902321344BB42E0D91A
:1047100071683846FFF760FF4CF25030FFF7CAFE71
:10472000D9F8143003EA0A03C9F8143018B1C8F8EC
:1047300000700446CDE70137E5E70224CDE700BF6E
:10474000580000200020024005F8FFFF2DE9F74F38
:10475000DFF8B091694D00230A6832FA03F402D100
:1047600003B0BDE8F08F012404FA03F818EA02024E
:1047700000F09A804C6824F0100A03264FEA430E9A
:104780000AF1FF3706FA0EFC012F6FEA0C0C04EA5F
:10479000060640F28B80032E00F09A80C76807EA75
:1047A0000C088F6807FA0EF747EA0807BAF1020FFC
:1047B000C76016D14FEAD30800EB880803F0070A58
:1047C000D8F820704FEA8A0A4FF00F0B0BFA0AFB59
:1047D00027EA0B0B0F6907FA0AF747EA0B07C8F835
:1047E0002070076806FA0EF607EA0C073E430660DB
:1047F000E60059D5D9F8606046F00106C9F8606056
:10480000D9F8606023F0030707F1804706F001063E
:1048100007F58037019603F0030C019EBE684FEA4E
:104820008C0C4FF00F0E0EFA0CFEB0F1904F26EAF2
:104830000E0E57D0324EB04256D006F58066B042CA
:1048400054D006F58066B04252D006F58066B0427C
:1048500050D006F58066B0424ED006F58066B04274
:1048600014BF0726062606FA0CF646EA0E06BE60B8
:104870002E68D74314F4803F0CBF3E4016432E6091
:104880006E6814F4003F0CBF3E4016436E60AE6885
:1048900014F4801F0CBF3E401643AE60EE68A402C5
:1048A00054BF3E401643EE60013355E7876807EA80
:1048B0000C0BCF6807FA0EF747EA0B0787604768CB
:1048C00027EA080827099F4047EA0807476065E785
:1048D000C76A27EA0808C4F3C0079F4047EA0807E9
:1048E000C7625BE70026BEE70126BCE70226BAE7FF
:1048F0000326B8E70426B6E70526B4E7000401401E
:1049000000040048001002402DE9F04F424C002204
:104910004FF0010A4FF00F084FF0030B31FA02F38A
:1049200001D1BDE8F08F0AFA02F616EA010765D058
:1049300022F0030505F1804505F5803502F0030CF2
:10494000AB684FEA8C0C08FA0CF9B0F1904F09EA09
:10495000030E55D0314B984254D003F580639842F2
:1049600052D003F58063984250D003F5806398429B
:104970004ED003F5806398424CD003F58063984293
:1049800014BF0723062303FA0CF3734513D12368DE
:1049900023EA07032360636823EA07036360A368CD
:1049A00023EA0703A360E36823EA0703E360AB6835
:1049B00023EA0903AB60056853000BFA03F3D70839
:1049C0001D4300EB8707056002F00705D7F820C0FC
:1049D000AD0008FA05F52CEA05053D62856825EA73
:1049E00003058560456825EA06054560C56825EA32
:1049F0000303C360C36A23EA0603C36201328DE77F
:104A00000023C0E70123BEE70223BCE70323BAE784
:104A10000423B8E70523B6E700040140000400487A
:104A20000369194214BF0120002070470AB1816157
:104A30007047816270470000044A5169014208B51D
:104A400002D0506100F0A4FD08BD00BF0004014089
:104A5000F0B50346002854D004682B4A94424FF026
:104A600014013CD8294A2A482244B2FBF1F29200B0
:104A7000022183F82510D3E902611F6925683143BB
:104A800039435F6939439F693943DF6939431F6A95
:104A90006FF30E1539432943B6F5804FC3E9100271
:104AA000216014D05C6802F01C020F2191409440F8
:104AB000174A90426FEA010118D1D0F8A8200A40A5
:104AC000C0F8A820D0F8A8202243C0F8A8200020D1
:104AD0000122D86383F8240083F82520F0BD0D4A15
:104AE0000D482244B2FBF1F29200C1E7D2F8A804CB
:104AF0000140C2F8A814D2F8A8142143C2F8A8149F
:104B0000E5E70120EAE700BF07040240F8FFFDBF28
:104B100000000240F8FBFDBF0004024010B5002871
:104B20003DD001680B6823F001030B601D4B9942D7
:104B30004FF014022CD81C4B1C4C0B44B3FBF2F36B
:104B40009B000022C0E910430A6003F01C0301210E
:104B5000994061600F2101FA03F314498C420CBFA4
:104B6000D4F8A810D1F8A8446FEA03030BBF0B4098
:104B70002340C4F8A830C1F8A834C263C0E90B22AE
:104B8000C0E90D2280F8252080F82420002010BDE7
:104B9000074B084C0B44B3FBF2F39B00D1E7012019
:104BA000F5E700BF07040240F8FFFDBF0000024028
:104BB000F8FBFDBF00040240016C426C036870B456
:104BC00002F01C020E681D680424944034420ED08A
:104BD00015F0040F0BD01A6892065EBF1A6822F017
:104BE00004021A60036B4C6073B370BC1847022454
:104BF0009440344212D015F0020F0FD01A68950677
:104C000006D41A6822F00A021A60012380F82530BF
:104C100000234C6080F82430C36AE5E70824944000
:104C2000344211D02C070FD51C6824F00E041C60F0
:104C3000012303FA02F24A60C36380F8253000239F
:104C400080F82430436BCFE770BC7047024A13688A
:104C500043F480731360704700700040024B186883
:104C600000F4C060704700BF007000400B4A13683A
:104C700023F0070343F002031360094B1A6901286C
:104C800042F004021A6105D130BF1A6922F0040211
:104C90001A61704740BF20BF20BFF6E70070004098
:104CA00000ED00E00749CA6822F4E0620302120442
:104CB00003F4E063120C134343F0BF6343F4003387
:104CC000CB60704700ED00E0164B30B5DC68C4F3F4
:104CD0000224C4F10703251D042B28BF0423062D3D
:104CE0004FF0FF358CBF033C002405FA03F321EAA3
:104CF0000303A54022EA0502A340002843EA020379
:104D0000ACBF00F16040084A4FEA0313B8BF00F09F
:104D10000F00DBB2AABF00F56140135480F80033E6
:104D200030BD00BF00ED00E014ED00E0002807DB1F
:104D3000044A4109012300F01F00834042F821305A
:104D4000704700BF00E100E000280CDB4309064982
:104D500000F01F0020330122824041F82320BFF3DE
:104D60004F8FBFF36F8F704700E100E00138B0F163
:104D7000807F0BD24FF0E023054A5861F02182F882
:104D800023100020072298611A61704701207047A4
:104D900000ED00E0704708B5FFF7FCFF08BD00F02C
:104DA00031BC00F063BE00F069BE07B5CDE900215B
:104DB00001466A46002001F0D5F803B05DF804FB17
:104DC000002001F0F3B808B500F018FBBDE808407A
:104DD000002001F0F9B808B500F0F8FABDE8084085
:104DE000002001F0EBB8000010B50C4611461A4641
:104DF00005281CD8DFE800F003080A0F1416144831
:104E0000BDE8104000F0C0B91248F9E704F10060B5
:104E100000F5FE20F4E704F1006000F59620EFE7CE
:104E20000D48EDE704F1006000F5C820E8E70B4904
:104E30000B4801F044F90B4801F041F90A4801F030
:104E40003EF9084801F03BF9BDE8104000F0DABB3C
:104E500000E8070800F8070800E00708356C0108BB
:104E6000EE3801089E3001080A39010870B50E4677
:104E700014461D4605282ED8DFE800F0030E163E26
:104E80001E2601211D4800F0EBF81C482A46214649
:104E9000BDE8704000F024B90121194800F0E0F8A5
:104EA00017482A462146F3E70121164800F0D8F8B2
:104EB00014482A462146EBE70121134800F0D0F8B8
:104EC00011482A462146E3E706F100602A462146BA
:104ED00000F5C820DCE70D490D4801F0F0F80D4859
:104EE00001F0EDF80C4801F0EAF80A4801F0E7F8A3
:104EF000BDE8704000F086BB70BD00BF00E8070849
:104F000000F8070800F0070800E00708186C01081F
:104F1000EE3801089E3001080A39010808B5F22967
:104F2000064B28BFF22119701A7801460448FBF796
:104F3000B7FE044B01221A7008BD00BF017F0010AC
:104F4000027F0010007F0010024B1878024B1B7884
:104F500018407047007F0010780000200CB42DE945
:104F6000F041C4B04AACFF2705460E463A46002140
:104F700004A854F8048BFBF76FFC2B463946104A03
:104F8000009604A8FCF7EEFA04AB2246C5B24146EF
:104F900053FA80F00394FBF7BFFB2918C9B204A8A9
:104FA000FFF7BCFF04A9074801F089F8064801F0A3
:104FB00086F800F027FB44B0BDE8F04102B070472E
:104FC0001C390108243901089E30010800F0DCBDBD
:104FD000034B1422C3E9011018461A7000F0E8B818
:104FE000A0040020002070477047704705207047DC
:104FF0007047FF207047012070470FB407B504A920
:1050000051F8040B019101F047F803B05DF804EB8F
:1050100004B07047704700000F49D1F8883043F45E
:105020007003C1F888300D4B1A68002042F001026D
:105030001A6098601A6822F0A85222F410221A60AE
:105040004FF48052DA601A6822F480221A60986164
:105050004FF000638B60704700ED00E000100240ED
:10506000F0B587B000230446019304F178450E465D
:10507000FFF704FA164B4FF40042B5F5801F1A6192
:105080004FEAD52706D31348214601F018F81248F5
:1050900001F015F8ED0CCDE90476002401350294F9
:1050A000039501A902A8FFF7DDFA0134E4B240B18B
:1050B000042CF6D1094801F002F8074800F0FFFF80
:1050C000FEE7042CF6D0FFF7EBF9012007B0F0BDA6
:1050D00000200240433901089E3001086D39010863
:1050E00053072DE9F74F14461CBF22F0070408347C
:1050F00004EB000B80468A46FFF7C0F9214B4FF4C2
:105100000042BBF1016F1A6139D84FF0000909EB79
:105110000801594505D3FFF7C3F9204603B0BDE8A0
:10512000F08F00230AEB09071A46184617F8015BAF
:10513000A3F12006C3F1200C05FA06F625FA0CFCB3
:105140009D40AD1846EA0C0603F1080340EB060645
:10515000402B2A463046E9D100272A463346002014
:105160000191FFF7D1F90137FFB218B1042F01996E
:10517000F3D1FEE7042FFCD009F10809C7E70024AA
:10518000CBE700BF0020024082B000238DF807303B
:105190000A44401A914201D102B070474358DBB231
:1051A0008DF807309DF8073001F8013BF2E7000069
:1051B00038B183682BB10378024A03F00F0342F839
:1051C00023007047AC040020F0B590F900308DB09A
:1051D0001746012603F00F029640426807929D0190
:1051E0008268089205F47055002213F0F003CDE9AF
:1051F0000922044605F1904506962BD1504BDA6CF6
:1052000042F00102DA64DB6C03F001030093009BBF
:10521000CAB22846B1B2FFF709FC06A92846FFF733
:1052200095FA6368474A23F40011914203D002F5CE
:105230008012934257D13846FFF7BAFF237803F024
:105240000F03092B74D8DFE803F04650575E656CF6
:105250006C6C6C6C102B0AD1394BDA6C42F0020288
:10526000DA64DB6C03F002030193019BD0E7202B8F
:105270000AD1334BDA6C42F00402DA64DB6C03F0DF
:1052800004030293029BC3E7302B0AD12C4BDA6C48
:1052900042F00802DA64DB6C03F008030393039B1B
:1052A000B6E7402B0AD1264BDA6C42F01002DA64E2
:1052B000DB6C03F010030493049BA9E7702BA7D1C8
:1052C0001F4BDA6C42F08002DA64DB6C03F080037F
:1052D0000593059B9CE7002206201146FFF7F4FC8E
:1052E0000620FFF723FD0DB0F0BD00220720114678
:1052F000FFF7EAFC0720F4E7002208201146FFF739
:10530000E3FC0820EDE7002209201146FFF7DCFC52
:105310000920E6E700220A201146FFF7D5FC0A2003
:10532000DFE7002217201146FFF7CEFC1720D8E751
:10533000002228201146FFF7C7FC2820D1E700BF34
:1053400000100240000011107FB50022891A8DF86C
:1053500000004FF0010318BF01216846CDE901327A
:10536000CDE90322FFF730FF07B05DF804FB000032
:10537000F0B5154C06468C4696461D4694E80F003F
:105380008FB004AF103487E80F0094E8070001AB3A
:1053900083E807000EAB03EB8E0E8DF820605EF8FD
:1053A000283C09930EAB03EB8C0C2A465CF8343C8A
:1053B0000A930023CDE90B3305B12E70002108A814
:1053C000FFF702FF0FB0F0BDB82D010808B50620A9
:1053D000FFF7ACFC0720FFF7A9FC0820FFF7A6FCAD
:1053E0000920FFF7A3FC0A20FFF7A0FC1720FFF716
:1053F0009DFCBDE808402820FFF798BC08B50620B2
:10540000FFF7A2FC0720FFF79FFC0820FFF79CFC9A
:105410000920FFF799FC0A20FFF796FC1720FFF7F9
:1054200093FCBDE808402820FFF78EBC00F00F0277
:1054300001238001934000F470500A1E18BF01221E
:1054400099B200F19040FFF7F1BA08B5012100F0E0
:105450000F038001994000F4705089B200F1904030
:10546000FFF7DEFA003818BF012008BD10F0F00089
:1054700086B00BD1264BDA6C42F00102DA64DB6CA9
:1054800003F001030093009B06B0704710280AD177
:105490001F4BDA6C42F00202DA64DB6C03F00203A9
:1054A0000193019BF0E720280AD1194BDA6C42F0F6
:1054B0000402DA64DB6C03F004030293029BE3E76B
:1054C00030280AD1124BDA6C42F00802DA64DB6C45
:1054D00003F008030393039BD6E740280AD10C4B43
:1054E000DA6C42F01002DA64DB6C03F01003049310
:1054F000049BC9E77028C7D1054BDA6C42F08002E3
:10550000DA64DB6C03F080030593059BBCE700BF06
:10551000001002400120FFF78FBA0220FFF78CBA7B
:105520000420FFF789BA0820FFF786BA1020FFF79A
:1055300083BA08B52020FFF77FFA4020FFF77CFAF6
:105540008020FFF779FA4FF48070FFF775FABDE815
:1055500008404FF40070FFF76FBA08B54FF4806051
:10556000FFF76AFA4FF40060FFF766FA4FF48050D5
:10557000FFF762FA4FF40050FFF75EFA4FF48040F5
:10558000FFF75AFABDE808404FF40040FFF754BA5D
:1055900078B9094B53F820306BB19A685AB1586802
:1055A000104740081346012803F10102F9D1D8B28F
:1055B000EFE70023F7E77047AC04002084B00190C8
:1055C000019B4FF47A7202FB03F30B4A82FB031236
:1055D0009210DB17D31A02930023039303E000BF5A
:1055E000039B01330393039A029B9A42F7D300BFB4
:1055F00000BF04B0704700BFB975790772B6704735
:1056000062B6704772B6BFF34F8F0549054BCA6843
:1056100002F4E0621343CB60BFF34F8F00BFFDE79E
:1056200000ED00E00400FA052DE9F041BAB0FDF705
:10563000FBFE4422002106A8FBF70EF94F4E142270
:10564000002101A8FBF708F98822002118A8FBF720
:1056500003F9FFF7FBFAD6F8903023F01803C6F8E9
:1056600090300E23012506931023CDE90A350A2335
:1056700002274FF4807413930722022306A8CDE972
:105680000854CDE91077CDE9142312951697FDF74C
:105690008DFF70B13A493B4800F011FD3A4800F0E7
:1056A0000EFD3A4800F00BFD374800F008FDFFF70B
:1056B000A9FF0421CDE903004FF00F0C032305904F
:1056C0000DEB0100CDE901C3FEF7F6F90028E1D1A9
:1056D0004FF440224FF44013CDE92F234FF0806167
:1056E0004FF04053CDE935134FF007080C23CDE9B7
:1056F0001B380423CDE91D374FF480131F932790E7
:10570000234B399418A8CDE919751893FEF706FCB8
:1057100004460028BED1B36D43F08053B365B36D2A
:1057200003F080530093009BB36843F40043B360DD
:1057300000F0F6FD00F0D0FC29460820FFF704FE3B
:105740002346224621461320FFF712FE23462A460F
:1057500039461420FFF70CFE29462046FFF7F4FDDA
:10576000204600F0BBFB052306224146284600F0F8
:105770006DFA3AB0BDE8F04100F032B900100240D5
:10578000AB6C0108D42D0108F02D0108F52D01089E
:105790000246060010B5002898B057DD00F080F9E9
:1057A000FDF76AFE012000F0A5FA00F0C7FC012019
:1057B000FFF75CFA1422002102A8FBF74DF84422FF
:1057C000002107A8FBF748F80024214B00949A6DAC
:1057D00042F080529A659B6D03F08053019307A8B5
:1057E000019BFEF721FA022307A807941193FDF706
:1057F000DDFE70B11749184800F061FC174800F051
:105800005EFC174800F05BFC144800F058FCFFF702
:10581000F9FE694602A8FEF763FA01220323009904
:1058200002A8CDE90223FEF747F90028E2D100F0F3
:1058300053FC052306220721012000F007FAFDF79B
:1058400022FE18B0BDE8104000F03EB918B010BDFF
:10585000001002409C6C0108D42D0108F02D0108B5
:10586000F52D010808B5FDF7F5FDBDE80840FFF787
:1058700092BA002208B511466FF00B00FFF724FA28
:10588000002211466FF00A00FFF71EFA00221146AF
:105890006FF00900FFF718FA002211466FF00400BC
:1058A000FFF712FA002211466FF00300FFF70CFA1F
:1058B000002211466FF00100FFF706FA0022BDE852
:1058C000084011464FF0FF30FFF7FEB908B5094810
:1058D00000F0F5FB084800F0F2FB084800F0EFFB91
:1058E000054800F0ECFB064800F0E9FB024800F038
:1058F000E6FBFEE7072E0108F02D01081D2E01082A
:105900003E2E010870B5304D304E88B00446AB6A6B
:105910000293002201A93046FDF736F9002203A9BF
:105920003046FDF708F9AA6A029B9A42EFD19DF82A
:105930000730274A9DF80500264913F0030F40F26F
:10594000B55518BF11465D4301389DF806303D221C
:1059500042430335013B013203EB950302EBD27264
:10596000400003EB620321FA00F202F003029B1AEB
:105970009DF80D209DF80C10C2EB02124FF46160EF
:10598000920000FB01229DF80E100A44124901FB0F
:105990000322124B04991B68C1F57F710331980DE6
:1059A0009B0295025B1840F100005B1940EB92509E
:1059B00042F21071C3F309024A439B0A920A43EA76
:1059C0008050228008B070BD00280040F004002004
:1059D000A0AA99005055440080510100EC04002019
:1059E0007FB51B481B4A0023C0E900231F2140F25A
:1059F000FF32C0E90212C0E90433C0E90633FCF704
:105A000093FF70B11449154800F059FB144800F099
:105A100056FB144800F053FB114800F050FBFFF711
:105A2000F1FD114B0A48009369460022FDF72EF85C
:105A3000002201A90648CDE90122CDE90422FCF7A4
:105A4000C4FF0348FDF776F907B05DF804FB00BF1B
:105A5000F004002000280040BF6C0108EE38010867
:105A60009E3001080A3901080101010007B50DF156
:105A70000600FFF747FF03B05DF804FB07B50DF123
:105A80000600FFF73FFFBDF806300A22B3FBF2F332
:105A90004FF47A7202FB003003B05DF804FB0000A3
:105AA00038B5084D06234343400000EBD314284685
:105AB000FDF7ECF8214628460022BDE83840FDF706
:105AC00087B800BFF00400200148FDF7DFB800BF31
:105AD000F00400200148FDF715B900BFF0040020D4
:105AE000084A08B5D2F8903043F40043C2F8903029
:105AF000002203201146FFF7E7F8BDE80840032025
:105B0000FFF714B90010024007B5002318480193AD
