:020000040800F2
:10000000007F0010CD8B00081D8C0008C57B000808
:100010001D8C00081D8C00081D8C000800000000CD
:100020000000000000000000000000001D8C00081F
:100030001D8C0008000000001D8C00085D7B00087E
:100040001D8C00081D8C00081D8C0008D97D00083F
:100050001D8C00081D8C0008FD770008037800083F
:10006000097800080F780008157800081D8C000832
:100070001D8C00081D8C00081D8C00081D8C0008BC
:100080001D8C00081D8C00081D8C00081D8C0008AC
:100090001D8C00081D8C00081D8C00081B780008B2
:1000A0001D8C00081D8C00081D8C00081D8C00088C
:1000B0001D8C00081D8C00081D8C00081D8C00087C
:1000C0001D8C00081D8C00081D8C00081D8C00086C
:1000D0001D8C00081D8C00081D8C00081D8C00085C
:1000E000437800081D8C00081D8C00081D8C00083A
:1000F0001D8C00081D8C00081D8C00081D8C00083C
:100100001D8C00081D8C00081D8C00081D8C00082B
:100110001D8C00081D8C00081D8C00081D8C00081B
:100120001D8C00081D8C00081D8C00081D8C00080B
:10013000F98600081D8C00081D8C00081D8C000825
:100140001D8C0008D9820008018300081D8C00085E
:100150001D8C00081D8C00081D8C00081D8C0008DB
:100160001D8C00081D8C00081D8C00081D8C0008CB
:100170001D8C00081D8C00081D8C0008000000006C
:080180001D8C00081D8C000815
:1001C0000348044B834202D0034B03B118477047E6
:1001D000D8020020D8020020000000000548064B8D
:1001E0001B1AD90F01EBA301491002D0034B03B135
:1001F00018477047D8020020D802002000000000F5
:1002000010B5064C237843B9FFF7DAFF044B13B15E
:100210000448AFF300800123237010BDD8020020F2
:10022000000000001C7F020808B5044B1BB1044904
:100230000448AFF30080BDE80840CFE700000000AD
:10024000DC0200201C7F020810EE102AC2F3C75304
:100250007F3B162B22F0004129DC002B104618DBD7
:100260001A4919410A4221D0DFED197A70EE277A36
:10027000F5EEC07AF1EE10FA18DD002A04DA4FF438
:10028000000242FA03F3184420EA010300EE103A98
:100290007047DFED0F7A70EE277AF5EEC07AF1EE57
:1002A00010FA03DD002A08DB9FED0A0A7047B1F15E
:1002B000FF4FFBD330EE000A7047DFED077A0029CD
:1002C000BFEE000A08BFB0EE670A7047FFFF7F006D
:1002D000CAF2497100000000000000800CB410B5A3
:1002E0009CB01EAB029106916FF000410491079102
:1002F000084953F8042B0591002402A901931B948B
:1003000000F010F9029B1C701CB0BDE8104002B058
:10031000704700BF0802FFFF0EB430B59CB06FF00D
:1003200000411FAB049107910A4953F8042B029036
:1003300000240690084D0868019302A905951B94B6
:1003400000F0F0F8029B1C701CB0BDE8304003B018
:10035000704700BF000000200802FFFF2DE9F047B2
:100360008F681D46AF420B680C46164636D8B1F969
:100370000CC01CF4906F0ED13D46184631462A46FB
:1003800000F01EFCA368DF1B2368A7602B4400203D
:100390002360BDE8F0874A69096902EB42025F1AEF
:1003A00002EBD2726B1C52103B44934292BF9146B7
:1003B00099461A461CF4806F804611D0114600F011
:1003C00021FB824600B321693A4600F0C9FCA389AB
:1003D00023F4906343F08003A38105E02F46CCE72C
:1003E00000F058FD824658B10AEB0703A9EB070756
:1003F000A760C4F810A0C4F8149023602F46BCE78F
:100400002169404600F07EFBA3890C2243F04003A3
:10041000C8F800204FF0FF30A381BAE72DE9F04F74
:100420009368176883B09246002B74D04FF0000B8E
:100430008B680A6881460C465D4645E0B4F90C308D
:1004400013F4906F2CD0D4E90401161A01EB410289
:1004500002EBD272711C52102944914292BF904615
:1004600088460A465B0539D51146484600F0CAFA67
:10047000019000283DD03246216900F071FCA2892C
:10048000019B22F4906242F08002A2819819A8EBAD
:100490000606A660C4F8148023612060A8462E4694
:1004A0003246594600F08CFBDAF80810A36822683F
:1004B000A3EB08033244491BA3602260CAF808106A
:1004C00049B3D7E900B5083798461046002DF8D053
:1004D0009D421E46B2D2A8462E46E1E70146484656
:1004E00000F0D8FC03460028D0D12169484600F02E
:1004F00009FBA3890C2243F04003C9F800204FF008
:10050000FF30A38100220023CAF80820CAF8043073
:1005100003B0BDE8F08F00200023CAF8043003B018
:10052000BDE8F08F2DE9F04F1C468B891D069DB06C
:1005300088468146934603D50B69002B00F0F18075
:100540000023099343F22003ADF829309BF80030D3
:100550007D4D03940126002B73D0DA4603E01AF890
:10056000013F002B75D0252BF9D1BAEB0B0473D1C9
:100570009AF80020002A64D000234FF0FF32CDE922
:1005800005230AF1010A049307938DF853301A9357
:1005900005E0049A06FA03F31A430492A24654466D
:1005A000052214F8011B284600F08AFBA346431BD2
:1005B0000028EED1049BD80644BF20228DF853209A
:1005C00019079AF8001044BF2B228DF853202A29CE
:1005D00050D1039A11680432002903927CDB079101
:1005E0009AF801102E295BD0584C0322204600F0C7
:1005F00067FB38B1049B001B4022824013430BF180
:10060000010B04931BF8011B51488DF8281006229A
:1006100000F056FB002865D04E4B002B55D003AAA6
:1006200000924D4B424604A94846AFF3008007466E
:100630007A1C06D0099B3B4409939BF80030002BA1
:100640008BD1B8F80C305B067AD409981DB0BDE8A0
:10065000F08FBAEB0B04F4D023465A464146484685
:10066000FFF77CFE0130ECD0099B9AF80020234470
:1006700009937FE7A1F13002092A88BFD346B1D898
:10068000079B00E00134217803EB830302EB430373
:10069000A1F13002092AF5D92E290793A346A3D147
:1006A0009BF801102A2927D1039B9BF802101A6896
:1006B00005920433002A0BF102000393B8BF4FF0F8
:1006C000FF338346B8BF05938EE7039B073323F0C0
:1006D000070308330393ADE7494243F00203079150
:1006E00004937DE703AA00921B4B424604A94846A7
:1006F00000F094FC07469BE7A1F130020023092A91
:1007000005930BF1010B3FF66FAF1BF8011F03EBD5
:10071000830302EB4303A1F13002092AF5D90593C3
:1007200062E7402100F06EF9C8F80000C8F8100038
:1007300018B14023C8F8143002E70C23C9F8003080
:100740004FF0FF3082E700BFA0620308A8620308F1
:10075000AC620308000000005D03000870B50F4B99
:100760000F4DAB42A3EB050607D0B610002455F899
:10077000043B01349847A642F9D827F0CFFB094D36
:10078000094B5E1BAB424FEAA60606D0002455F883
:10079000043B01349847A642F9D870BDE8620308CB
:1007A000E8620308E8620308EC62030870B59AB0D7
:1007B00013460A4E0A466FF000410291059108491E
:1007C0000391044600253068199569460094049405
:1007D000FFF7A8FE009B1D701AB070BD000000203E
:1007E0000802FFFF10B59AB00024009104916FF049
:1007F0000041029105910549039169461994FFF75B
:1008000091FE009B1C701AB010BD00BF0802FFFFD4
:1008100000000000000000000000000000000000D8
:1008200000000000000000000000000000000000C8
:1008300000000000000000000000000000000000B8
:1008400030B490F800F020F007016FF0000C10F0C9
:10085000070491F820F040F048804FF000046FF05A
:100860000700D1E9002391F840F000F1080082FA76
:100870004CF2A4FA8CF283FA4CF3A2FA8CF34BBB41
:10088000D1E9022382FA4CF200F10800A4FA8CF2BA
:1008900083FA4CF3A2FA8CF3E3B9D1E9042382FA88
:1008A0004CF200F10800A4FA8CF283FA4CF3A2FA9D
:1008B0008CF37BB9D1E9062301F1200182FA4CF2D5
:1008C00000F10800A4FA8CF283FA4CF3A2FA8CF33C
:1008D000002BC6D0002A04BF04301A4612BAB2FA5E
:1008E00082F200EBD20030BC7047D1E9002304F063
:1008F0000305C4F100004FEAC50514F0040F91F898
:1009000040F00CFA05F562EA05021CBF63EA050334
:1009100062464FF00004AAE7830730B547D0541E63
:10092000002A3ED0CAB2034601E0013C39D303F8A5
:10093000012B9D07F9D1032C2CD9CDB205EB052550
:100940000F2C05EB054535D9A4F1100222F00F0C50
:1009500003F1100EE6444FEA121C1A46C2E9005594
:10096000C2E9025510327245F8D10CF1010214F0BF
:100970000C0F03EB021204F00F0C13D0ACF10403C4
:1009800023F003030433134442F8045B9342FBD186
:100990000CF003042CB1C9B21C4403F8011BA342A0
:1009A000FBD130BD64461346002CF4D1F9E7034671
:1009B0001446C0E71A46A446E0E700BF70B5104EE3
:1009C000336805460C46B3B12146284600F0E0FEE8
:1009D000431C0CD0C41C24F00304A04205D0211AEF
:1009E000284600F0D5FE013001D0204670BD4FF002
:1009F000FF34204670BD194600F0CAFE3060E3E7C0
:100A0000F40200202DE9F843CD1C25F0030508353C
:100A10000C2D38BF0C25002D064618DBA94216D830
:100A2000DFF8DC8000F03CFCD8F80420A2B11446CA
:100A300003E0636822467BB11C4623685B1BF8D445
:100A40000B2B1FD89442636854D053600CE00C23E6
:100A500033600020BDE8F88329463046FFF7AEFF3B
:100A6000431C044619D00560304600F01BFC04F11D
:100A70000B00231D20F00700C21A1CBF1B1AA35035
:100A8000BDE8F88361199442256014BF5160C8F82D
:100A90000410635163684B60E6E7D8F804701FB335
:100AA0003C467F68002FFBD123683946304604EB73
:100AB000030900F06DFE814516D12368ED1A294621
:100AC0003046FFF77BFF01300ED02368D8F80420B2
:100AD0002B442360536883B1A34203D01A465B685A
:100AE0009C42FBD10023B0E70C233360304600F07A
:100AF000D9FBAEE7C8F80430B6E7C8F80470B3E72E
:100B0000F4020020002950D038B551F8043C0C1FE5
:100B1000002BB8BFE418054600F0C2FB274A136853
:100B20002BB1A3420CD92168601883422CD063609A
:100B300028461460BDE8384000F0B4BBA3420FD88B
:100B40001A465B68002BF9D111685018844217D0FF
:100B50002CD3636054602846BDE8384000F0A2BB47
:100B600011685018A04214D020D821686018834220
:100B7000EFD118685B680844C4E900035460EAE7F1
:100B800023680B441360E6E718685B68084420603C
:100B9000CDE720680144501883421160DBD1D3E9CE
:100BA00000040144C2E90014D5E770470C232B6010
:100BB0002846BDE8384000F075BB00BFF8020020B1
:100BC00088420ED98B1883420BD900EB020C002A05
:100BD0006ED0624613F801CD02F801CD9942F9D1E9
:100BE00070470F2A0FD8034602F1FF3C002A5FD05E
:100BF0000CF1010C013B8C4411F8012B03F8012F7F
:100C00006145F9D1704740EA01039B0751D1A2F138
:100C1000100370B501F1200C23F00F0501F1100E47
:100C200000F11004AC441B095EF8105C44F8105C41
:100C30005EF80C5C44F80C5C5EF8085C44F8085CF8
:100C40005EF8045C44F8045C0EF1100EE64504F115
:100C50001004E9D1013312F00C0F01EB031102F083
:100C60000F0400EB031328D0043C24F003064FEAE2
:100C7000940C1E441C1F8E465EF8045B44F8045F0F
:100C8000B442F9D10CF1010402F0030203EB840336
:100C900001EB840102F1FF3C4AB10CF1010C013B74
:100CA0008C4411F8012B03F8012F6145F9D170BD77
:100CB000704702F1FF3C03469AE72246EAE700BF8D
:100CC00001F0FF01102A2BDB10F0070F08D010F8FD
:100CD000013B013A8B422DD010F0070F42B3F6D101
:100CE000F0B441EA012141EA014122F007047FF01A
:100CF00000070023F0E80256083C85EA010586EA71
:100D0000010685FA47F5A3FA87F586FA47F6A5FAAC
:100D100087F68EB9EED1F0BC01F0FF0102F00702B8
:100D200032B110F8013B013A83EA010313B1F8D163
:100D30000020704701387047002D06BF3546033844
:100D4000073815F0010F07D1013015F4807F02BF7D
:100D5000013015F4C03F0130F0BC0138704700BFCE
:100D6000844641EA000313F003036DD1403A41D3B6
:100D700051F8043B40F8043B51F8043B40F8043B75
:100D800051F8043B40F8043B51F8043B40F8043B65
:100D900051F8043B40F8043B51F8043B40F8043B55
:100DA00051F8043B40F8043B51F8043B40F8043B45
:100DB00051F8043B40F8043B51F8043B40F8043B35
:100DC00051F8043B40F8043B51F8043B40F8043B25
:100DD00051F8043B40F8043B51F8043B40F8043B15
:100DE00051F8043B40F8043B51F8043B40F8043B05
:100DF000403ABDD2303211D351F8043B40F8043BA5
:100E000051F8043B40F8043B51F8043B40F8043BE4
:100E100051F8043B40F8043B103AEDD20C3205D3B4
:100E200051F8043B40F8043B043AF9D2043208D0AC
:100E3000D2071CBF11F8013B00F8013B01D30B881E
:100E400003806046704700BF082A13D38B078DD0FC
:100E500010F003038AD0C3F10403D21ADB071CBFCE
:100E600011F8013B00F8013B80D331F8023B20F838
:100E7000023B7BE7043AD9D3013A11F8013B00F871
:100E8000013BF9D20B7803704B7843708B788370F9
:100E9000604670472DE9F041144641B30AB3064657
:100EA0000D4600F087FC8442074602D8B4EB500F91
:100EB00013D821463046FFF7A5FD804650B1BC420D
:100EC0002246294628BF3A46FFF74AFF29463046C0
:100ED000FFF718FE4046BDE8F081A8464046BDE851
:100EE000F081A046FFF70EFE4046BDE8F081BDE868
:100EF000F0411146FFF786BD2DE9F84F92461F4697
:100F00000A698B68DDF828909A42B8BF1A46CAF879
:100F1000002091F843300C46064613B10132CAF85E
:100F20000020226891065FD5DAF800300233CAF853
:100F30000030226812F0060F11461DD1E168994277
:100F4000D8BF114618DD4FF0000804F1190B05E079
:100F5000E568DAF80030ED1A45450CDD01235A4604
:100F600039463046C847013008F10108F0D14FF04A
:100F7000FF30BDE8F88F216894F84330003B18BF7C
:100F800001238A060AD5E1185A1C302081F8430053
:100F9000224494F8451082F84310023304F14302CE
:100FA00039463046C8470130E1D02368DAF80050AE
:100FB000216903F00603042BD4E902201BD08A42E6
:100FC00020DD4FF00008521A90441A34002501E049
:100FD000454517DA0123224639463046C8470130D5
:100FE00005F10105F4D1C2E712F0060F0DD0003B68
:100FF00018BF0123D2E7401B8A4220EAE078E2DCF6
:101000000028E2DC0020BDE8F88FE168DAF8003063
:101010009942D8BF114696DCAEE700BF2DE9F047F4
:10102000174684B00A7E0C9D0C460646984601F190
:10103000430C002A35D0A2F15803D9B2202969D82F
:10104000202B67D8DFE813F0E60066006600660034
:101050006600660066006600660066006600AC001A
:10106000700066006600660066007000660066003C
:101070006600660021008300C60066006600B600B8
:101080006600830066006600EC002B6822686169D8
:10109000181D286010061B6802D4520600F1E0807B
:1010A00019600023E1462361CDF800803B4603AA86
:1010B00021463046FFF720FF013020D023694A4601
:1010C00039463046C047013019D02368E068DDF862
:1010D0000C909B0718D5484516DD002504F1190A28
:1010E00004E0E068A0EB0903AB420DDD01235246AA
:1010F00039463046C047013005F10105F1D14FF0C6
:10110000FF3004B0BDE8F0874845B8BF484604B09A
:10111000BDE8F08784F84220012004F14209002351
:10112000206184F84330BFE72A682368111D180640
:10113000296002D4590600F1958010680146002804
:101140006268C0F2938054484FF00A0E15E02068A0
:101150002B6810F0800F53F8041B02D1400648BFE3
:1011600089B26F2A4C482B6014BF4FF00A0E4FF023
:10117000080E0023626884F84330002AA26051DB25
:10118000236823F00403236000294BD1002A7BD17C
:10119000E146BEF1080F56D0ACEB0903236183E7AB
:1011A0002B681A6804332B6004F1420984F842204A
:1011B0000120B4E72B686268191D2960D3F80090FC
:1011C00000214846FFF77CFD002863D0A0EB090012
:1011D0006060A4E7236843F02003236078222F484F
:1011E00084F845202A6813F0800F52F8041B03D1BD
:1011F00013F0400F18BF89B22A60DA0744BF43F0EA
:101200002003236019B9236823F0200323604FF0E3
:10121000100EAEE7582384F845301F482368E1E7F5
:101220002368DBE77546E146B1FBF5F305FB131ACE
:101230000A46AA4210F80A1009F8011D1946F3D20D
:10124000BEF1080FA8D12368DD07A5D56268236920
:101250009A42A1DC302309F8013C09F1FF399BE7F0
:1012600019801EE7B2F90010084668E72D20002A11
:10127000A26084F8430002DB23F0040323600A2504
:1012800005484942AE46CEE7037884F8423004F17F
:1012900042097EE7606842E7B4620308C862030857
:1012A000704700BF704700BF002A3ED030B584466B
:1012B0000446084380070B462ED1032A07D82BE0AB
:1012C000043A25D01EF0803F22D1032A22D920687B
:1012D000194653F8045BA0F1013EA842A4462EEA49
:1012E000000E04F10404EBD09CF800000C7884425A
:1012F0001DD1E64668B11EF8010F11F8014FA2EBAF
:101300000E03A04203F1FF3311D11CEB0303F1D113
:10131000002030BDA44619469CF800000C78A0427D
:1013200005D1012AF4D0E646E4E710467047001BD9
:1013300030BD00BF00000000000000000000000001
:1013400002780B78012A28BF9A4240F0D8806DE9D4
:10135000044540EA0104CDE902676FF0000C4FEA52
:1013600044721AB380EA010414F0070F6BD100F045
:10137000070420F0070004F0030521F007014FEAFD
:10138000C505F0E8042314F0040FF1E804670CFA33
:1013900005F462EA040266EA04060BD063EA040379
:1013A000624667EA0407664604E000BFF0E80423EB
:1013B000F1E8046782FA4CF582EA0604A4FA8CF498
:1013C0006CBB83FA4CF583EA0705A5FA8CF595B951
:1013D00050E9022351E9026782FA4CF582EA0604D9
:1013E000A4FA8CF483FA4CF583EA0705A5FA8CF588
:1013F0002543DBD09CB92DBAB5FA85F424F0070457
:1014000027FA04F1DDE9026723FA04F303F0FF0091
:1014100001F0FF01FDE80445A0EB0100704724BA8C
:10142000B4FA84F424F0070426FA04F1DDE9026733
:1014300022FA04F202F0FF0001F0FF01FDE804458A
:10144000A0EB0100704714F0030F3CD110F003042F
:1014500028D150F8082B51F8083B82FA4CF582EA63
:101460000305A5FA8CF55DB950F8042C51F8043C3D
:1014700082FA4CF582EA0305A5FA8CF5002DE8D036
:101480002DBAB5FA85F424F0070423FA04F122FA00
:1014900004F202F0FF0001F0FF01FDE80445A0EBBB
:1014A000010070474FEAC40420F0030050F8082BF5
:1014B00021F0030151F8083B0CFA04F462EA04023B
:1014C00063EA0403C9E710F003041DD0A1EB040193
:1014D00020F00300E40750F8042B06D012D28B78DA
:1014E0005FFAA2F4E41A06D12BB1CB785FFAB2F41A
:1014F000E41A00D133B920465DF8104B7047A2EBD7
:101500000300704701F1040150F8042BCC0721F0CF
:10151000030151F8043B48D824D222F07F4482FAD8
:101520004CF594EA1325A5FA8CF50AD165B951F862
:10153000043B84EA0204B4EB036F0ED150F8042B91
:10154000EBE74FEA132355E035F07F454DD108789E
:10155000FDE80445C0F1000070474FEA126203F055
:10156000FF0347E002EA1C4482FA4CF594EA134573
:10157000A5FA8CF50AD165B951F8043B84EA020456
:10158000B4EB034F0CD150F8042BEBE74FEA1343B5
:1015900030E015EA1C4528D10B884FEA124229E0B9
:1015A0004FEA124203EA1C4324E002F0FF0482FAED
:1015B0004CF594EA1365A5FA8CF50AD165B951F892
:1015C000043B84EA0204B4EB032F09D150F8042B46
:1015D000EBE74FEA13630DE015F0FF0F05D10B6841
:1015E0004FEA122223F07F4304E04FF00000FDE8B1
:1015F0000445704712BA1BBA82FA4CF482EA03041B
:10160000A4FA8CF5B5FA85F402FA04F203FA04F3AD
:101610004FEA1260FDE80445A0EB1360704700BF7D
:1016200008B410B5002A9DB0044636DB4FF40273AF
:10163000ADF814304FF000031B930291069120ABDC
:1016400017D0013A4FF6FF7104920792ADF81610C9
:101650001F9A019302A9FEF765FF421C01DA8B2352
:101660002360029B00221A701DB0BDE8104001B03B
:1016700070474FF6FF7104920792ADF816101F9A4B
:10168000019302A9FEF74EFF431C01DA8B2323606E
:101690001DB0BDE8104001B070478B2303604FF0D0
:1016A000FF30F5E70CB410B5214B00291C689CB045
:1016B00038DB4FF000034FF402721B93ADF8142097
:1016C000029006901FAB18D001394FF6FF720491BB
:1016D0000791ADF8162002A91E9A01932046FEF745
:1016E00021FF421C01DA8B232360029B00221A7027
:1016F0001CB0BDE8104002B070474FF6FF72049175
:101700000791ADF8162002A91E9A01932046FEF714
:1017100009FF431C01DA8B2323601CB0BDE8104095
:1017200002B070478B2323604FF0FF30F5E700BF16
:1017300000000020032A30B415D941EA0004A407B0
:1017400084460B4604D0541E0FE0043A032A08D9FD
:101750001946604653F8044B5CF8045BA542F4D08C
:10176000F1E760461946541E7AB1431E0139021949
:1017700001E09A4209D013F8010F11F801CF60453A
:10178000F7D0A0EB0C0030BC7047002030BC704795
:1017900038B5074D0022044608462A6000F012F8CA
:1017A000431C00D038BD2B68002BFBD0236038BD14
:1017B0003804002051F8043C181F002BBCBF0B5804
:1017C000C0187047044A05491368002B08BF0B4630
:1017D00018441060184670473C04002000000010B8
:1017E00070B54FF0FF0C4CF4E06C1CEA11541DBFB7
:1017F0001CEA135594EA0C0F95EA0C0F00F0DEF882
:101800002C4481EA030621EA4C5123EA4C5350EA66
:10181000013518BF52EA033541F4801143F48013B7
:1018200038D0A0FB02CE4FF00005E1FB02E506F048
:101830000042E0FB03E54FF00006E1FB03569CF09D
:10184000000F18BF4EF0010EA4F1FF04B6F5007FA3
:1018500064F5407404D25FEA4E0E6D4146EB060615
:1018600042EAC62141EA55514FEAC52040EA5E509E
:101870004FEACE2EB4F1FD0C88BFBCF5E06F1ED848
:10188000BEF1004F08BF5FEA500E50F1000041EB7F
:10189000045170BD06F0004646EA010140EA02002C
:1018A00081EA0301B4EB5C04C2BFD4EB0C0541EA4E
:1018B000045170BD41F480114FF0000E013C00F363
:1018C000AB8014F1360FDEBF002001F0004170BD87
:1018D000C4F10004203C35DA0C341BDC04F11404A0
:1018E000C4F1200500FA05F320FA04F001FA05F22C
:1018F00040EA020001F0004221F0004110EBD370F9
:1019000021FA04F642EB06015EEA430E08BF20EA24
:10191000D37070BDC4F10C04C4F1200500FA04F3C7
:1019200020FA05F001FA04F240EA020001F0004159
:1019300010EBD37041F100015EEA430E08BF20EACC
:10194000D37070BDC4F1200500FA05F24EEA020E14
:1019500020FA04F301FA05F243EA020321FA04F043
:1019600001F0004121FA04F220EA020000EBD370FA
:101970005EEA430E08BF20EAD37070BD94F0000FFA
:101980000FD101F00046400041EB010111F4801F2E
:1019900008BF013CF7D041EA060195F0000F18BFDF
:1019A000704703F00046520043EB030313F4801F1B
:1019B00008BF013DF7D043EA0603704794EA0C0FD5
:1019C0000CEA135518BF95EA0C0F0CD050EA4106EB
:1019D00018BF52EA4306D1D181EA030101F0004168
:1019E0004FF0000070BD50EA410606BF1046194690
:1019F00052EA430619D094EA0C0F02D150EA01369C
:101A000013D195EA0C0F05D152EA03361CBF1046DC
:101A100019460AD181EA030101F0004141F0FE417B
:101A200041F470014FF0000070BD41F0FE4141F4FF
:101A3000780170BD81F0004102E000BF83F00043F7
:101A400030B54FEA41044FEA430594EA050F08BF59
:101A500090EA020F1FBF54EA000C55EA020C7FEA1D
:101A6000645C7FEA655C00F0E2804FEA5454D4EB9A
:101A70005555B8BF6D420CDD2C4480EA020281EA64
:101A8000030382EA000083EA010180EA020281EA9C
:101A90000303362D88BF30BD11F0004F4FEA0131EE
:101AA0004FF4801C4CEA113102D0404261EB4101FD
:101AB00013F0004F4FEA03334CEA133302D0524283
:101AC00063EB430394EA050F00F0A780A4F101043F
:101AD000D5F1200E0DDB02FA0EFC22FA05F2801879
:101AE00041F1000103FA0EF2801843FA05F359415F
:101AF0000EE0A5F120050EF1200E012A03FA0EFCDE
:101B000028BF4CF0020C43FA05F3C01851EBE37107
:101B100001F0004507D54FF0000EDCF1000C7EEB24
:101B200000006EEB0101B1F5801F1BD3B1F5001F62
:101B30000CD349085FEA30004FEA3C0C04F1010481
:101B40004FEA445212F5800F80F09A80BCF1004FAA
:101B500008BF5FEA500C50F1000041EB045141EA2C
:101B6000050130BD5FEA4C0C404141EB0101013CF5
:101B700028BFB1F5801FE9D291F0000F04BF0146E4
:101B80000020B1FA81F308BF2033A3F10B03B3F1B6
:101B900020020CDA0C3208DD02F1140CC2F10C0246
:101BA00001FA0CF021FA02F10CE002F11402D8BFA4
:101BB000C2F1200C01FA02F120FA0CFCDCBF41EA70
:101BC0000C019040E41AA2BF01EB0451294330BD3F
:101BD0006FEA04041F3C1CDA0C340EDC04F114041C
:101BE000C4F1200220FA04F001FA02F340EA0300F3
:101BF00021FA04F345EA030130BDC4F10C04C4F139
:101C0000200220FA02F001FA04F340EA0300294618
:101C100030BD21FA04F0294630BD94F0000F83F462
:101C2000801306BF81F480110134013D4EE77FEA45
:101C3000645C18BF7FEA655C29D094EA050F08BF91
:101C400090EA020F05D054EA000C04BF1946104672
:101C500030BD91EA030F1EBF0021002030BD5FEAB6
:101C6000545C05D14000494128BF41F0004130BDDE
:101C700014F580043CBF01F5801130BD01F0004532
:101C800045F0FE4141F470014FF0000030BD7FEAA5
:101C9000645C1ABF194610467FEA655C1CBF0B46A0
:101CA000024650EA013406BF52EA033591EA030FB7
:101CB00041F4002130BD00BF90F0000F04BF0021AF
:101CC000704730B54FF4806404F132044FF00005E2
:101CD0004FF0000150E700BF90F0000F04BF00215B
:101CE000704730B54FF4806404F1320410F00045C1
:101CF00048BF40424FF000013EE700BF42004FEABC
:101D0000E2014FEA31014FEA02701FBF12F07F4338
:101D100093F07F4F81F06051704732F07F4208BFEF
:101D2000704793F07F4F04BF41F40021704730B5F6
:101D30004FF4607401F0004521F000411CE700BF42
:101D400050EA010208BF704730B54FF000050AE0C5
:101D500050EA010208BF704730B511F0004502D5C6
:101D6000404261EB41014FF4806404F132045FEAC8
:101D7000915C3FF4D8AE4FF003025FEADC0C18BF71
:101D800003325FEADC0C18BF033202EBDC02C2F163
:101D9000200300FA03FC20FA02F001FA03FE40EAF5
:101DA0000E0021FA02F11444BDE600BF4FEA4102E1
:101DB000B2F1E04324BFB3F5001CDCF1FE5C0DD9A9
:101DC00001F0004C4FEAC0024CEA5070B2F1004FF3
:101DD00040EB830008BF20F00100704711F0804FF6
:101DE00021D113F13872BCBF01F00040704741F4BB
:101DF00080114FEA5252C2F11802C2F1200C10FABF
:101E00000CF320FA02F018BF40F001004FEAC123A2
:101E10004FEAD32303FA0CFC40EA0C0023FA02F346
:101E20004FEA4303CCE77FEA625307D150EA01331C
:101E30001EBF4FF0FE4040F44000704701F00040EC
:101E400040F0FE4040F40000704700BF53B94AB96B
:101E5000002908BF00281CBF4FF0FF314FF0FF30B2
:101E600000F06AB9ADF1080C6DE904CE00F006F897
:101E7000DDF804E0DDE9022304B070472DE9F04706
:101E8000089D0E4604460F46002B4AD194468C45C9
:101E9000B2FA82F260D942B1C2F12003974020FA2F
:101EA00003F30CFA02FC1F4394404FEA1C4E1FFA46
:101EB0008CF6B7FBFEF1230C0EFB117743EA0743C8
:101EC00001FB06F098420AD91CEB030301F1FF372E
:101ED00080F01581984240F21281023963441B1A46
:101EE000A4B2B3FBFEF00EFB103344EA034400FB44
:101EF00006F6A6420AD91CEB040400F1FF3380F079
:101F00000081A64240F2FD806444023840EA01406C
:101F1000A41B00211DB1D4400023C5E90043BDE846
:101F2000F0878B4205D90DB1C5E9000100210846B3
:101F3000F5E7B3FA83F1002946D1B34202D38242D6
:101F400000F2F580841A66EB030201201746002D8B
:101F5000E5D0C5E90047E2E7002A40F09380A1EB15
:101F60000C034FEA1C471FFA8CFE0121B3FBF7F666
:101F700007FB1630230C43EA00430EFB06F09842A1
:101F800008D91CEB030306F1FF3802D2984200F295
:101F9000D08046461B1AA4B2B3FBF7F007FB103300
:101FA00044EA03440EFB00FEA64508D91CEB0404DA
:101FB00000F1FF3302D2A64500F2B6801846A4EB2A
:101FC0000E0440EA0640A5E7C1F120078B4022FA43
:101FD00007FC4CEA030C06FA01FE20FA07F426FA85
:101FE00007F344EA0E0400FA01F84FEA1C404FEAF6
:101FF0001449B3FBF0FE1FFA8CF600FB1E3349EACE
:1020000003430EFB06F9994502FA01F20BD91CEBCA
:1020100003030EF1FF3A80F08580994540F28280FB
:10202000AEF1020E6344A3EB0909A4B2B9FBF0F3CD
:1020300000FB139944EA094403FB06F6A64208D9BB
:102040001CEB040403F1FF3068D2A64266D9023BC0
:10205000644443EA0E40A41BA0FB02E6B44273466C
:10206000B14652D34FD05DB1B8EB030264EB090423
:1020700004FA07F722FA01F31F43CC40C5E90074C4
:1020800000214CE7C2F1200120FA01F30CFA02FC16
:1020900026FA01F1964033434FEA1C471FFA8CFEA3
:1020A000B1FBF7F007FB1016190C41EA064100FBE3
:1020B0000EF68E4204FA02F408D91CEB010100F17D
:1020C000FF382DD28E422BD902386144891B9BB236
:1020D000B1FBF7F607FB161143EA014306FB0EF1CD
:1020E000994208D91CEB030306F1FF3814D2994238
:1020F00012D9023E63445B1A46EA004136E739468C
:10210000EDE6184602E7F045ADD2BEEB020366EB02
:102110000C060138B146A6E74646ECE7034698E7C9
:102120004046D3E7D6467EE76444023847E7084690
:102130000DE7023E63442DE7704700BF08B501215B
:10214000152005F0E7FABDE808400121102005F050
:10215000E1BA08B50021152005F0DCFABDE8084019
:102160000021102005F0D6BA0121152005F0D2BAC1
:102170000021152005F0CEBA0120704701230B7015
:1021800070470000064B0360064B4360064B8360BC
:10219000064BC360064B0361064B4361704700BFAB
:1021A000E40C4E0C7C2E0C0DCC295410BC34760C57
:1021B0003831660DBA04E20908B500F003F80020D2
:1021C00008BD000038B505F08DFB05F0A1FB00F05F
:1021D0005DF805F089FB1D4806F0F3F81C4806F091
:1021E000F0F802F063F801461A4806F0EAF802F047
:1021F00061F80146184806F0E4F802F05FF801467D
:10220000164806F0DEF844F6206500F085F908B1BE
:1022100000F0AEF807F0F6FA044605F063FB00F0B4
:102220007BF968B900F07EF950B107F0F5FA38B9DA
:1022300006F078FAAC42204628BF284605F022FC7A
:1022400006F070FA05F050FBDFE700BFD982020804
:10225000F9820208FE8202080F8302082083020826
:1022600010B50121252005F055FABDE81040034BBB
:10227000034A0449044806F0A4B800BFF9820208E2
:1022800030830208418302084983020810B5002107
:10229000252005F0CDF90121282005F0C9F90D4BC5
:1022A0000D4A9A60002426200322012118705C60E8
:1022B00005F0D2F940F2051221460848FEF72CFB42
:1022C000074B08481C70084B0122BDE810401A70EB
:1022D00007F038BA44040020212300085C050020E0
:1022E00050040020612200085000002038B50A4D3B
:1022F00040F20512FF212846FEF70EFB074B002493
:10230000284640F205111C7006F0F0F821462820FE
:10231000BDE8384005F0FEB954040020500000200C
:1023200010B5262005F005FA58B90E4B1B7843B1BD
:10233000FFF7DCFF0C4B02224FF4FA601A7005F035
:10234000B1FA262005F0F5F90128044608D1054B1D
:102350001B782BB906F0DAF8044B1C70024B1C708A
:1023600010BD00BF50000020400400205004002099
:102370002DE9F04F594B1F78FF2F85B000F0A18059
:1023800000225C7898461846154610F8011B9442C6
:1023900085EA010502F10102F7DA23449A78AA429C
:1023A00050D04F4B4F4800211970294606F009F8CC
:1023B0000F23DFF82C814C4C98F8002062704B49B9
:1023C0004B482370023205F0FCFFDFF828B1DFF83C
:1023D00044A1A14600262746330703D116B158462B
:1023E00005F0EFFF19F8011B504605F0EAFF98F8D9
:1023F000003001360233B342EED83E4805F0E1FF2B
:102400003D4B012119703D4B002628201E7005F020
:1024100081F94FF47A7005F045FA98F800103346C8
:1024200014F8012B994285EA020503F10103F7DA5A
:102430000F4403312C48BD70C9B206F06DF805B0E9
:10244000BDE8F08FDB78FF2B0BD0FF2C09D0244B9D
:102450002B4800221A7005F0B4FF2A4805F0B1FF9E
:10246000A6E704F1020928492148DFF888B0DFF81F
:10247000A4A04A4605F0A5FF0026320703D116B1F5
:10248000584605F09EFF18F8011B5046013605F02E
:1024900098FFB145F1D8174805F093FF1B4B039304
:1024A00069461B4B019302A88DF808708DF809400E
:1024B00000F062FA0A4A9DF801109DF80030117090
:1024C00077E70D4B012119700C4B002228201A7060
:1024D00005B0BDE8F04F05F01DB900BF5404002061
:1024E00051040020508302085C050020BD830208CF
:1024F000A483020868E00208500000205004002075
:1025000069830208F98202089583020856040020B4
:102510005E050020B7830208014B1878704700BFA2
:1025200050040020054B1A7832B1012A01D0002056
:10253000704700221A70FAE701207047400400201B
:102540002DE9F04F0278122AADF50F7D05460C46B5
:1025500006D8AC4802EB4203C118C75C012F0FD06C
:10256000A948114605F02DFFA84805F02AFF4FF0B5
:1025700001032380002738460DF50F7DBDE8F08F5D
:102580006B78487898420FD9A14805F01AFF9F4808
:1025900005F017FF29789F4805F013FF9B4805F0C9
:1025A00010FF4FF00A03E4E78978994201D29A4874
:1025B000EBE79A4B9A4853F822100026268005F044
:1025C00000FF924805F0FDFE2B78122B00F2B0813F
:1025D000DFE813F013002D0037003E0069007B0098
:1025E000A600AE00CE00D400ED000C013201400187
:1025F0004301490155015D0185018A496868082246
:10260000FEF752FE58B909F0ABF9874B1B5C2370FB
:1026100013B9864B01221A7013232B80ABE7844831
:1026200005F0CFFE794805F0CCFE04230EE009F05A
:1026300005FF7D4B1B5C2370002BEDD17B4A137093
:10264000EAE7012009F0D2FE774B1B5C2370E3E739
:102650006868D0F810C0D0F814E0C668026890F935
:10266000043041799CFA8CFC9EFA8EFECDE908CEAE
:1026700036BA0796C67A06F001060696867A06F0FE
:1026800001060596467A06F001060496067E039634
:10269000067A0296C67901968079009012BA0020D7
:1026A00009F0B0F9D0E76968D1F80600D1F80A60FE
:1026B0000A6891F90430497900BA36BACDE90006C2
:1026C00012BA002009F060FABEE76B68594893F827
:1026D00006B093F8078093F904A093F805901E685C
:1026E0001B7A0B934246594605F06BFE6A680B9BBA
:1026F000D2F80910D2F80D0009BA00BACDE90410D9
:10270000527C009336BA02F00102CDE902B2CDF854
:102710000480534632464946002009F0D3FA93E735
:102720006B68186893F9041000BA09F0A1FB8BE7F5
:102730006E68D6F80B0096F80FE0D6F800C0B379B3
:102740007279317900BACDE9040EB07A00F0010057
:102750000390707A00F001000290307A00F00100DE
:102760000190F07900909CFA8CF009F005FC6BE781
:102770006B68186800BA09F0AFFC65E74EA84E9682
:1027800009F042FD284B9DF83B211B5C23706368D8
:102790001A706368BDF83A215A704E9B62681B0A32
:1027A000937063684E9ADA700423637034E762684A
:1027B0000DF1370304324EA90EA809F03FFD1A4B64
:1027C0009DF939211B5C237063681A706368BDF83A
:1027D00038215A7063689DF93910BDF93820997015
:1027E0006368DA709DF837300433DEE76B689A88E7
:1027F0001868D3F8061052BA92B209BA00BA09F0B2
:1028000047FD21E72C240308D0830208F98202083F
:10281000FB830208878402083084020874210308BD
:1028200064840208B784020848210308882C002029
:10283000C0840208F48402084EA88DF8386109F0BB
:1028400079FD3D4B9DF838211B5C237063681A703D
:102850000123AAE709F096FDF6E6384B1B78002B1A
:102860003FF4E3AEFEE7354B1B78002B3FF4DDAEC3
:10287000334A344840F69D2104F084FCCCE62F4BCB
:102880001B78002B3FF4D1AE05F02CF8FEE76E6804
:1028900016F8018BFF2200210EA8FEF73DF8314605
:1028A00042460EA8FEF75CFA6B684344FF225E784E
:1028B00000214EA8FEF730F833464EAA41460EA836
:1028C00009F00CFE1C4B1B5C237030B9606832466B
:1028D0004EA9FEF745FA66709EE60026FBE7D5F89E
:1028E000048018F8016BFF2200210EA8FEF714F8EF
:1028F000414632460EA8FEF733FA731C6A6812F896
:10290000038002EB03090021FF224EA8FEF704F822
:10291000424649464EA8FEF723FA43464EAA3146A0
:102920000EA809F0B3FD044B1B5C237000233CE7A9
:102930000123238070E600BF48210308882C002073
:102940000A8502083721030830B50A4D4FF0FF33DE
:1029500001440A1A002A01DCD84330BD10F8012BCB
:102960005340082243F300042C40013A84EA530305
:10297000F8D1EEE72083B8ED2DE9F04700230B8076
:1029800002789A2AADF5067D05460C4606D8C14860
:1029900002EB4203C118C65C012E0FD01146BE489F
:1029A00005F00FFDBD4805F00CFD4FF0010323803D
:1029B000002630460DF5067DBDE8F0876B78487837
:1029C000984208D9B64805F0FCFCB44805F0F9FC7B
:1029D0004FF00A03EBE78978994201D2B148F2E758
:1029E000B14BB24853F8221005F0EBFCAB4805F0B0
:1029F000E8FC29789A29D2D801A353F821F000BF26
:102A0000A12D0008F12E0008D72E0008212F000864
:102A1000592F00086D2C0008312D0008512D000899
:102A2000632E00087D2E00088D2E0008972E0008CA
:102A3000A72E00085D2E00085D2E00085D2E000800
:102A4000F131000845340008AB2F0008852F00083D
:102A500067320008412F00084B2E00082132000881
:102A60002D3200084F2F000829300008A930000837
:102A700033350008032F0008C5300008D7300008A0
:102A800079300008A5340008C1340008E13000089E
:102A900089320008A73200080D33000825330008EA
:102AA000B72D0008AB2D0008B72E000871330008C1
:102AB00083330008F3300008133100085131000857
:102AC0006B310008C7310008D93100088D33000888
:102AD000AB330008253400083734000847330008BA
:102AE00055330008112E00086333000845350008EF
:102AF000DF340008593500086330000887350008C6
:102B0000FF2F0008012E0008F12D0008A335000852
:102B1000BD350008E1350008033600083D360008E1
:102B20005936000871360008B73600081537000816
:102B3000C537000831380008413800085B38000804
:102B4000673800087B380008B3380008CD38000823
:102B5000EB380008FF380008133900082539000851
:102B600041390008833900089B390008B53900084D
:102B7000172F0008C32F0008853A0008993A00086B
:102B8000E13A0008093B0008193B00089F290008AA
:102B90009F2900089F2900089F2900089F290008F5
:102BA0009F2900089F2900089F2900089F290008E5
:102BB0009F2900089F2900089F2900089F290008D5
:102BC000713B00088B3B00089B3B0008613C000800
:102BD000E13C0008E53D0008933E0008BB3E0008CC
:102BE000CF3E0008E33E0008FB3E00080F3F000810
:102BF0002F3F0008433F00082140000831400008F3
:102C000041400008574000087B4000086B41000825
:102C1000A1410008B5410008C9410008674000080B
:102C20001F3F0008E34000089F2900089F29000873
:102C30009F2900089F2900089F2900089F29000854
:102C4000DB4100083D420008E92F00089F290008E9
:102C50009F29000865390008C7390008EF390008C6
:102C6000093A0008453A0008673A0008002706A913
:102C700046A84697ADF81C718DF8187007F012F849
:102C80000B4B1B5C2370122B14D167709B232B8082
:102C90008FE600BF6824030815850208F982020840
:102CA0003B85020861850208C02103088685020869
:102CB000482103089DF819219D4963688A5C1A70B0
:102CC00063689DF81A215A709DF81931202B2BD872
:102CD000DFE803F0112C2C242C2C2C242424242475
:102CE0002C2C2424242C2424242C2C2C2C2C242464
:102CF000242424242400BDF81C3162681B0A93702C
:102D00006368BDF81C21DA7004239DF81810637005
:102D10000029BBD1252004F0FDFCB7E763689DF8CE
:102D20001C219A700323F0E70023EEE70223ECE76F
:102D30006368804A591C981C07F028F87E4B1B5C7E
:102D40002370002BA2D163685B78023363709DE728
:102D500000232370774B6268197811706268597884
:102D600051706268997891706268D978D1706268A0
:102D7000197911716268597951716268D97A9171C2
:102D800062685989D1719A686168120A0A72626828
:102D90009968517262681B7B93720B23637075E7AD
:102DA00004F0CBF80023237070E707F0F3FA624BCE
:102DB0001B5C23706AE7002346A8469307F0D4FA09
:102DC0005D4B1B5C2370002B7FF460AF63689DF844
:102DD0001B211A706368BDF81A215A70469B6268FD
:102DE0001B0A93706368469ADA70042363704DE798
:102DF00005F0E6FE636818704FF48073238045E7A2
:102E00006B6893F9000005F0D5FE002323703DE7C1
:102E1000002046A9469007F0EEFA474B1B5C237052
:102E2000002B7FF433AF63689DF81B211A70636831
:102E3000BDF81A215A70469B62681B0A937063683A
:102E4000469ADA700423637020E76B68186800BA4A
:102E500007F0C8F8384B1B5C237017E70623237074
:102E600014E76168002006F0DDFC334B1B5C237027
:102E7000002B7FF40BAF0823637007E7696800201D
:102E800006F0E4FC2C4B1B5C2370FFE6616800201D
:102E900006F004FDE9E76968002006F013FD264B03
:102EA0001B5C2370F2E66968002006F05BFD224B94
:102EB0001B5C2370EAE66B681B78022B02D90423A3
:102EC0002380E3E61D4A0020D15C07F00CFB1A4B7F
:102ED0001B5C2370DAE66168002006F06BFD164B80
:102EE0001B5C2370002B7FF4D1AE01236370CDE611
:102EF0006B680020197806F06FFD0F4B1B5C237088
:102F0000C4E66A68002012F8011B06F0DFFD0A4BD8
:102F10001B5C2370BAE66168002006F033FEDEE732
:102F2000002006F055FE044B1B5C2370AEE600BF8C
:102F300050210308782C0020482103087121030840
:102F4000002007F004FBA84B1B5C23709EE6616821
:102F5000002007F0A1F8C2E76B685A78012A02D96D
:102F60000423237092E6687813F8021B0238C0B27B
:102F7000009002F00102002006F07AFE9A4B1B5CE2
:102F8000237083E66B685A78012AE9D8687813F8C9
:102F9000021B0238C0B2009002F00102002006F0CD
:102FA000B7FF914B1B5C237070E66B681978003992
:102FB00018BF0121002006F095FF8B4B1B5C23708E
:102FC00064E6002046A98DF8180106F07AFF864BCA
:102FD0001B5C2370002B7FF459AE63689DF81821A9
:102FE0001A700123637051E66B6880481C6824BA2C
:102FF000214605F0E6F9204603F0A7FF46E66B6898
:1030000013F8012B8DF818206A780793013A63684A
:10301000479346A906A88DF81920FFF791FABDF845
:1030200018312380064631E6002046A9469007F075
:103030005DF86D4B1B5C2370002B7FF427AE63683B
:103040009DF81B211A706368BDF91A215A70469BBE
:1030500062681B1293706368469ADA700423637087
:1030600014E66B681878003818BF012007F02BFDB4
:103070005D4B1B5C237009E6002046A9ADF81801E2
:1030800007F053F8584B1B5C2370002B7FF4FEAD08
:10309000BDF8183162681B0A13706368BDF8182107
:1030A0005A7002236370F1E56B68197801293FF6C5
:1030B00057AF01F00101002007F028F84A4B1B5CD4
:1030C0002370E3E56B680020197806F0A9FC464BF5
:1030D0001B5C2370DAE56168002006F0B9FCFEE6AF
:1030E0006B68186800BA07F077F83F4B1B5C2370D9
:1030F000CCE56B681846D3F8012010F8151B00903A
:10310000053312BA002007F0A5FA374B1B5C237079
:10311000BCE56B6800204690197846AA07F0BFFA14
:10312000314B1B5C2370002B7FF4B0AD63689DF8BE
:103130001B211A706368BDF81A215A70469B626899
:103140001B0A93706368469ADA70042363709DE5E6
:103150006968D1F801204B79097812BA002007F08C
:10316000B4FA214B1B5C237090E5FF238DF81630D9
:1031700000206B6846900DF116071978009746AB52
:1031800006AA07F0C3FA184B1B5C2370002B7FF4D0
:103190007DAD63689DF818201A7063689DF81B2147
:1031A0005A706368BDF81A219A70469B62681B0AC0
:1031B000D3706368469A1A7163689DF816205A7135
:1031C0000623637062E56B680020197807F0C0FA87
:1031D000054B1B5C237059E5002007F0CBFA024B2E
:1031E0001B5C237052E500BF48210308A485020838
:1031F00046A806F015FEB14B1B5C2370002B7FF434
:1032000045AD63689DF818211A7063689DF819210F
:103210005A7063689DF81A219A700323637035E52C
:1032200006F0F8FEA54B1B5C23702FE5002346A893
:10323000469306F00BFFA14B1B5C2370002B7FF421
:1032400025AD63689DF81B211A706368BDF81A21CB
:103250005A70469B62681B0A93706368469ADA70DC
:103260000423637012E56A68937811785278003B02
:1032700018BF0123003918BF0121002006F062FEAB
:103280008E4B1B5C237001E56A681168D2F806302A
:1032900092881BBAD2BA09BA002006F0ABFF874B5E
:1032A0001B5C2370F2E446AB0DF1160206A9002068
:1032B00006F0C0FF814B1B5C2370002B7FF4E6AC53
:1032C00063689DF81B201A706368BDF81A205A7055
:1032D000069B62681B0A93706368069ADA706368DB
:1032E0009DF91710BDF91620197163685A71469B34
:1032F0006268190E91716268190CD1716268190ABD
:103300001172626853720A236370BFE46B681978A4
:10331000003918BF0121002006F0A8FF674B1B5C95
:103320002370B3E446A9002006F0B1FF634B1B5C99
:103330002370002B7FF4AAAC63689DF818211A70E3
:1033400001236370A2E4002007F030F85B4B1B5CA4
:1033500023709BE4002007F040F8584B1B5C23705F
:1033600094E4002007F05AF8544B1B5C23708DE462
:103370006B680020197807F041F9504B1B5C2370F3
:1033800084E46168002007F053F9A8E56868D0F884
:103390000120437901788079009012BA002007F06B
:1033A000F8F9464B1B5C237070E4FF238DF8143052
:1033B00000206B68469046AF0DF114080DF1180916
:1033C000197800970DF11603CDE901890DF1150269
:1033D00007F004FA394B1B5C2370002B7FF456ACCA
:1033E00063689DF815201A7063689DF81B215A7058
:1033F0006368BDF81A219A70469B62681B0AD370F5
:103400006368469A1A7163689DF814205A7163685C
:103410009DF816209A7163689DF81820DA710823C8
:10342000637033E46B680020197807F00CFA234BC3
:103430001B5C23702AE4002007F017FA1F4B1B5C6B
:10344000237023E4002006A9ADF81800469006F08A
:10345000F6FC1A4F385C207000287FF417AC46A9A0
:1034600006F0FFFC3B5C2370002B7FF40FACBDF833
:10347000183062681B0A13706368BDF818205A7010
:1034800063689DF81B219A706368BDF81A21DA7091
:10349000469B6268190A1171626853710623637052
:1034A000FFF7F4BB6B6800205A78197806F04FFEDE
:1034B000024B1B5C2370FFF7E9BB00BF48210308E8
:1034C000616800204A1C06F055FEB44B1B5C23705B
:1034D000002B7FF4DBAB02236370FFF7D7BB46AA58
:1034E00006A9002006F0CFFFAC4B1B5C2370002B1D
:1034F0007FF4CCAB63689DF81B201A706368BDF83D
:103500001A205A70069B62681B0A93706368069AB9
:10351000DA70469B6268190E11716268190C51715C
:103520006268190A91716268D37108236370FFF7AA
:10353000ADBB6968002006F09DFA984B1B5C2370B8
:10354000FFF7A4BB6B680020197806F080FF934B4F
:103550001B5C2370FFF79ABB46AA06A9002006F061
:10356000ABFF8E4B1B5C2370002B7FF48FAB63682B
:103570009DF818201A7063689DF818215A7002236C
:103580006370FFF783BB6A681346002053F8141B6F
:10359000043209BA07F0A8FA804B1B5C2370FFF7CE
:1035A00075BB6B681978003918BF0121002006F03F
:1035B00082FE7A4B1B5C2370FFF768BB46A9002094
:1035C00006F08AFE754B1B5C2370002B7FF45EAB0C
:1035D00063689DF818211A7001236370FFF756BBCA
:1035E00069684A78012A3FF6BBAC8B78097802F00B
:1035F0000102002006F084FE684B1B5C2370FFF77D
:1036000045BB46AB06AA0DF11601002006F08FFE61
:10361000624B1B5C2370002B7FF438AB63689DF812
:1036200016201A7063689DF818205A7063689DF818
:1036300018219A7003236370FFF728BB6968002084
:103640008B784A78097807F099FA544B1B5C237001
:1036500000236370FFF71ABB6A786968002007F0DF
:10366000CDFA4E4B1B5C237000236370FFF70EBB3B
:10367000002046AA06A9ADF81800ADF8180107F019
:103680001BFB464B1B5C2370002B7FF4FFAA04231B
:103690006370BDF8183062681B0A13706368BDF868
:1036A00018205A70BDF818316268190A9170626862
:1036B000D370FFF7EBBA6B68DFF8FCA09F885B88DC
:1036C000DFF8FC9036485BBA4FF00008AAF80030EB
:1036D000344B89F800804FF400524146A3F8008033
:1036E0007FBAFDF719F96B68BFB25A78197801975C
:1036F000BAF8003000934046294B07F0FFFB274BF8
:103700001B5C2370002B7FF4C1AA012389F80030D1
:10371000FFF7BCBA244B1B781BB105232370FFF7BE
:10372000B5BADFF89C8098F80030013B012B09D92D
:1037300003231E48237004F044FE1D4804F041FE9C
:10374000FFF7A4BA696849B903231A48237004F043
:1037500038FE174804F035FEFFF798BA114F1648A7
:103760003B886A78008803EB020C844509DD04235A
:103770001248237004F025FE0D4804F022FEFFF7E6
:1037800085BA07481844FDF7EBFA3A886B7813447A
:103790003B80022388F80030FFF778BA48210308FD
:1037A000780C0020720C0020882C0020D98502089B
:1037B000F982020803860208740C00202986020898
:1037C000700C00206B68BE4A1F68BE4B11881B88B6
:1037D00099420CD00A232370BB4804F0F2FDBB4889
:1037E00004F0EFFD002007F0C3FBFFF74FBAB84825
:1037F000FFF7AAF83FBAB8420CD008232370B548A7
:1038000004F0DFFDB14804F0DCFD002007F0B0FB60
:10381000FFF73CBA002007F093FBAF4B1B5C237013
:10382000002B7FF433AAAD4B03221A70FFF72EBA98
:10383000002007F09DFBA84B1B5C2370FFF726BA06
:103840006B681978003918BF0121002007F04FFA82
:10385000A14B1B5C2370FFF719BA6168002007F0C9
:1038600055FAFFF73CBB6B680020197807F060FA47
:10387000994B1B5C2370FFF709BA46AA06A90020E2
:1038800007F076FA944B1B5C2370002B7FF4FEA9A3
:103890009DF81831626803F03F03137062689DF869
:1038A0001810137843EA8113137001236370FFF734
:1038B000EDB96B681978002001F03F02890907F023
:1038C0006FFA854B1B5C2370FFF7E0B96168621CDF
:1038D000002007F08DFA804B1B5C2370002B3FF417
:1038E000D5A900236370FFF7D1B96A786968002011
:1038F00007F096FA784B1B5C2370FFF7C7B96A781C
:103900006968002007F0A3FA734B1B5C2370FFF774
:10391000BDB96968002007F0BCFA6F4B1B5C2370CF
:10392000FFF7B4B96168002007F0C5FA6A4B1B5C69
:103930002370002B7FF4AAA908236370FFF7A6B9B0
:10394000002046A9469006F059FA634B1B5C237091
:10395000002B7FF49BA96368469A1A700123637059
:10396000FFF794B946A9002006F034FB5A4B9DF8A6
:1039700018211B5C237063681A7001236370FFF7C2
:1039800085B96B681878003818BF012006F008FE6A
:10399000514B1B5C2370FFF779B96B6819780039BC
:1039A00018BF0121002007F098FA4B4B1B5C2370D5
:1039B000FFF76CB96968002005F0ACFF464B1B5C53
:1039C0002370FFF763B9012746A900208DF818710D
:1039D00006F059FA404B1B5C2370002B7FF456A96C
:1039E00063689DF818211A706770FFF74FB96B680C
:1039F0001978003918BF0121002006F053FA364B20
:103A00001B5C2370FFF742B900278DF8187103F093
:103A1000AFFB63681870606846A9013003F092FB41
:103A20009DF818216368501C1844C2F1F20239460F
:103A3000FCF772FF384603F095FB4FF47343238085
:103A4000FFF724B9002046A98DF8180106F0B4FB51
:103A5000214B9DF818211B5C237063681A700123A9
:103A60006370FFF713B96B68197801293FF678AADC
:103A700001F00101002006F092FB174B1B5C237044
:103A8000FFF704B96B680020197807F081FA124B30
:103A90001B5C2370FFF7FAB8002046A98DF81801C7
:103AA00007F088FA0C4B1B5C2370002B7FF4EEA808
:103AB00063689DF818211A7001236370FFF7E6B858
:103AC000720C0020740C002057860208F98202084C
:103AD000780C0020A186020848210308700C002001
:103AE0006B6868785A7819780238C0B2003A00904A
:103AF00003F1020318BF0122002007F06DFABE4B4C
:103B00001B5C2370FFF7C2B8002007F081FABA4BA4
:103B10001B5C2370FFF7BAB8002046AA06A90690DE
:103B2000469007F083FAB44B1B5C2370002B7FF4A4
:103B3000ADA863689DF81B201A706368BDF81A2051
:103B40005A70069B62681B0A93706368069ADA7063
:103B5000469B6268190E11716268190C5171626896
:103B6000190A91716268D37108236370FFF78EB8E8
:103B70006B68D3F80120197812BA002006F084FE91
:103B80009D4B1B5C2370FFF781B8002006F09AFE66
:103B9000994B1B5C2370FFF779B8984F6022002186
:103BA0003846FCF7B9FE3946002006F09FFE924BDE
:103BB000934A1B5C13702370002B7FF467A8636823
:103BC0003A781A7063687A785A706368BA789A702B
:103BD00063683A7ADA70636897F84F201A716368FD
:103BE000B7F84E205A71FB6C62681B0A93716368C8
:103BF000FA6CDA71636897F850201A72636897F864
:103C000057205A726368B7F856209A727B6D6268C3
:103C10001B0AD37263687A6D1A73636897F8582029
:103C20005A73636897F85F209A736368B7F85E20E9
:103C3000DA73FB6D62681B0A13746368FA6D5A7459
:103C40007B686268190E91746268190CD17462689D
:103C5000190A11756268537516236370FFF716B859
:103C6000674B1B782370002B7FF410A8DFF88C8142
:103C70001F462DE008EB4219616899F80F20CA54DD
:103C80005A1C6168B9F80E00D2B201378854981CEA
:103C9000D9F80C206168C0B2120A0A54D81C6268B4
:103CA000D9F80C10C0B21154581D0433D9B263684E
:103CB00099F814205A546368D9F810105FFA80FA02
:103CC00053FA80F0FDF74CF899F814305344DBB206
:103CD00098F80810FAB29142CCD86370FEF7D6BFBC
:103CE000474B1B782370002B7EF4D0AFDFF80CC15C
:103CF0009FED447A19466EE00CEB411EDEED077A2B
:103D0000606867EE877A0131FCEEE77A17EE902A59
:103D1000170EC7545F1C6068FFB24FEA124800F8E4
:103D200007809F1C6068FFB24FEA122800F80780E6
:103D3000DF1C6068FFB203F10B08C255DEED087AA4
:103D4000606867EE877A1F1DFCEEE77AFFB217EE18
:103D5000902A4FEA126E00F807E05F1D6068FFB21C
:103D60004FEA124E00F807E09F1D6068FFB24FEA6D
:103D7000122E00F807E0DF1D6068FFB25FFA88F8D6
:103D8000C2550CEB411203F10807606892F804E099
:103D9000FFB2C9B200F807E003F10907606892F8C2
:103DA0000BE0FFB200F807E003F10A076068B2F821
:103DB0000AE0FFB200F807E090686768000A07F8B9
:103DC000080003F10C0E606892685FFA8EFE0D33F6
:103DD00000F80E20DBB29CF808208A428CD8637071
:103DE000FEF754BF064B1B782370002B7EF44EAFBA
:103DF000DFF808809E4617E048210308100C0020D9
:103E00005200002000401C4608EB42126168577DBA
:103E1000CF54581CC3B24FF0000C507D5FFA8CF1A8
:103E200088420AD80EF1010E98F808105FFA8EF257
:103E30009142E9D86370FEF729BF906910F82170AC
:103E40006068C7549069676803F1010900EB81005D
:103E50005FFA89F9407807F809009069676803F10B
:103E6000020A00EB81005FFA8AFA90F9030007F872
:103E70000A009069676803F1030900EB81005FFAAB
:103E800089F9418807F809100433DBB20CF1010C01
:103E9000C3E7002046A98DF8180106F02AFDBD4BA6
:103EA0001B5C2370002B7EF4F1AE63689DF8182133
:103EB0001A7001236370FEF7E9BE6B680020197861
:103EC00006F01AFDB34B1B5C2370FEF7DFBE6B6878
:103ED0000020197806F024FDAE4B1B5C2370FEF722
:103EE000D5BE6B681978003918BF0121002006F093
:103EF0003DFD00232370FEF7C9BE6B6800201978D2
:103F000006F038FDA34B1B5C2370FEF7BFBE0020FC
:103F100006F044FD9F4B1B5C2370FEF7B7BE0020EC
:103F200006F047FD9B4B1B5C2370FEF7AFBE6B6832
:103F30000020197806F04CFD964B1B5C2370FEF7B1
:103F4000A5BE1C22002146A8FCF7E6FC46A90020DD
:103F500006F03AFD8F4B1B5C2370002B7EF496AE6F
:103F600063689DF818211A7063689DF819215A70CA
:103F700063689DF81A219A7063689DF81B21DA70B6
:103F800063689DF81C211A7163689DF827215A7196
:103F90006368BDF826219A71499B62681B0AD37138
:103FA0006368499A1A7263689DF82B215A72636894
:103FB000BDF82A219A724A9B62681B0AD372636811
:103FC0004A9A1A7363689DF82F215A736368BDF883
:103FD0002E219A734B9B62681B0AD37363684B9ABA
:103FE0001A7463689DF833215A746368BDF83221EE
:103FF0009A744C9B62681B0AD37463684C9A1A7556
:10400000489B6268190E51756268190C9175626857
:10401000190AD1756268137619236370FEF736BEEC
:10402000002006F091FD5B4B1B5C2370FEF72EBE5B
:10403000002006F096FD574B1B5C2370FEF726BE52
:104040006B681968002009BA06F0D6FC514B1B5C5E
:104050002370FEF71BBE002006F0DAFC4D4B1B5C04
:104060002370FEF713BE6B680020197806F0EAFC97
:10407000484B1B5C2370FEF709BE474F40F2AC5221
:1040800000213846FCF748FC3946002006F0D4FCF5
:10409000404B424A1B5C13702370002B7EF4F6AD3C
:1040A00063683A781A706368FA795A706368FA88B4
:1040B0009A707B6862681B0AD37063687A681A71A9
:1040C0006368FA7A5A7163687A899A71BB68626820
:1040D0001B0AD3716368BA681A7209236370FEF70A
:1040E000D5BD2E4B1B782370002B7EF4CFAD6B68B3
:1040F000DFF8A4901F7863684FF02D0808FB07983D
:1041000007EB470798F80C201A706068C7EB071791
:1041100007F10D01062249440130FCF721FE6368D6
:1041200098F81320DA71636898F814201A7263689B
:1041300098F815205A7298F80C30012B13D160684A
:1041400007F11701022249440A30FCF709FE6068B2
:1041500007F11901202249440C30FCF701FE2C2301
:104160006370FEF793BD0A23FAE7002046A98DF895
:10417000180106F064FC074B1B5C2370002B7EF4D7
:1041800085AD63689DF818211A7001236370FEF7EE
:104190007DBD00BF482103086406002051000020B7
:1041A0006B680020197806F051FC3E4B1B5C2370B5
:1041B000FEF76CBD6B680020197806F06DFC394B7A
:1041C0001B5C2370FEF762BD6B680020197806F057
:1041D00077FC00232370FEF759BD334B1F78002F67
:1041E0007FF49BAAD5F8048018F8019BFF2239467A
:1041F00006A8FCF791FB41464A4606A8FCF7B0FD2D
:104200006B684B44FF2293F80180394646A8FCF7BF
:1042100083FB46AB4A4606A9CDF80080384604F039
:1042200013FB002818BF062020704246606846A98C
:10423000FCF796FD84F80180FEF728BD1A4B1F7825
:10424000002F7FF46AAAD5F8049019F8018BFF2299
:10425000394606A8FCF760FB4946424606A8FCF72B
:104260007FFDD5F804A00AEB0803FF2293F8019024
:10427000394646A8FCF750FB08F102014A46514472
:1042800046A8FCF76DFDCDF8009046AB424606A966
:10429000384604F0A5FA002818BF06202070677081
:1042A000FEF7F4BC48210308882C00200048704722
:1042B00065940208004870478E94020800487047D1
:1042C000A894020838B5044690B1437903F0FF0280
:1042D00013B9027103F0F4FD0223637123681A68B5
:1042E00042F004021A605B685B0603D50423637125
:1042F000012038BD01F026F905462368586810F002
:10430000040003D101236371A060F2E701F01AF900
:10431000401B0228F1D9042363710223A360E7E75D
:1043200010B5044678B103681A6822F00C021A60CE
:104330005A6822F060025A6003F0FAFD00206071B2
:104340002071A06010BD0120FCE72DE9F041037948
:10435000012B04460F462AD0427901239A42037169
:10436000D5B220D10223437101F0ECF880462268D7
:10437000566816F0010608D09368E3603B6001239D
:1043800063710025002323710AE001F0DBF8A0EB44
:1043900008000228EBD9012363710223A360267170
:1043A0002846BDE8F081042282601D46EAE7022526
:1043B000F6E700000A4B44F620621B68B3FBF2F3F9
:1043C0004FF47A7210B55343046800202268013B11
:1043D00008BF032031EA020201D0002BF6D110BD44
:1043E0007C00002070B50446002844D090F8363098
:1043F00003F0FF021BB980F8352003F095FF02237C
:104400002268606884F83630D368616901284FF605
:10441000FF7508BF23F00603A94218BF23F46043C9
:1044200008B923F0D803154D266A1D40A36803433D
:104430003343666A3343A66A33432B43B8B9E06912
:104440002569284303434FF6FF7081421EBFA069D0
:1044500001430B430A49D3608A42E36A04BF216BDC
:104460000B431362012384F83630002070BD01280D
:10447000E9D1E068E6E70120F8E700BFF8F119FFAD
:10448000007C004070477047704770477047704726
:10449000704703681A68D10710B5044606D59A68B4
:1044A000D20703D501225A60FFF7ECFF23681A6890
:1044B000900707D59A68910704D502225A602046D2
:1044C000FFF7E1FF23681A68520707D59A6850077B
:1044D00004D504225A602046FFF7D6FF23681A68E5
:1044E000110707D59A68120704D508225A6020469A
:1044F000FFF7CBFF23681A68D00607D59A68D10664
:1045000004D510225A602046FFF7C0FF23681A68BE
:10451000920607D59A68900604D520225A60204654
:10452000FFF7B5FF23681A68510607D59A68520647
:1045300004D540225A602046FFF7AAFF10BD0000B4
:104540002DE9F047064672B64C4B04689C4216D0E3
:1045500003F5C0539C4218D00025484AA768D4F8F8
:104560000C806369D4F818A0D4F82090944212D03B
:1045700002F5C052944227D0002B3ED115E0404BAB
:10458000D3F8885005F44025E7E73D4BD3F8885031
:1045900005F44015E1E73A4A916B41F0004191631F
:1045A000916B21F000419163FBB9BAF1000F5CD12E
:1045B000236923F001032361A760C4F80C80C4F8C9
:1045C000209062B6BDE8F0872D4AD16B41F0200102
:1045D000D163D16B21F02001D163002BE5D02849B4
:1045E000D1F8882022F4401204E02549D1F888202F
:1045F00022F44022C1F8882073B1226942F00102FE
:104600002261082163613046FFF7D4FE08230328A6
:1046100008BF86F836006360BAF1000F0FD0236937
:1046200043F0010323611021C4F818A03046FFF7BE
:10463000C1FE1023032808BF86F8360063600F4BC5
:104640009C4209D003F5C0539C42B1D10C4AD2F828
:10465000883023F4401304E0094AD2F8883023F468
:1046600040232B43C2F88830A2E7044A9442BCD0CE
:1046700002F5C0529442D2D1B1E700BF007C0040A5
:104680000010024010B50223044680F83630FFF7D0
:1046900057FF94F83630032BD8B208D02268D3687D
:1046A00023F40023D360012384F83630002010BDAA
:1046B00070B50446022384F8363025681F4B9D42AE
:1046C00003F5084316461A6A0CBF42F0010242F095
:1046D00002021A62EB6843F40023EB602B69084680
:1046E00043F0010310212B616960A8612046FFF7A8
:1046F00061FE032801D1032070BD082169602046B6
:104700006E61FFF757FE0328F5D02046FFF718FF2C
:1047100094F83630032BEED023689A6842F00102F9
:104720009A601A6942F001021A611A6942F00402A1
:104730001A61012384F836300020DDE7007C004058
:104740000223026810B580F83630104B9A4203F508
:10475000084304461A6A0CBF22F0010222F002024A
:104760001A62FFF7EDFE94F83630032BD8B20CD066
:104770002368DA6822F40022DA609A6822F00102E3
:104780009A60012384F83630002010BD007C004080
:10479000026838B5D36823F0A003D360044600F064
:1047A000D1FE05462368DB689B0601D5002038BD95
:1047B00000F0C8FE401BB0F57A7FF3D90320F6E77E
:1047C000026870B5D46814F0400405461AD14FF061
:1047D000FF33D36000F0B6FE234606462A68D4684D
:1047E00014F0400401D1032B01D1184670BD00F034
:1047F000A9FE801BB0F57A7F234684BF032385F88A
:104800002130EBE70023F0E738B50F4CE36823F0E5
:104810008003E360A3689B06054606D4FFF7B8FF54
:1048200010B1032085F8210038BDA36823F02003D0
:10483000A360FFF7ADFF10B1032085F82100A36846
:1048400043F02003A360EFE70028004038B504469A
:1048500000283FD090F8213003F0FF021BB980F808
:10486000202003F0BFFA022384F821302368CA22F3
:104870005A6253225A622046FFF7A2FF48BB2368C0
:1048800020699A6822F4E00222F040029A6062688D
:1048900099680243A06902430A439A60E2681A6178
:1048A0001A69A16842EA01421A612046FFF7ACFF8B
:1048B00078B923686569DA6C22F00302DA64E26988
:1048C000D96C2A430A43DA64FF225A62012384F82E
:1048D000213038BD0120FCE70023092803D840EA35
:1048E0000310C0B270470A380133C0B2F5E72DE9B2
:1048F000F04190F82030012B05460E4690464FF0CF
:10490000020353D080F821300122036880F8202070
:10491000CA225A6253225A62FFF752FF70BB2968BB
:1049200030787478B7788B68B8F1000F32D113F013
:10493000400308BFF370FFF7CFFF80462046FFF724
:10494000CBFF02463846FFF7C7FFF37840EA8353B0
:1049500043EA084343EA022303F07F3323F0FE4394
:104960000B608B6823F480238B60D6E903308A6860
:10497000034313438B602846FFF746FF2B68FF2253
:104980005A6210B9012385F82130002385F82030C0
:10499000BDE8F08113F0400308BFF3702402F27801
:1049A00044EA00433B4343EA8253D5E71846EFE726
:1049B000F8B590F82030012B05464FF002002BD0BF
:1049C000012385F8203085F821000E78C8784C78CE
:1049D0008F7876030AB346EA00433B4343EA042454
:1049E0002B68CA225A6253225A622846FFF7E8FE11
:1049F00040B92A6824F07F4424F0C004546028465B
:104A0000FFF702FF2B68FF225A6210B9012385F8D5
:104A10002130002385F82030F8BDE30642BF24F0A2
:104A200010040A344C70FFF757FF04464878FFF72C
:104A300053FF02463846FFF74FFF40EA060343EABA
:104A4000044343EA0224CBE7030903EB830300F0AA
:104A50000F0000EB4300C0B270470368986A4860DB
:104A600018691B68C0F30E0070B588600024C3F39A
:104A70000540C3F3062660F3070403F07F0566F3E1
:104A80000F2465F31744C3F3805363F31F640C6072
:104A900052B9FFF7D9FF08703046FFF7D5FF4870CD
:104AA0002846FFF7D1FF8870002070BD03685B685F
:104AB00070B5C3F30740C3F3042603F03F05002499
:104AC000C3F3423363F3070466F30F2465F317441B
:104AD00060F31F640C6052B9FFF7B6FFC870304630
:104AE000FFF7B2FF48702846FFF7AEFF887000203E
:104AF00070BD00002DE9F04190F82030012B0446F4
:104B00000E4615464FF0020035D0012384F82030C0
:104B1000236884F82100CA225A6253225A629A6892
:104B200022F480629A60D868C0B260F49060D86065
:104B3000DB685B0621D523681C4A5E61996821F019
:104B4000070129439960116841F48011116091684F
:104B500041F4801191609A6842F480429A609A68A8
:104B600042F480629A60FF225A620020012384F896
:104B7000213084F82000BDE8F08100F0E3FC80469D
:104B80002368DF6817F00407D5D100F0DBFCA0EB49
:104B90000800B0F57A7FF3D92368FF2203205A6218
:104BA00084F8210084F82070E5E700BF000401408C
:104BB00070B590F82030012B04464FF0020030D041
:104BC000012384F82030236884F82100CA225A6225
:104BD00053225A629A6822F480629A609A6822F498
:104BE00080429A6000F0AEFC06462268D56815F057
:104BF000040508D0FF2353620020012384F82130EC
:104C000084F820000DE000F09DFC801BB0F57A7F59
:104C1000EBD92368FF2203205A6284F8210084F82C
:104C2000205070BD704700000A4B4FF4801210B541
:104C30005A610268D3685B05044606D5D368DBB2C7
:104C400063F49063D360FFF7EDFF012384F8213014
:104C500010BD00BF0004014090F82020012A034647
:104C60004FF0020012D01A6883F82100CA21516265
:104C700053215162916841F020019160FF215162FE
:104C80000020012283F8212083F820007047F8B526
:104C9000044600287AD0436A002B50D14268B2F50E
:104CA000827F00D0C36194F85D3003F0FF0223B926
:104CB00084F85C20204603F0BDF92268E0680223F6
:104CC00084F85D301368B0F5E06F23F040031360A3
:104CD0004FF0000337D91D46B0F5706F18BFA362BF
:104CE000A7686368A169A66A07F4044703F482739E
:104CF0003B43276907F002073B43676907F0010759
:104D00003B4301F400773B43E76907F038073B4337
:104D1000276A07F080073B4306F400573B43B6F58C
:104D2000005F136014D1236B6BBBB0F5E06F0DD93E
:104D300002232363136843F40063136008E0002335
:104D4000C0E90433AFE74FF48055C7E7012323637D
:104D5000636A676B03F0100307F0080700F47060E4
:104D60003B43090C034301F004010B432B43B6F50D
:104D7000005F536004BFA38D1361002001232066F0
:104D800084F85D30F8BD022BE2D1D3E70120F9E7CA
:104D900010B5044680B10268022380F85D301368C4
:104DA00023F04003136003F0B9F90020206684F873
:104DB0005C0084F85D0010BD0120FCE703681A6800
:104DC00022F490721A609A6822F001029A602023FD
:104DD000836700230366704738B5054698B12423DE
:104DE000436703681A68002422F001021A601C60FD
:104DF0005C609C6003F044FCEC6785F870406C6775
:104E00002046AC6738BD0120FCE70000F8B5866F8E
:104E1000202E0446134637D119B312B390F87020F0
:104E2000012A31D0012280F8702000252222C56796
:104E30004165A0F858308267C06E276898B1134A60
:104E4000C262134A0263134AC0E90D250A4607F1FC
:104E5000240101F01DFF30B11023E36784F8705086
:104E600066670120F8BD2368002084F870001A6886
:104E700042F480721A609A6842F001029A609A685D
:104E800042F040029A60EDE70220EBE7154F000880
:104E90004F4F00085B4F000838B50368426F856FBD
:104EA0009968090604461AD5212A18D19A68806E95
:104EB00022F080029A6058B101F028FF40B1A06E44
:104EC00001F08FFF202803D11023E36703200DE0BA
:104ED0002268136823F0C0031360202363672368EC
:104EE0009A68520601D5222D01D0002038BD9A685B
:104EF000E06E22F040029A6038B101F007FF20B165
:104F0000E06E01F06EFF2028DED02046FFF756FF4E
:104F1000EBE7704708B50346806A1B681B6813F00F
:104F2000200310D1A0F85A3003681A6822F4807266
:104F30001A609A6822F001029A609A6822F0400290
:104F40009A6020238367FFF7E4FF08BD704708B528
:104F5000806AFFF7FBFF08BD7047806A0368426FF5
:104F6000816F10B59C6824060AD5212A08D1002239
:104F7000A0F852201A6822F0C0021A60202242676C
:104F80009B685B0606D5222904D10023A0F85A307D
:104F9000FFF714FFC36F43F01003C367FFF7DCFF95
:104FA00010BD000038B50446C0692169A2682368B5
:104FB0000A4361691D680A437549024329400A434F
:104FC0001A605A68E16822F440520A435A60714AF2
:104FD000A16993421CBF226A11439A6822F430628D
:104FE0000A439A606C4A93422BD16C4BD3F88830B9
:104FF00003F00303022B00F0C380032B00F0B38007
:10500000012B00F0B780B0F5004F40F0BE8000F0FB
:1050100065FE002870D06268530803EB4003B3FBC1
:10502000F2F39AB2A2F110004FF6EF7188421FD846
:1050300023F00F0321689BB2C2F342021343CB60FB
:105040005AE0574A934215D1544BD3F8883003F0B5
:105050000C03082B00F0948008D8002B40F08A80C5
:10506000B0F5004F69D100F027FED2E70C2B7AD0C3
:10507000012042E04B4A934209D1484BD3F8883093
:1050800003F03003202B7BD0E7D9302BEFE7464AE3
:10509000934209D1414BD3F8883003F0C003802BF1
:1050A0006ED0DAD9C02BE2E7404A93420BD13B4B9A
:1050B000D3F8883003F44073B3F5007F60D0CCD9C7
:1050C000B3F5407FD3E7334A9342D1D1334BD3F882
:1050D000883003F44063B3F5006F12D003D843B9AE
:1050E00000F0EAFD07E0B3F5406FC1D14FF4004096
:1050F00008E000F07DFA28B900200023C4E9183345
:1051000038BD2B48626802EB42038342B0D8B0EB53
:10511000023FADD8510800238C464FF480751946E4
:10512000E0FB05C16046FCF791FE224BA0F5407202
:105130009A429DD82368D860DEE700F0BDFD0028C4
:10514000DAD0626800EB5203B3FBF2F39BB2A3F137
:1051500010014FF6EF7291428AD82268D360CBE7F4
:1051600000F046FAEBE7B0F5004F3FF454AF4FF4D0
:105170000040E6E7B0F5004FF2D100F039FA48E719
:10518000B0F5004F0A48DCD145E700F0A7FDD6E7AF
:10519000F369FFEF0080004000380140001002403A
:1051A0000044004000480040004C004000500040D7
:1051B0000024F400FFFC0F00436ADA0710B506D59F
:1051C0000168846A4A6822F4003222434A609C07DC
:1051D00006D50168C46A4A6822F4803222434A60D4
:1051E000590706D50168046B4A6822F480222243DD
:1051F0004A601A0706D50168446B4A6822F40042E7
:1052000022434A60DC0606D50168846B8A6822F472
:10521000805222438A60990606D50168C46B8A6869
:1052200022F4005222438A605A060FD50168046CAA
:105230004A6822F480122243B4F5801F4A6005D1E7
:105240004A68446C22F4C00222434A601B0606D519
:105250000268816C536823F400230B43536010BD34
:105260002DE9F843DDF8209005460F46164698468E
:105270002A68D36937EA03030CBF01230023B34232
:1052800001D000201BE0B9F1FF3FF2D000F05AF945
:105290002C68A0EB08004845236802D8B9F1000F3C
:1052A0000FD123F4D0732360A36823F00103A3601C
:1052B00020236B67AB67002385F870300320BDE8BF
:1052C000F8835A07D4D5E3691B05D1D54FF40063A1
:1052D0002362236823F4D0732360A36823F00103BF
:1052E000A36020236B67AB67EB67E4E72DE9F74327
:1052F0009846436F202B04460E4617464CD1002992
:1053000048D0002A46D090F87030012B44D00123B9
:1053100080F8703000252123C567436700F012F93B
:10532000A368A4F85070B3F5805F8146A4F852706A
:1053300003D123690BB935461E46002384F870302B
:10534000B4F85220CDF8008092B24B463AB94021D1
:105350002046FFF785FF40B92023636706E000225F
:1053600080212046FFF77CFF18B1032003B0BDE881
:10537000F08322685EB935F8023BC3F30803138556
:10538000B4F85220013A92B2A4F85220D8E716F8A5
:10539000013BF4E70120E9E70220E7E773B50446A3
:1053A0000026C66700F0CEF823681B681A0705467A
:1053B00015D423681B685B070AD56FF07E43009302
:1053C00000222B464FF480012046FFF749FF90B999
:1053D00020230020636784F87000A3670CE06FF05F
:1053E0007E430093324603464FF400112046FFF7F8
:1053F00037FF0028DDD0032002B070BD10B5044691
:1054000040B3436F1BB980F8703003F099F82268FD
:1054100024236367136823F0010313602046FFF71A
:10542000C1FD012816D0636A13B12046FFF7C4FE00
:1054300023685A6822F490425A609A6822F02A023D
:105440009A601A6842F0010220461A60BDE81040D6
:10545000FFF7A4BF012010BD38B5044610B30368A0
:105460004CF6CC421A6045F255521A6042685A60B6
:1054700082689A6000F066F805462368DA6832B9F7
:105480001969E268914209D01A61002038BD00F024
:1054900059F8401B3028F0D90320F7E74AF6AA2232
:1054A0001A60F2E70120F1E703684AF6AA221A60BF
:1054B0000020704738B50F4B1A7805460AB901200D
:1054C00038BD4FF47A73B3FBF2F30B4A1068B0FBAC
:1054D000F3F001F019FD04460028F0D10F2DEED8AD
:1054E000024629464FF0FF3001F0BCFC034B20463A
:1054F0001D60E5E7530000207C00002054000020E0
:10550000094A136843F4807310B50320136001F057
:1055100097FC0020FFF7CEFF044618B902F025FBE8
:10552000204610BD0124FBE700200240034A044B43
:1055300011681B780B441360704700BF8C2C00204F
:1055400053000020014B1868704700BF8C2C0020CE
:105550004FF0E022136923F00203136170474FF00C
:10556000E022136943F002031361704737B51E4D03
:10557000AB6DDA00044618D501F03EFCB0F5007FB3
:1055800023D1802C29D9A02C8CBF022401241749B7
:105590000A6822F0070222430A60086800F0070048
:1055A000001B18BF012003B030BDAB6D43F080532A
:1055B000AB65AB6D03F080530193019B01F01CFCC4
:1055C000AB6D23F08053AB65D8E7802C07D808D0AB
:1055D000A4F170035C425C41D9E70024D7E70324BF
:1055E000D5E70224D3E700BF0010024000200240AC
:1055F000204B9A68D96812F00C0205D00C2A2CD1E5
:1056000001F0030101292FD119681B48090755BF73
:10561000D3F894101968C1F30321C1F3031150F8B2
:10562000210032B3DA6802F00302022A1ED01349C5
:10563000032A08BF0846D968DA68C2F30622424343
:10564000D868C0F34160C1F302110130013140005C
:10565000B2FBF1F2B2FBF0F07047042A08D0082A3E
:10566000064818BF002070470020DBE70448E2E747
:105670000348704700100240A026030800127A0079
:105680000024F4002DE9F743054618B9012003B0C2
:10569000BDE8F083924C0368A668E768D80606F078
:1056A0000C0607F003073DD51EB10C2E66D1012F65
:1056B00064D12368990702D5AB69002BE6D0236833
:1056C000286A1A0756BFD4F8943023681B0903F0E0
:1056D000F00398423BD9FFF749FF0028D6D1236851
:1056E00043F00803236023682A6A23F0F00313437E
:1056F00023606368EA6923F47F4343EA022363601B
:10570000FFF776FFA368774AC3F30313D35C03F074
:105710001F03D840744B1860744B1868FFF7CAFE1B
:105720000028B4D12B68D9075FD42B689A0700F101
:105730009E802B68190700F1DB802B685A0700F167
:105740000181AB6A002B40F06A8100209FE723684B
:1057500043F008032360236823F0F003034323602E
:105760006368EA6923F47F4343EA02236360002EFF
:10577000C6D1FFF7FBFE0028C2D087E7AB691BB399
:10578000236843F001032360FFF7DCFE80462368B3
:105790009B0711D5236843F00803236023682A6A16
:1057A00023F0F003134323606368EA6923F47F4323
:1057B00043EA02236360B5E7FFF7C4FEA0EB0800ED
:1057C0000228E4D9032062E7236823F00103236061
:1057D000FFF7B8FE804623689807A3D5FFF7B2FE0F
:1057E000A0EB08000228F6D9ECE7082E03D00C2E17
:1057F00008D1032F06D123689B0396D56B68002B35
:1058000093D143E76B68B3F5803F10D1236843F42D
:1058100080332360FFF796FE80462368980384D484
:10582000FFF790FEA0EB08006428F6D9CAE7B3F5AD
:10583000A02F04D1236843F480232360E6E7226885
:1058400022F480322260226822F480222260002B1F
:10585000E0D1FFF777FE8046236899037FF565AFB7
:10586000FFF770FEA0EB08006428F5D9AAE7042E24
:1058700003D00C2E10D1022F0ED123685A0503D568
:10588000EB68002B3FF402AF63682A6923F0F853FA
:1058900043EA026363604CE7EB687BB1236843F43F
:1058A00080732360FFF74EFE074623685B05EBD449
:1058B000FFF748FEC01B0228F7D983E7236823F4CB
:1058C00080732360FFF73EFE0746236858057FF587
:1058D00030AFFFF737FEC01B0228F6D972E700BFD2
:1058E00000100240D82603087C000020540000204D
:1058F0006B699BB1D4F8943043F00103C4F8943041
:10590000FFF720FE0746D4F894309B073FF515AF0C
:10591000FFF718FEC01B0228F5D953E7D4F89430DE
:1059200023F00103C4F89430FFF70CFE0746D4F8C7
:10593000943098077FF501AFFFF704FEC01B0228E3
:10594000F5D93FE7A36DD90029D4A36D43F0805367
:10595000A365A36D03F080530193019B4FF00108F1
:10596000894F3B68DA051DD5AB68012B2BD1D4F8E4
:10597000903043F00103C4F89030FFF7E3FD41F2AB
:1059800088390746D4F89030980742D5B8F1000F0F
:105990003FF4D7AEA36D23F08053A365D1E64FF05B
:1059A0000008DDE73B6843F480733B60FFF7CAFD06
:1059B00081463B68DB05D7D4FFF7C4FDA0EB0900A7
:1059C0000228F6D9FEE6052B06D1D4F8903043F034
:1059D0000403C4F89030CAE7D4F8902022F0010202
:1059E000C4F89020D4F8902022F00402C4F890204B
:1059F000002BC2D1FFF7A6FD41F288390746D4F843
:105A000090309907C2D5FFF79DFDC01B4845F6D9D8
:105A1000D8E6FFF797FDC01B4845B3D9D2E6022B65
:105A200040F08F80E368EA6A03F00301914224D1D9
:105A3000296B03F070020139B2EB011F1DD1696BB4
:105A400003F4FE42B2EB012F17D1AA6B073A03F41D
:105A5000003118BF012291420FD1EA6B520803F4C2
:105A6000C001013AB1EB425F07D12A6C520803F042
:105A7000C063013AB3EB426F4AD00C2E3FF406AE3E
:105A800023685A013FF502AE2368DB003FF5FEAD07
:105A9000236823F080732360FFF754FD06462368D4
:105AA0009F012FD4E268394B1340EA6A13436A6BB3
:105AB00043EA02232A6B013A43EA0213AA6B120952
:105AC00043EA4243EA6B5208013A43EA42532A6CE2
:105AD0005208013A43EA4263E360236843F080736B
:105AE0002360E36843F08073E360FFF72BFD054616
:105AF000236898013FF529AEFFF724FD401B0228DB
:105B0000F6D95FE6FFF71EFD801B0228C7D959E6CC
