:020000040800F2
:10000000007F001035760008857600080566000838
:1000100085760008857600088576000800000000D7
:1000200000000000000000000000000085760008CD
:100030008576000800000000857600089D650008B0
:100040008576000885760008857600080168000836
:10005000857600088576000831620008376200085E
:100060003D62000843620008496200088576000886
:100070008576000885760008857600088576000874
:100080008576000885760008857600088576000864
:100090008576000885760008857600084F6200089E
:1000A0008576000885760008857600088576000844
:1000B0008576000885760008857600088576000834
:1000C0008576000885760008857600088576000824
:1000D0008576000885760008857600088576000814
:1000E0007762000885760008857600088576000826
:1000F00085760008857600088576000885760008F4
:1001000085760008857600088576000885760008E3
:1001100085760008857600088576000885760008D3
:1001200085760008857600088576000885760008C3
:100130006D710008857600088576000885760008D0
:1001400085760008496E0008716E00088576000803
:100150008576000885760008857600088576000893
:100160008576000885760008857600088576000883
:100170008576000885760008857600080000000076
:08018000857600088576000871
:1001C0000348044B834202D0034B03B118477047E6
:1001D000D8020020D8020020000000000548064B8D
:1001E0001B1AD90F01EBA301491002D0034B03B135
:1001F00018477047D8020020D802002000000000F5
:1002000010B5064C237843B9FFF7DAFF044B13B15E
:100210000448AFF300800123237010BDD8020020F2
:10022000000000008483010808B5044B1BB1044999
:100230000448AFF30080BDE80840CFE700000000AD
:10024000DC0200208483010810EE101AC1F3C752AB
:100250000029A2F17F0CACBF01204FF0FF30BCF1B0
:100260001E0F0FDCBCF1000F1DDBC1F31603BCF148
:10027000160F43F400030ADD963A03FA02F202FB7A
:1002800000F07047FDEEC07A17EE900A70474FF409
:10029000800242FA0CF21A44CCF1170C22FA0CF24A
:1002A00002FB00F07047BCF1FF3F18BF0020704711
:1002B0000CB410B59CB01EAB029106916FF00041DA
:1002C00004910791084953F8042B0591002402A9D1
:1002D00001931B9400F010F9029B1C701CB0BDE848
:1002E000104002B0704700BF0802FFFF0EB430B5E7
:1002F0009CB06FF000411FAB049107910A4953F87D
:10030000042B029000240690084D0868019302A96E
:1003100005951B9400F0F0F8029B1C701CB0BDE822
:10032000304003B0704700BF000000200802FFFF0C
:100330002DE9F0478F681D46AF420B680C46164604
:1003400036D8B1F90CC01CF4906F0ED13D4618465A
:1003500031462A4600F014FCA368DF1B2368A7601F
:100360002B4400202360BDE8F0874A69096902EB4D
:1003700042025F1A02EBD2726B1C52103B44934252
:1003800092BF914699461A461CF4806F804611D060
:10039000114600F017FB824600B321693A4600F08F
:1003A000BFFCA38923F4906343F08003A38105E09D
:1003B0002F46CCE700F04EFD824658B10AEB07030A
:1003C000A9EB0707A760C4F810A0C4F81490236035
:1003D0002F46BCE72169404600F074FBA3890C223C
:1003E00043F04003C8F800204FF0FF30A381BAE784
:1003F0002DE9F04F9368176883B09246002B74D0B4
:100400004FF0000B8B680A6881460C465D4645E05C
:10041000B4F90C3013F4906F2CD0D4E90401161AFF
:1004200001EB410202EBD272711C5210294491423D
:1004300092BF904688460A465B0539D51146484624
:1004400000F0C0FA019000283DD03246216900F04A
:1004500067FCA289019B22F4906242F08002A28193
:100460009819A8EB0606A660C4F8148023612060E2
:10047000A8462E463246594600F082FBDAF80810AC
:10048000A3682268A3EB08033244491BA3602260DF
:10049000CAF8081049B3D7E900B50837984610469E
:1004A000002DF8D09D421E46B2D2A8462E46E1E766
:1004B0000146484600F0CEFC03460028D0D1216911
:1004C000484600F0FFFAA3890C2243F04003C9F824
:1004D00000204FF0FF30A38100220023CAF808203B
:1004E000CAF8043003B0BDE8F08F00200023CAF83A
:1004F000043003B0BDE8F08F2DE9F04F1C468B8926
:100500001D069DB088468146934603D50B69002B96
:1005100000F0F1800023099343F22003ADF8293065
:100520009BF800307D4D03940126002B73D0DA46F2
:1005300003E01AF8013F002B75D0252BF9D1BAEB57
:100540000B0473D19AF80020002A64D000234FF0E6
:10055000FF32CDE905230AF1010A049307938DF8D0
:1005600053301A9305E0049A06FA03F31A430492EF
:10057000A2465446052214F8011B284600F080FBD1
:10058000A346431B0028EED1049BD80644BF20227B
:100590008DF8532019079AF8001044BF2B228DF8CC
:1005A00053202A2950D1039A11680432002903925A
:1005B0007CDB07919AF801102E295BD0584C03225E
:1005C000204600F05DFB38B1049B001B40228240B6
:1005D00013430BF1010B04931BF8011B51488DF8D9
:1005E0002810062200F04CFB002865D04E4B002B53
:1005F00055D003AA00924D4B424604A94846AFF39A
:10060000008007467A1C06D0099B3B4409939BF85F
:100610000030002B8BD1B8F80C305B067AD40998E7
:100620001DB0BDE8F08FBAEB0B04F4D023465A4658
:1006300041464846FFF77CFE0130ECD0099B9AF812
:100640000020234409937FE7A1F13002092A88BFE3
:10065000D346B1D8079B00E00134217803EB830334
:1006600002EB4303A1F13002092AF5D92E290793A1
:10067000A346A3D19BF801102A2927D1039B9BF8FD
:1006800002101A6805920433002A0BF1020003934A
:10069000B8BF4FF0FF338346B8BF05938EE7039B87
:1006A000073323F0070308330393ADE7494243F0D0
:1006B0000203079104937DE703AA00921B4B424675
:1006C00004A9484600F08AFC07469BE7A1F13002E6
:1006D0000023092A05930BF1010B3FF66FAF1BF8BE
:1006E000011F03EB830302EB4303A1F13002092A4C
:1006F000F5D9059362E7402100F064F9C8F80000DD
:10070000C8F8100018B14023C8F8143002E70C23D1
:10071000C9F800304FF0FF3082E700BF800E0208BA
:10072000880E02088C0E0208000000003103000849
:1007300070B50F4B0F4DAB42A3EB050607D0B610BB
:10074000002455F8043B01349847A642F9D817F025
:1007500019FE094D094B5E1BAB424FEAA60606D0B7
:10076000002455F8043B01349847A642F9D870BDDF
:10077000C80E0208C80E0208C80E0208CC0E0208F5
:1007800070B59AB013460A4E0A466FF000410291C6
:10079000059108490391044600253068199569467A
:1007A00000940494FFF7A8FE009B1D701AB070BD62
:1007B000000000200802FFFF10B59AB0002400914D
:1007C00004916FF00041029105910549039169463A
:1007D0001994FFF791FE009B1C701AB010BD00BF6A
:1007E0000802FFFF00000000000000000000000001
:1007F00000000000000000000000000000000000F9
:1008000030B490F800F020F007016FF0000C10F009
:10081000070491F820F040F048804FF000046FF09A
:100820000700D1E9002391F840F000F1080082FAB6
:100830004CF2A4FA8CF283FA4CF3A2FA8CF34BBB81
:10084000D1E9022382FA4CF200F10800A4FA8CF2FA
:1008500083FA4CF3A2FA8CF3E3B9D1E9042382FAC8
:100860004CF200F10800A4FA8CF283FA4CF3A2FADD
:100870008CF37BB9D1E9062301F1200182FA4CF215
:1008800000F10800A4FA8CF283FA4CF3A2FA8CF37C
:10089000002BC6D0002A04BF04301A4612BAB2FA9E
:1008A00082F200EBD20030BC7047D1E9002304F0A3
:1008B0000305C4F100004FEAC50514F0040F91F8D8
:1008C00040F00CFA05F562EA05021CBF63EA050375
:1008D00062464FF00004AAE7830730B547D0541EA4
:1008E000002A3ED0CAB2034601E0013C39D303F8E6
:1008F000012B9D07F9D1032C2CD9CDB205EB052591
:100900000F2C05EB054535D9A4F1100222F00F0C90
:1009100003F1100EE6444FEA121C1A46C2E90055D4
:10092000C2E9025510327245F8D10CF1010214F0FF
:100930000C0F03EB021204F00F0C13D0ACF1040304
:1009400023F003030433134442F8045B9342FBD1C6
:100950000CF003042CB1C9B21C4403F8011BA342E0
:10096000FBD130BD64461346002CF4D1F9E70346B1
:100970001446C0E71A46A446E0E700BF70B5104E23
:10098000336805460C46B3B12146284600F0A0FE68
:10099000431C0CD0C41C24F00304A04205D0211A2F
:1009A000284600F095FE013001D0204670BD4FF082
:1009B000FF34204670BD194600F08AFE3060E3E740
:1009C000F40200202DE9F843CD1C25F0030508357D
:1009D0000C2D38BF0C25002D064618DBA94216D871
:1009E000DFF8DC8000F03CFCD8F80420A2B114460B
:1009F00003E0636822467BB11C4623685B1BF8D486
:100A00000B2B1FD89442636854D053600CE00C2326
:100A100033600020BDE8F88329463046FFF7AEFF7B
:100A2000431C044619D00560304600F01BFC04F15D
:100A30000B00231D20F00700C21A1CBF1B1AA35075
:100A4000BDE8F88361199442256014BF5160C8F86D
:100A50000410635163684B60E6E7D8F804701FB375
:100A60003C467F68002FFBD123683946304604EBB3
:100A7000030900F02DFE814516D12368ED1A2946A1
:100A80003046FFF77BFF01300ED02368D8F80420F2
:100A90002B442360536883B1A34203D01A465B689A
:100AA0009C42FBD10023B0E70C233360304600F0BA
:100AB000D9FBAEE7C8F80430B6E7C8F80470B3E76E
:100AC000F4020020002950D038B551F8043C0C1F26
:100AD000002BB8BFE418054600F0C2FB274A136894
:100AE0002BB1A3420CD92168601883422CD06360DB
:100AF00028461460BDE8384000F0B4BBA3420FD8CC
:100B00001A465B68002BF9D111685018844217D03F
:100B10002CD3636054602846BDE8384000F0A2BB87
:100B200011685018A04214D020D821686018834260
:100B3000EFD118685B680844C4E900035460EAE731
:100B400023680B441360E6E718685B68084420607C
:100B5000CDE720680144501883421160DBD1D3E90E
:100B600000040144C2E90014D5E770470C232B6050
:100B70002846BDE8384000F075BB00BFF8020020F1
:100B800088420ED98B1883420BD900EB020C002A45
:100B90006ED0624613F801CD02F801CD9942F9D129
:100BA00070470F2A0FD8034602F1FF3C002A5FD09E
:100BB0000CF1010C013B8C4411F8012B03F8012FBF
:100BC0006145F9D1704740EA01039B0751D1A2F179
:100BD000100370B501F1200C23F00F0501F1100E88
:100BE00000F11004AC441B095EF8105C44F8105C82
:100BF0005EF80C5C44F80C5C5EF8085C44F8085C39
:100C00005EF8045C44F8045C0EF1100EE64504F155
:100C10001004E9D1013312F00C0F01EB031102F0C3
:100C20000F0400EB031328D0043C24F003064FEA22
:100C3000940C1E441C1F8E465EF8045B44F8045F4F
:100C4000B442F9D10CF1010402F0030203EB840376
:100C500001EB840102F1FF3C4AB10CF1010C013BB4
:100C60008C4411F8012B03F8012F6145F9D170BDB7
:100C7000704702F1FF3C03469AE72246EAE700BFCD
:100C800001F0FF01102A2BDB10F0070F08D010F83D
:100C9000013B013A8B422DD010F0070F42B3F6D141
:100CA000F0B441EA012141EA014122F007047FF05A
:100CB00000070023F0E80256083C85EA010586EAB1
:100CC000010685FA47F5A3FA87F586FA47F6A5FAED
:100CD00087F68EB9EED1F0BC01F0FF0102F00702F9
:100CE00032B110F8013B013A83EA010313B1F8D1A4
:100CF0000020704701387047002D06BF3546033885
:100D0000073815F0010F07D1013015F4807F02BFBD
:100D1000013015F4C03F0130F0BC0138704700BF0E
:100D2000844641EA000313F003036DD1403A41D3F6
:100D300051F8043B40F8043B51F8043B40F8043BB5
:100D400051F8043B40F8043B51F8043B40F8043BA5
:100D500051F8043B40F8043B51F8043B40F8043B95
:100D600051F8043B40F8043B51F8043B40F8043B85
:100D700051F8043B40F8043B51F8043B40F8043B75
:100D800051F8043B40F8043B51F8043B40F8043B65
:100D900051F8043B40F8043B51F8043B40F8043B55
:100DA00051F8043B40F8043B51F8043B40F8043B45
:100DB000403ABDD2303211D351F8043B40F8043BE5
:100DC00051F8043B40F8043B51F8043B40F8043B25
:100DD00051F8043B40F8043B103AEDD20C3205D3F5
:100DE00051F8043B40F8043B043AF9D2043208D0ED
:100DF000D2071CBF11F8013B00F8013B01D30B885F
:100E000003806046704700BF082A13D38B078DD03C
:100E100010F003038AD0C3F10403D21ADB071CBF0E
:100E200011F8013B00F8013B80D331F8023B20F878
:100E3000023B7BE7043AD9D3013A11F8013B00F8B1
:100E4000013BF9D20B7803704B7843708B78837039
:100E5000604670472DE9F041144641B30AB3064697
:100E60000D4600F047FC8442074602D8B4EB500F11
:100E700013D821463046FFF7A5FD804650B1BC424D
:100E80002246294628BF3A46FFF74AFF2946304600
:100E9000FFF718FE4046BDE8F081A8464046BDE891
:100EA000F081A046FFF70EFE4046BDE8F081BDE8A8
:100EB000F0411146FFF786BD2DE9F84F92461F46D7
:100EC0000A698B68DDF828909A42B8BF1A46CAF8BA
:100ED000002091F843300C46064613B10132CAF89F
:100EE0000020226891065FD5DAF800300233CAF894
:100EF0000030226812F0060F11461DD1E1689942B8
:100F0000D8BF114618DD4FF0000804F1190B05E0B9
:100F1000E568DAF80030ED1A45450CDD01235A4644
:100F200039463046C847013008F10108F0D14FF08A
:100F3000FF30BDE8F88F216894F84330003B18BFBC
:100F400001238A060AD5E1185A1C302081F8430093
:100F5000224494F8451082F84310023304F143020E
:100F600039463046C8470130E1D02368DAF80050EE
:100F7000216903F00603042BD4E902201BD08A4226
:100F800020DD4FF00008521A90441A34002501E089
:100F9000454517DA0123224639463046C847013015
:100FA00005F10105F4D1C2E712F0060F0DD0003BA8
:100FB00018BF0123D2E7401B8A4220EAE078E2DC36
:100FC0000028E2DC0020BDE8F88FE168DAF80030A4
:100FD0009942D8BF114696DCAEE700BF2DE9F04735
:100FE000174684B00A7E0C9D0C460646984601F1D1
:100FF000430C002A35D0A2F15803D9B2202969D870
:10100000202B67D8DFE813F0E60066006600660074
:101010006600660066006600660066006600AC005A
:10102000700066006600660066007000660066007C
:101030006600660021008300C60066006600B600F8
:101040006600830066006600EC002B682268616918
:10105000181D286010061B6802D4520600F1E080BB
:1010600019600023E1462361CDF800803B4603AAC6
:1010700021463046FFF720FF013020D023694A4641
:1010800039463046C047013019D02368E068DDF8A2
:101090000C909B0718D5484516DD002504F1190A68
:1010A00004E0E068A0EB0903AB420DDD01235246EA
:1010B00039463046C047013005F10105F1D14FF006
:1010C000FF3004B0BDE8F0874845B8BF484604B0DB
:1010D000BDE8F08784F84220012004F14209002392
:1010E000206184F84330BFE72A682368111D180681
:1010F000296002D4590600F1958010680146002845
:101100006268C0F2938054484FF00A0E15E02068E0
:101110002B6810F0800F53F8041B02D1400648BF23
:1011200089B26F2A4C482B6014BF4FF00A0E4FF063
:10113000080E0023626884F84330002AA26051DB65
:10114000236823F00403236000294BD1002A7BD1BC
:10115000E146BEF1080F56D0ACEB0903236183E7EB
:101160002B681A6804332B6004F1420984F842208A
:101170000120B4E72B686268191D2960D3F800903C
:1011800000214846FFF77CFD002863D0A0EB090052
:101190006060A4E7236843F02003236078222F488F
:1011A00084F845202A6813F0800F52F8041B03D1FD
:1011B00013F0400F18BF89B22A60DA0744BF43F02A
:1011C0002003236019B9236823F0200323604FF024
:1011D000100EAEE7582384F845301F482368E1E736
:1011E0002368DBE77546E146B1FBF5F305FB131A0F
:1011F0000A46AA4210F80A1009F8011D1946F3D24E
:10120000BEF1080FA8D12368DD07A5D56268236960
:101210009A42A1DC302309F8013C09F1FF399BE730
:1012200019801EE7B2F90010084668E72D20002A51
:10123000A26084F8430002DB23F0040323600A2544
:1012400005484942AE46CEE7037884F8423004F1BF
:1012500042097EE7606842E7940E0208A80E020881
:10126000704700BF704700BF000000000000000092
:10127000000000000000000000000000000000006E
:1012800002780B78012A28BF9A4240F0D8806DE995
:10129000044540EA0104CDE902676FF0000C4FEA13
:1012A00044721AB380EA010414F0070F6BD100F006
:1012B000070420F0070004F0030521F007014FEABE
:1012C000C505F0E8042314F0040FF1E804670CFAF4
:1012D00005F462EA040266EA04060BD063EA04033A
:1012E000624667EA0407664604E000BFF0E80423AC
:1012F000F1E8046782FA4CF582EA0604A4FA8CF459
:101300006CBB83FA4CF583EA0705A5FA8CF595B911
:1013100050E9022351E9026782FA4CF582EA060499
:10132000A4FA8CF483FA4CF583EA0705A5FA8CF548
:101330002543DBD09CB92DBAB5FA85F424F0070417
:1013400027FA04F1DDE9026723FA04F303F0FF0052
:1013500001F0FF01FDE80445A0EB0100704724BA4D
:10136000B4FA84F424F0070426FA04F1DDE90267F4
:1013700022FA04F202F0FF0001F0FF01FDE804454B
:10138000A0EB0100704714F0030F3CD110F00304F0
:1013900028D150F8082B51F8083B82FA4CF582EA24
:1013A0000305A5FA8CF55DB950F8042C51F8043CFE
:1013B00082FA4CF582EA0305A5FA8CF5002DE8D0F7
:1013C0002DBAB5FA85F424F0070423FA04F122FAC1
:1013D00004F202F0FF0001F0FF01FDE80445A0EB7C
:1013E000010070474FEAC40420F0030050F8082BB6
:1013F00021F0030151F8083B0CFA04F462EA0402FC
:1014000063EA0403C9E710F003041DD0A1EB040153
:1014100020F00300E40750F8042B06D012D28B789A
:101420005FFAA2F4E41A06D12BB1CB785FFAB2F4DA
:10143000E41A00D133B920465DF8104B7047A2EB97
:101440000300704701F1040150F8042BCC0721F090
:10145000030151F8043B48D824D222F07F4482FA99
:101460004CF594EA1325A5FA8CF50AD165B951F823
:10147000043B84EA0204B4EB036F0ED150F8042B52
:10148000EBE74FEA132355E035F07F454DD108785F
:10149000FDE80445C0F1000070474FEA126203F016
:1014A000FF0347E002EA1C4482FA4CF594EA134534
:1014B000A5FA8CF50AD165B951F8043B84EA020417
:1014C000B4EB034F0CD150F8042BEBE74FEA134376
:1014D00030E015EA1C4528D10B884FEA124229E07A
:1014E0004FEA124203EA1C4324E002F0FF0482FAAE
:1014F0004CF594EA1365A5FA8CF50AD165B951F853
:10150000043B84EA0204B4EB032F09D150F8042B06
:10151000EBE74FEA13630DE015F0FF0F05D10B6801
:101520004FEA122223F07F4304E04FF00000FDE871
:101530000445704712BA1BBA82FA4CF482EA0304DB
:10154000A4FA8CF5B5FA85F402FA04F203FA04F36E
:101550004FEA1260FDE80445A0EB1360704700BF3E
:1015600008B410B5002A9DB0044636DB4FF4027370
:10157000ADF814304FF000031B930291069120AB9D
:1015800017D0013A4FF6FF7104920792ADF816108A
:101590001F9A019302A9FEF7AFFF421C01DA8B23C9
:1015A0002360029B00221A701DB0BDE8104001B0FC
:1015B00070474FF6FF7104920792ADF816101F9A0C
:1015C000019302A9FEF798FF431C01DA8B232360E5
:1015D0001DB0BDE8104001B070478B2303604FF091
:1015E000FF30F5E70CB410B5214B00291C689CB006
:1015F00038DB4FF000034FF402721B93ADF8142058
:10160000029006901FAB18D001394FF6FF7204917B
:101610000791ADF8162002A91E9A01932046FEF705
:101620006BFF421C01DA8B232360029B00221A709D
:101630001CB0BDE8104002B070474FF6FF72049135
:101640000791ADF8162002A91E9A01932046FEF7D5
:1016500053FF431C01DA8B2323601CB0BDE810400C
:1016600002B070478B2323604FF0FF30F5E700BFD7
:1016700000000020032A30B415D941EA0004A40771
:1016800084460B4604D0541E0FE0043A032A08D9BE
:101690001946604653F8044B5CF8045BA542F4D04D
:1016A000F1E760461946541E7AB1431E013902190A
:1016B00001E09A4209D013F8010F11F801CF6045FB
:1016C000F7D0A0EB0C0030BC7047002030BC704756
:1016D00038B5074D0022044608462A6000F012F88B
:1016E000431C00D038BD2B68002BFBD0236038BDD5
:1016F0003804002051F8043C181F002BBCBF0B58C5
:10170000C0187047044A05491368002B08BF0B46F0
:1017100018441060184670473C0400200000001078
:1017200070B54FF0FF0C4CF4E06C1CEA11541DBF77
:101730001CEA135594EA0C0F95EA0C0F00F0DEF842
:101740002C4481EA030621EA4C5123EA4C5350EA27
:10175000013518BF52EA033541F4801143F4801378
:1017600038D0A0FB02CE4FF00005E1FB02E506F009
:101770000042E0FB03E54FF00006E1FB03569CF05E
:10178000000F18BF4EF0010EA4F1FF04B6F5007F64
:1017900064F5407404D25FEA4E0E6D4146EB0606D6
:1017A00042EAC62141EA55514FEAC52040EA5E505F
:1017B0004FEACE2EB4F1FD0C88BFBCF5E06F1ED809
:1017C000BEF1004F08BF5FEA500E50F1000041EB40
:1017D000045170BD06F0004646EA010140EA0200ED
:1017E00081EA0301B4EB5C04C2BFD4EB0C0541EA0F
:1017F000045170BD41F480114FF0000E013C00F324
:10180000AB8014F1360FDEBF002001F0004170BD47
:10181000C4F10004203C35DA0C341BDC04F1140460
:10182000C4F1200500FA05F320FA04F001FA05F2EC
:1018300040EA020001F0004221F0004110EBD370B9
:1018400021FA04F642EB06015EEA430E08BF20EAE5
:10185000D37070BDC4F10C04C4F1200500FA04F388
:1018600020FA05F001FA04F240EA020001F000411A
:1018700010EBD37041F100015EEA430E08BF20EA8D
:10188000D37070BDC4F1200500FA05F24EEA020ED5
:1018900020FA04F301FA05F243EA020321FA04F004
:1018A00001F0004121FA04F220EA020000EBD370BB
:1018B0005EEA430E08BF20EAD37070BD94F0000FBB
:1018C0000FD101F00046400041EB010111F4801FEF
:1018D00008BF013CF7D041EA060195F0000F18BFA0
:1018E000704703F00046520043EB030313F4801FDC
:1018F00008BF013DF7D043EA0603704794EA0C0F96
:101900000CEA135518BF95EA0C0F0CD050EA4106AB
:1019100018BF52EA4306D1D181EA030101F0004128
:101920004FF0000070BD50EA410606BF1046194650
:1019300052EA430619D094EA0C0F02D150EA01365C
:1019400013D195EA0C0F05D152EA03361CBF10469D
:1019500019460AD181EA030101F0004141F0FE413C
:1019600041F470014FF0000070BD41F0FE4141F4C0
:10197000780170BD81F0004102E000BF83F00043B8
:1019800030B54FEA41044FEA430594EA050F08BF1A
:1019900090EA020F1FBF54EA000C55EA020C7FEADE
:1019A000645C7FEA655C00F0E2804FEA5454D4EB5B
:1019B0005555B8BF6D420CDD2C4480EA020281EA25
:1019C000030382EA000083EA010180EA020281EA5D
:1019D0000303362D88BF30BD11F0004F4FEA0131AF
:1019E0004FF4801C4CEA113102D0404261EB4101BE
:1019F00013F0004F4FEA03334CEA133302D0524244
:101A000063EB430394EA050F00F0A780A4F10104FF
:101A1000D5F1200E0DDB02FA0EFC22FA05F2801839
:101A200041F1000103FA0EF2801843FA05F359411F
:101A30000EE0A5F120050EF1200E012A03FA0EFC9E
:101A400028BF4CF0020C43FA05F3C01851EBE371C8
:101A500001F0004507D54FF0000EDCF1000C7EEBE5
:101A600000006EEB0101B1F5801F1BD3B1F5001F23
:101A70000CD349085FEA30004FEA3C0C04F1010442
:101A80004FEA445212F5800F80F09A80BCF1004F6B
:101A900008BF5FEA500C50F1000041EB045141EAED
:101AA000050130BD5FEA4C0C404141EB0101013CB6
:101AB00028BFB1F5801FE9D291F0000F04BF0146A5
:101AC0000020B1FA81F308BF2033A3F10B03B3F177
:101AD00020020CDA0C3208DD02F1140CC2F10C0207
:101AE00001FA0CF021FA02F10CE002F11402D8BF65
:101AF000C2F1200C01FA02F120FA0CFCDCBF41EA31
:101B00000C019040E41AA2BF01EB0451294330BDFF
:101B10006FEA04041F3C1CDA0C340EDC04F11404DC
:101B2000C4F1200220FA04F001FA02F340EA0300B3
:101B300021FA04F345EA030130BDC4F10C04C4F1F9
:101B4000200220FA02F001FA04F340EA03002946D9
:101B500030BD21FA04F0294630BD94F0000F83F423
:101B6000801306BF81F480110134013D4EE77FEA06
:101B7000645C18BF7FEA655C29D094EA050F08BF52
:101B800090EA020F05D054EA000C04BF1946104633
:101B900030BD91EA030F1EBF0021002030BD5FEA77
:101BA000545C05D14000494128BF41F0004130BD9F
:101BB00014F580043CBF01F5801130BD01F00045F3
:101BC00045F0FE4141F470014FF0000030BD7FEA66
:101BD000645C1ABF194610467FEA655C1CBF0B4661
:101BE000024650EA013406BF52EA033591EA030F78
:101BF00041F4002130BD00BF90F0000F04BF002170
:101C0000704730B54FF4806404F132044FF00005A2
:101C10004FF0000150E700BF90F0000F04BF00211B
:101C2000704730B54FF4806404F1320410F0004581
:101C300048BF40424FF000013EE700BF42004FEA7C
:101C4000E2014FEA31014FEA02701FBF12F07F43F9
:101C500093F07F4F81F06051704732F07F4208BFB0
:101C6000704793F07F4F04BF41F40021704730B5B7
:101C70004FF4607401F0004521F000411CE700BF03
:101C800050EA010208BF704730B54FF000050AE086
:101C900050EA010208BF704730B511F0004502D587
:101CA000404261EB41014FF4806404F132045FEA89
:101CB000915C3FF4D8AE4FF003025FEADC0C18BF32
:101CC00003325FEADC0C18BF033202EBDC02C2F124
:101CD000200300FA03FC20FA02F001FA03FE40EAB6
:101CE0000E0021FA02F11444BDE600BF4FEA4102A2
:101CF000B2F1E04324BFB3F5001CDCF1FE5C0DD96A
:101D000001F0004C4FEAC0024CEA5070B2F1004FB3
:101D100040EB830008BF20F00100704711F0804FB6
:101D200021D113F13872BCBF01F00040704741F47B
:101D300080114FEA5252C2F11802C2F1200C10FA7F
:101D40000CF320FA02F018BF40F001004FEAC12363
:101D50004FEAD32303FA0CFC40EA0C0023FA02F307
:101D60004FEA4303CCE77FEA625307D150EA0133DD
:101D70001EBF4FF0FE4040F44000704701F00040AD
:101D800040F0FE4040F40000704700BF53B94AB92C
:101D9000002908BF00281CBF4FF0FF314FF0FF3073
:101DA00000F06AB9ADF1080C6DE904CE00F006F858
:101DB000DDF804E0DDE9022304B070472DE9F047C7
:101DC000089D0E4604460F46002B4AD194468C458A
:101DD000B2FA82F260D942B1C2F12003974020FAF0
:101DE00003F30CFA02FC1F4394404FEA1C4E1FFA07
:101DF0008CF6B7FBFEF1230C0EFB117743EA074389
:101E000001FB06F098420AD91CEB030301F1FF37EE
:101E100080F01581984240F21281023963441B1A06
:101E2000A4B2B3FBFEF00EFB103344EA034400FB04
:101E300006F6A6420AD91CEB040400F1FF3380F039
:101E40000081A64240F2FD806444023840EA01402D
:101E5000A41B00211DB1D4400023C5E90043BDE807
:101E6000F0878B4205D90DB1C5E900010021084674
:101E7000F5E7B3FA83F1002946D1B34202D3824297
:101E800000F2F580841A66EB030201201746002D4C
:101E9000E5D0C5E90047E2E7002A40F09380A1EBD6
:101EA0000C034FEA1C471FFA8CFE0121B3FBF7F627
:101EB00007FB1630230C43EA00430EFB06F0984262
:101EC00008D91CEB030306F1FF3802D2984200F256
:101ED000D08046461B1AA4B2B3FBF7F007FB1033C1
:101EE00044EA03440EFB00FEA64508D91CEB04049B
:101EF00000F1FF3302D2A64500F2B6801846A4EBEB
:101F00000E0440EA0640A5E7C1F120078B4022FA03
:101F100007FC4CEA030C06FA01FE20FA07F426FA45
:101F200007F344EA0E0400FA01F84FEA1C404FEAB6
:101F30001449B3FBF0FE1FFA8CF600FB1E3349EA8E
:101F400003430EFB06F9994502FA01F20BD91CEB8B
:101F500003030EF1FF3A80F08580994540F28280BC
:101F6000AEF1020E6344A3EB0909A4B2B9FBF0F38E
:101F700000FB139944EA094403FB06F6A64208D97C
:101F80001CEB040403F1FF3068D2A64266D9023B81
:101F9000644443EA0E40A41BA0FB02E6B44273462D
:101FA000B14652D34FD05DB1B8EB030264EB0904E4
:101FB00004FA07F722FA01F31F43CC40C5E9007485
:101FC00000214CE7C2F1200120FA01F30CFA02FCD7
:101FD00026FA01F1964033434FEA1C471FFA8CFE64
:101FE000B1FBF7F007FB1016190C41EA064100FBA4
:101FF0000EF68E4204FA02F408D91CEB010100F13E
:10200000FF382DD28E422BD902386144891B9BB2F6
:10201000B1FBF7F607FB161143EA014306FB0EF18D
:10202000994208D91CEB030306F1FF3814D29942F8
:1020300012D9023E63445B1A46EA004136E739464C
:10204000EDE6184602E7F045ADD2BEEB020366EBC3
:102050000C060138B146A6E74646ECE7034698E78A
:102060004046D3E7D6467EE76444023847E7084651
:102070000DE7023E63442DE7704700BFC20710B56D
:10208000044603D50121212004F0B2F8A30705D5A9
:10209000BDE810400121202004F0AAB810BDC207FD
:1020A00010B5044603D50021212004F0A1F8A307B0
:1020B00005D5BDE810400021202004F099B810BDDE
:1020C0000120704702207047C0B209B1FFF7D6BFA8
:1020D000FFF7E5BF38B5C4B21546204639B1FFF762
:1020E000CDFF4FF47A70684304F0F6F82046BDE85F
:1020F0003840FFF7D4BF08B50121152004F078F867
:10210000BDE808400121102004F072B808B5002194
:10211000152004F06DF8BDE808400021102004F0FF
:1021200067B80121152004F063B80021152004F0E0
:102130005FB80120704701230B707047064B0360A6
:10214000064B4360064B8360064BC360064B03613E
:10215000064B4361704700BFE40C4E0C7C2E0C0D07
:10216000CC295410BC34760C3831660DBA04E2091F
:1021700008B500F071FA002008BD000010B50A484B
:102180000A4C04F0D6FE0A4804F0D3FE03F0BFFC6C
:102190002368C01AB0F5FA7F05DD03F0B8FC054BE3
:1021A000206001221A7010BD2D8701084004002014
:1021B00049870108460400202DE9F0410024ADF5CF
:1021C000CA6D6022214611A88DF80F40FEF784FBEE
:1021D0001C2221460AA88DF80840FEF77DFB40F23C
:1021E000AC52214629A8FEF777FB8DF80C400DF183
:1021F0000F0106A806F03AFB9DF819101F2900F2FE
:102200001982DFE811F02000BC00050120012A013D
:102210005A01620111021702130217021702170274
:1022200017021702170217021702170217021702E6
:1022300064017D019401F101FC01170217021702EC
:10224000170217021502C14804F073FEC04804F0DB
:1022500070FE012006F0DAFB08A9002005F04DFF12
:1022600068B1BC4804F065FEB94804F062FE002085
:1022700006F0CCFBB84804F05CFEB5480DE19DF8D3
:102280002130012B0AD1BDF82220B2F5806F10D881
:10229000B24840F2014104F04CFEE5E7022B08D1C0
:1022A000BDF82220B2F5007F03D8AD4840F20121ED
:1022B000F1E7002006F0AAFB9DF82120BDF82210CE
:1022C000A84804F036FEA24804F033FE1822192173
:1022D000012004F075FC7621012000F00DFAA24BDC
:1022E000187008B9A14800E0A14804F022FE9848FF
:1022F00004F01FFE9F49002006F066F99E49002069
:1023000006F03AF99D49002006F086F901210020E7
:1023100006F0AAF9002006F03FFA0221002006F09C
:1023200009FC002006F056FC0121002006F040FCCC
:102330000121002006F0D0FB0021084606F024FC15
:102340000021084606F01CFC0021084606F006FCA9
:102350000221002006F0ACFB00220121104606F00D
:1023600083FBFFF7ADFE0121FFF7AEFE9DF80F30B6
:10237000002B7FF43CAF0DF5CA6DBDE8F0818048BD
:1023800004F0D7FD724804F0D4FD0423002200932A
:1023900002217C4B104606F04FFA734B1B78002449
:1023A000CDE9084404948DF814404BB108A800F01E
:1023B000E1F950B9744804F0BCFD654804F0B9FD7A
:1023C0004FF4E16006F0F6FAD0E7DFED706ADDED7C
:1023D000087A9DED097A6E4867EEA67ABDEEC77A57
:1023E000FDEEE77A17EE102A17EE901A04F0A1FD21
:1023F000574804F09EFD04A908A800F00FFB052330
:102400000093224604AB0A21204606F015FAD7E7CE
:10241000604804F08EFD4E4804F08BFDFFF750FE3F
:102420000021FFF751FEFFF74DFEFA220121FFF7D1
:1024300051FE594A0321002006F052F903210020E1
:1024400006F036F9BCE79DF81C10544804F071FD05
:102450003F4804F06EFD52480DE7524C5248534D30
:10246000534E544FDFF87C8104F063FD384804F08C
:1024700060FD2246504B4E48294606F063FA21790A
:102480004E4804F056FD2A784D494E4804F051FD5F
:1024900000242B78A34203D8464804F04AFD65E7A0
:1024A000230703D114B1384604F043FD16F8011B8D
:1024B000404604F03EFD0134EBE7434804F039FDAB
:1024C000234804F036FD4148D5E64148D3E641486B
:1024D00004F02FFD1E4804F02CFD11A9002006F089
:1024E000E1FA9DF84630002B3FF440AF3A4B1878A4
:1024F00000287FF43BAF01221A7006F001FB35E79C
:10250000364804F016FD124804F013FDFFF7D8FD1D
:10251000FA220121FFF7DEFD02A9002006F0C5FA2C
:102520004FF496720121002006F09EFA1EE72C4817
:1025300004F0FFFC064804F0FCFC0AA9002006F0A9
:10254000F5FA104BBDF82B201A800FE74E870108D3
:10255000498701087287010869880108A78701086F
:10256000F18701083B88010844040020E188010844
:10257000B4880108BCEF0108B4EF0108A4EF01081A
:102580002489010850050020488901080000C8423C
:1025900089890108B189010894EF0108D6890108E9
:1025A000008A010848040020208A010858040020FD
:1025B0005C0400208FCC010847040020478A0108F2
:1025C000618A0108728A01088B8A0108B28A0108AF
:1025D000D58A0108F88A010845040020258B0108E6
:1025E000538B0108858A0108144804F0A2FC1448A2
:1025F00004F09FFC29A9002006F0BCFAB6E61148B9
:1026000004F097FC0E4804F094FCFFF759FDFA2201
:102610000121FFF75FFD03A9002006F0AEFAB42107
:10262000002006F09BFAA1E6074824E6074822E6C8
:10263000074820E6074804F07CFC1EE68B8B010867
:1026400049870108B88B0108E68B01080F8C010847
:102650003C8C01087F8C01087FB503F05DFE03F020
:1026600071FE1F481F4C204D04F063FC1F4804F00E
:1026700060FC1F4805F010FF1E4A07CA01AB83E843
:102680000700022200212D2003F054FD03F046FE36
:10269000237843B12B780020012B20701BD102231B
:1026A0002B7006F038FA05F057FF064603F034FEAB
:1026B00023785BB905F05AFF40B904F06DFD44F68C
:1026C0002060B04228BF304603F000FF04F064FDF4
:1026D00003F024FEDCE701232B7006F011FAE2E799
:1026E0009F8C01084604002045040020498701080A
:1026F000B9210008A0830108F0B51D4C8BB0002360
:10270000012563718DF80F30206021710DF10F03E9
:102710000095D02206460F4604F0AEFA10B1002014
:102720000BB0F0BD9DF80F30582BF8D11823009353
:10273000882204AB3946304604F09EFA0028EED1D8
:10274000BDF81030E380DDF81230A360BDF816301C
:10275000A381069BC4F80E30079BC4F81230089B77
:10276000C4F81630099BC4F81A3065712846D7E7BB
:10277000540500202DE9F04186B025238DF80E3058
:10278000054620B90026304606B0BDE8F081904CE1
:102790006679002EF6D04FF00108CDF8008021793F
:1027A00020680DF10E03F42204F052FA0028E9D15A
:1027B0006427CDF80080217920680DF10F03F32202
:1027C00004F05AFA0028DDD19DF80F301B0702D51E
:1027D000013FEED1D6E7062300932179206804ABB0
:1027E000F72204F049FA0028CCD19DF814309DF866
:1027F0001370DFED786A9FED787A9FED784A9DF847
:1028000010109DF811009DF812201B0143EA0733B8
:102810009DF8157043EA171307EE903AE38806EE29
:10282000103AB8EE466AF8EEE77A66EEC66AB4F990
:102830000830E7EE876A9FED6A7A27EE467A9FEDC9
:10284000696AA7EE867A07EE903AB4F90A3006EE86
:10285000103A27EE077AB8EEC66AF8EEE77A26EE67
:10286000076AB4F916309FED607AA6EEA76AF6EE15
:10287000006AFDEEC67AC4ED087AF8EEE77AA7EEB4
:10288000A67A06EE903AB4F9143005EE103AB4F98F
:10289000123005EE903AB4F9103004EE903AB4F9E3
:1028A0000E3007EE903AFAEEE64AF8EEE77A27EEB7
:1028B000044AE7EE247AA389F7EE004AE7EE844A59
:1028C00007EE903AF8EE677A67EEA47AF5EE407A72
:1028D000F1EE10FA4ED0DFED454AF8EEE66AB8EEBA
:1028E000C55A66EEA46AB0EE004A66EE876A13091E
:1028F000E5EE046A43EA001343EA0133B5EE005AF9
:1029000027EE057AF8EEE55A27EE267ADFED386AEB
:10291000A5EEA67A06EE903ADFED365AB4F91C30F1
:10292000F8EEE66A75EEE66ADFED335AE7EE656AC1
:102930009FED327ADFED325A26EE877AC7EE276AAC
:1029400007EE103AB4F91A3007EE903AF8EEE77A4B
:10295000BAEEE07A67EEA47AB4F91830E6EE877A38
:1029600007EE103AB8EEC77AA7EEA67AF0EE667ACE
:10297000E7EE257A9FED237AB4EEC76AF1EE10FAFE
:102980003FF500AF9FED207AB4EEC76AF1EE10FA82
:102990003FF7F8AE9FED1D7AF4EEC77AF1EE10FA2C
:1029A0003FF5F0AE9FED1A7AF4EEC77AF1EE10FA29
:1029B0003FF7E8AE9FED177A26EE076A9FED167A8D
:1029C00085ED006A67EE877AC5ED017ADBE600BF28
:1029D000540500200000803A000080380000802E5E
:1029E000000000390000003700007AC700000038FE
:1029F0000000804700008049000080390050C34536
:102A00000000803D000048C80080D4480060EA46CD
:102A100000D8D647CDCC4C390AD7233C70B50C46EC
:102A20000546D8B1D9B1DFED0F7A90ED000A20EE5E
:102A3000270AFDF709FC95ED010A00F30F06FDF7E3
:102A400003FC022380F310002370C6F30723637096
:102A5000C0F307232071A670E370052070BD0846FF
:102A6000FCE700BF0000C84238B5044690B1437986
:102A700003F0FF0213B9027103F036FF0223637102
:102A800023681A6842F004021A605B685B0603D58B
:102A900004236371012038BD01F09CFB05462368C7
:102AA000586810F0040003D101236371A060F2E7BD
:102AB00001F090FB401B0228F1D90423637102232B
:102AC000A360E7E710B5044678B103681A6822F0FE
:102AD0000C021A605A6822F060025A6003F03CFF50
:102AE000002060712071A06010BD0120FCE72DE97D
:102AF000F0410379012B04460F462AD04279012385
:102B00009A420371D5B220D10223437101F062FBD6
:102B100080462268566816F0010608D09368E36084
:102B20003B60012363710025002323710AE001F05B
:102B300051FBA0EB08000228EBD9012363710223AB
:102B4000A36026712846BDE8F081042282601D46FC
:102B5000EAE70225F6E700000A4B44F620621B680C
:102B6000B3FBF2F34FF47A7210B5534304680020BC
:102B70002268013B08BF032031EA020201D0002B8A
:102B8000F6D110BD7C00002070B50446002844D06A
:102B900090F8363003F0FF021BB980F8352004F0BE
:102BA0007BF902232268606884F83630D368616953
:102BB00001284FF6FF7508BF23F00603A94218BF8E
:102BC00023F4604308B923F0D803154D266A1D404D
:102BD000A36803433343666A3343A66A33432B43F4
:102BE000B8B9E0692569284303434FF6FF70814275
:102BF0001EBFA06901430B430A49D3608A42E36ABE
:102C000004BF216B0B431362012384F8363000208C
:102C100070BD0128E9D1E068E6E70120F8E700BFD0
:102C2000F8F119FF007C004070477047704770470B
:102C300070477047704703681A68D10710B504469B
:102C400006D59A68D20703D501225A60FFF7ECFF38
:102C500023681A68900707D59A68910704D502225D
:102C60005A602046FFF7E1FF23681A68520707D52C
:102C70009A68500704D504225A602046FFF7D6FF11
:102C800023681A68110707D59A68120704D5082225
:102C90005A602046FFF7CBFF23681A68D00607D595
:102CA0009A68D10604D510225A602046FFF7C0FF6B
:102CB00023681A68920607D59A68900604D52022E0
:102CC0005A602046FFF7B5FF23681A68510607D5FA
:102CD0009A68520604D540225A602046FFF7AAFFA0
:102CE00010BD00002DE9F047064672B64C4B046853
:102CF0009C4216D003F5C0539C4218D00025484A88
:102D0000A768D4F80C806369D4F818A0D4F8209090
:102D1000944212D002F5C052944227D0002B3ED1EB
:102D200015E0404BD3F8885005F44025E7E73D4BCC
:102D3000D3F8885005F44015E1E73A4A916B41F029
:102D400000419163916B21F000419163FBB9BAF1AD
:102D5000000F5CD1236923F001032361A760C4F84D
:102D60000C80C4F8209062B6BDE8F0872D4AD16B84
:102D700041F02001D163D16B21F02001D163002B00
:102D8000E5D02849D1F8882022F4401204E02549F2
:102D9000D1F8882022F44022C1F8882073B122693A
:102DA00042F001022261082163613046FFF7D4FE40
:102DB0000823032808BF86F836006360BAF1000FC5
:102DC0000FD0236943F0010323611021C4F818A038
:102DD0003046FFF7C1FE1023032808BF86F83600EF
:102DE00063600F4B9C4209D003F5C0539C42B1D1A4
:102DF0000C4AD2F8883023F4401304E0094AD2F890
:102E0000883023F440232B43C2F88830A2E7044AD9
:102E10009442BCD002F5C0529442D2D1B1E700BF77
:102E2000007C00400010024010B50223044680F8E8
:102E30003630FFF757FF94F83630032BD8B208D05E
:102E40002268D36823F40023D360012384F836304A
:102E5000002010BD70B50446022384F83630256882
:102E60001F4B9D4203F5084316461A6A0CBF42F0F9
:102E7000010242F002021A62EB6843F40023EB60A5
:102E80002B69084643F0010310212B616960A8619A
:102E90002046FFF761FE032801D1032070BD082101
:102EA000696020466E61FFF757FE0328F5D0204683
:102EB000FFF718FF94F83630032BEED023689A689A
:102EC00042F001029A601A6942F001021A611A691D
:102ED00042F004021A61012384F836300020DDE755
:102EE000007C00400223026810B580F83630104B99
:102EF0009A4203F5084304461A6A0CBF22F0010205
:102F000022F002021A62FFF7EDFE94F83630032B2E
:102F1000D8B20CD02368DA6822F40022DA609A680A
:102F200022F001029A60012384F83630002010BD9F
:102F3000007C0040026838B5D36823F0A003D3605A
:102F4000044601F047F905462368DB689B0601D576
:102F5000002038BD01F03EF9401BB0F57A7FF3D96F
:102F60000320F6E7026870B5D46814F04004054603
:102F70001AD14FF0FF33D36001F02CF923460646F7
:102F80002A68D46814F0400401D1032B01D11846FB
:102F900070BD01F01FF9801BB0F57A7F234684BF16
:102FA000032385F82130EBE70023F0E738B50F4C19
:102FB000E36823F08003E360A3689B06054606D41C
:102FC000FFF7B8FF10B1032085F8210038BDA368D2
:102FD00023F02003A360FFF7ADFF10B1032085F8B5
:102FE0002100A36843F02003A360EFE7002800401E
:102FF00038B5044600283FD090F8213003F0FF0296
:103000001BB980F8202003F001FC022384F8213052
:103010002368CA225A6253225A622046FFF7A2FF4F
:1030200048BB236820699A6822F4E00222F040023B
:103030009A60626899680243A06902430A439A60F1
:10304000E2681A611A69A16842EA01421A612046DF
:10305000FFF7ACFF78B923686569DA6C22F00302E8
:10306000DA64E269D96C2A430A43DA64FF225A62BD
:10307000012384F8213038BD0120FCE70023092812
:1030800003D840EA0310C0B270470A380133C0B217
:10309000F5E72DE9F04190F82030012B05460E466A
:1030A00090464FF0020353D080F82130012203688C
:1030B00080F82020CA225A6253225A62FFF752FF38
:1030C00070BB296830787478B7788B68B8F1000FD6
:1030D00032D113F0400308BFF370FFF7CFFF8046F3
:1030E0002046FFF7CBFF02463846FFF7C7FFF378CD
:1030F00040EA835343EA084343EA022303F07F3361
:1031000023F0FE430B608B6823F480238B60D6E9A9
:1031100003308A68034313438B602846FFF746FF5A
:103120002B68FF225A6210B9012385F82130002351
:1031300085F82030BDE8F08113F0400308BFF3703C
:103140002402F27844EA00433B4343EA8253D5E742
:103150001846EFE7F8B590F82030012B05464FF000
:1031600002002BD0012385F8203085F821000E784D
:10317000C8784C788F7876030AB346EA00433B431D
:1031800043EA04242B68CA225A6253225A62284610
:10319000FFF7E8FE40B92A6824F07F4424F0C00419
:1031A00054602846FFF702FF2B68FF225A6210B9CD
:1031B000012385F82130002385F82030F8BDE3068F
:1031C00042BF24F010040A344C70FFF757FF044646
:1031D0004878FFF753FF02463846FFF74FFF40EAB3
:1031E000060343EA044343EA0224CBE7030903EB63
:1031F000830300F00F0000EB4300C0B27047036888
:10320000986A486018691B68C0F30E0070B5886042
:103210000024C3F30540C3F3062660F3070403F05C
:103220007F0566F30F2465F31744C3F3805363F3FC
:103230001F640C6052B9FFF7D9FF08703046FFF7E2
:10324000D5FF48702846FFF7D1FF8870002070BD79
:1032500003685B6870B5C3F30740C3F3042603F04B
:103260003F050024C3F3423363F3070466F30F24DE
:1032700065F3174460F31F640C6052B9FFF7B6FFA3
:10328000C8703046FFF7B2FF48702846FFF7AEFF20
:103290008870002070BD00002DE9F04190F82030CA
:1032A000012B04460E4615464FF0020035D001238F
:1032B00084F82030236884F82100CA225A625322FD
:1032C0005A629A6822F480629A60D868C0B260F448
:1032D0009060D860DB685B0621D523681C4A5E617C
:1032E000996821F0070129439960116841F4801120
:1032F0001160916841F4801191609A6842F48042B3
:103300009A609A6842F480629A60FF225A620020B2
:10331000012384F8213084F82000BDE8F08100F01A
:1033200059FF80462368DF6817F00407D5D100F005
:1033300051FFA0EB0800B0F57A7FF3D92368FF2294
:1033400003205A6284F8210084F82070E5E700BF6A
:103350000004014070B590F82030012B04464FF076
:10336000020030D0012384F82030236884F8210043
:10337000CA225A6253225A629A6822F480629A6080
:103380009A6822F480429A6000F024FF0646226880
:10339000D56815F0040508D0FF23536200200123EF
:1033A00084F8213084F820000DE000F013FF801B2A
:1033B000B0F57A7FEBD92368FF2203205A6284F8A4
:1033C000210084F8205070BD704700000A4B4FF474
:1033D000801210B55A610268D3685B05044606D5B1
:1033E000D368DBB263F49063D360FFF7EDFF012392
:1033F00084F8213010BD00BF0004014090F8202067
:10340000012A03464FF0020012D01A6883F8210007
:10341000CA21516253215162916841F020019160AB
:10342000FF2151620020012283F8212083F820002F
:103430007047F8B5044600287AD0436A002B50D173
:103440004268B2F5827F00D0C36194F85D3003F02A
:10345000FF0223B984F85C20204603F0FFFA2268BB
:10346000E068022384F85D301368B0F5E06F23F064
:10347000400313604FF0000337D91D46B0F5706F5D
:1034800018BFA362A7686368A169A66A07F4044726
:1034900003F482733B43276907F002073B436769E4
:1034A00007F001073B4301F400773B43E76907F06E
:1034B00038073B43276A07F080073B4306F4005771
:1034C0003B43B6F5005F136014D1236B6BBBB0F5C3
:1034D000E06F0DD902232363136843F40063136084
:1034E00008E00023C0E90433AFE74FF48055C7E795
:1034F00001232363636A676B03F0100307F0080777
:1035000000F470603B43090C034301F004010B43DA
:103510002B43B6F5005F536004BFA38D13610020F9
:103520000123206684F85D30F8BD022BE2D1D3E799
:103530000120F9E710B5044680B10268022380F843
:103540005D30136823F04003136003F0DDFA0020C0
:10355000206684F85C0084F85D0010BD0120FCE763
:1035600003689A69910744BF00229A629A69D20758
:103570005EBF9A6942F001029A61704730B5039DBF
:10358000046845EA02421A43054B6068C1F3090129
:1035900043EA55530A4320EA03000243626030BD08
:1035A000FF63FF03F8B503680446986910F0100044
:1035B0000E46174617D1F8BD721C15D000F00AFE52
:1035C000C01B864200D376B9636C43F0200363646A
:1035D000202384F84130002384F84230002384F80B
:1035E00040300120E7E72568AB699B06E4D510234E
:1035F0002026EB612046EE61FFF7B2FF6B6823F0F7
:10360000FF7323F48B3323F4FF7323F001036B6008
:10361000636C43F00403636484F84160DBE770B5D6
:1036200004460D46164623689B699B0701D500207A
:1036300019E0324629462046FFF7B4FF90B96A1CCC
:10364000F1D000F0C7FD801BA8420DD9636C43F098
:1036500020036364202384F84130002384F842303F
:1036600084F84030012070BD002DDCD1EEE770B54C
:1036700004460D46164623689B699B0601D500202B
:1036800017E0324629462046FFF78CFF80B900F04C
:10369000A1FD801BA8420DD9636C43F02003636435
:1036A000202384F84130002384F8423084F84030ED
:1036B000012070BD002DDED1EEE72DE9F041069F1F
:1036C0000446884616461D462268936938EA030375
:1036D0000CBF01230023B34201D0002013E06B1C78
:1036E000F3D000F077FDC01BA8420ED9636C43F005
:1036F00020036364202384F84130002384F842309F
:1037000084F840300120BDE8F081002DDCD1EDE7E8
:103710002DE9F341DDE908781E46174B0093054675
:1037200014464FF08073F2B2FFF728FF4246394645
:103730002846FFF774FF18B1012002B0BDE8F08100
:10374000012E2B680DD1E4B29C620022CDF80080DE
:103750003B4680212846FFF7B0FF003818BF012004
:10376000EBE7220A9A62394642462846FFF757FF9E
:103770000028E1D12B68E6E7002000802DE9F34125
:10378000DDE908781E46174B0093054614460023D2
:10379000F2B2FFF7F3FE424639462846FFF73FFFF5
:1037A00018B1012002B0BDE8F081012E2B680DD1C7
:1037B000E4B29C620022CDF800803B4640212846BE
:1037C000FFF77BFF003818BF0120EBE7220A9A625F
:1037D000394642462846FFF722FF0028E1D12B68F0
:1037E000E6E700BF0020008010B5044600284AD05C
:1037F00090F8413003F0FF021BB980F8402003F03D
:103800004FFA242384F8413023681A6822F0010219
:103810001A60626822F070621A619A6822F40042AB
:103820009A60D4E90221012924D142F400429A602D
:103830005A6842F0007242F400425A60DA6822F498
:103840000042DA60D4E904210A43A16942EA012274
:10385000DA60D4E907210A431A601A6842F00102CB
:103860001A6000202023606484F84130206384F8CB
:10387000420010BD42F4044202299A6004BF4FF492
:1038800000625A60D4E70120F3E72DE9F74F9A462A
:1038900090F84130BDF834B0DDF83880202B044674
:1038A0000E46914640F0A4800C9B13B1BBF1000F73
:1038B00006D14FF400736364012003B0BDE8F08FBC
:1038C00090F84030012B00F09380012780F8407081
:1038D00000F080FC3A460090054619234FF4004161
:1038E0002046FFF7EAFE07460028E5D1212384F8A9
:1038F0004130402384F842300C9B60646362606313
:10390000A4F82AB05346CDE900854A463146204600
:10391000FFF7FEFE10B184F84070CDE7638D9BB2D7
:10392000FF2B55D9FF2222854FF08073009031463E
:103930002046FFF723FE2A4641462046FFF76FFE4A
:103940000028B9D1636A226813F8011B916263628F
:10395000638D228D013B9BB26385638D013A92B2E8
:103960009BB22285ABB1A2B9009543468021204687
:10397000FFF7A3FE00289FD1638D9BB2FF2B2FD9A9
:10398000FF2222854FF08073009031462046FFF7DA
:10399000F5FD638D9BB2002BCDD12A4641462046D2
:1039A000FFF765FE002887D123682021D9615A6876
:1039B00022F0FF7222F48B3222F4FF7222F0010215
:1039C0005A6084F8411084F8400084F8420074E79B
:1039D000628D92B222854FF000730090D2B2A6E7BA
:1039E000628D92B222854FF000730090D2B2CCE784
:1039F000022062E72DE9F74F9A4690F84130BDF872
:103A000034B0DDF83880202B04460E46914640F055
:103A1000A8800C9B13B1BBF1000F06D14FF40073CB
:103A20006364012003B0BDE8F08F90F84030012BB3
:103A300000F09780012780F8407000F0CBFB3A46F9
:103A40000090054619234FF400412046FFF735FE4C
:103A500007460028E5D1222384F84130402384F82A
:103A600042300C9B606463626063A4F82AB05346E2
:103A7000CDE900854A4631462046FFF77FFE10B16A
:103A800084F84070CDE7638D9BB2FF2B364B58D93D
:103A9000FF22228500934FF0807331462046FFF7C6
:103AA0006DFD00954346002204212046FFF705FEE8
:103AB0000028B6D123685A6A636A1A70636A228D35
:103AC00001336362638D013B9BB26385638D013A71
:103AD00092B29BB22285ABB1A2B900954346802138
:103AE0002046FFF7EAFD00289BD1638D9BB2FF2B98
:103AF0002FD9FF2222854FF0807300903146204657
:103B0000FFF73CFD638D9BB2002BCAD12A4641468C
:103B10002046FFF7ACFD002883D123682021D9611E
:103B20005A6822F0FF7222F48B3222F4FF7222F0E4
:103B300001025A6084F8411084F8400084F8420081
:103B400070E7628D92B222850093D2B24FF000737B
:103B5000A3E7628D92B222854FF000730090D2B23B
:103B6000CCE702205EE700BF0024008010B590F88B
:103B70004120202A0346D4B21CD190F84020012ACB
:103B800018D0242280F841200268106820F001003B
:103B90001060106820F480501060106801431160BC
:103BA0001168002041F00101116083F8414083F861
:103BB000400010BD0220FCE710B590F84120202AFB
:103BC0000346D4B21BD190F84020012A17D02422FA
:103BD00080F841200268106820F001001060106831
:103BE00020F4706040EA012111601168002041F06A
:103BF0000101116083F8414083F8400010BD0220AC
:103C0000FCE738B5054698B12423436703681A6872
:103C1000002422F001021A601C605C609C6003F0CA
:103C200069FAEC6785F870406C672046AC6738BD70
:103C30000120FCE738B50446C0692169A268236801
:103C40000A4361691D680A437549024329400A43D2
:103C50001A605A68E16822F440520A435A60714A75
:103C6000A16993421CBF226A11439A6822F4306210
:103C70000A439A606C4A93422BD16C4BD3F888303C
:103C800003F00303022B00F0C380032B00F0B3808A
:103C9000012B00F0B780B0F5004F40F0BE8000F07F
:103CA00065FE002870D06268530803EB4003B3FB45
:103CB000F2F39AB2A2F110004FF6EF7188421FD8CA
:103CC00023F00F0321689BB2C2F342021343CB607F
:103CD0005AE0574A934215D1544BD3F8883003F039
:103CE0000C03082B00F0948008D8002B40F08A8049
:103CF000B0F5004F69D100F027FED2E70C2B7AD047
:103D0000012042E04B4A934209D1484BD3F8883016
:103D100003F03003202B7BD0E7D9302BEFE7464A66
:103D2000934209D1414BD3F8883003F0C003802B74
:103D30006ED0DAD9C02BE2E7404A93420BD13B4B1D
:103D4000D3F8883003F44073B3F5007F60D0CCD94A
:103D5000B3F5407FD3E7334A9342D1D1334BD3F805
:103D6000883003F44063B3F5006F12D003D843B931
:103D700000F0EAFD07E0B3F5406FC1D14FF4004019
:103D800008E000F07DFA28B900200023C4E91833C8
:103D900038BD2B48626802EB42038342B0D8B0EBD7
:103DA000023FADD8510800238C464FF48075194668
:103DB000E0FB05C16046FDF7E9FF224BA0F540722C
:103DC0009A429DD82368D860DEE700F0BDFD002848
:103DD000DAD0626800EB5203B3FBF2F39BB2A3F1BB
:103DE00010014FF6EF7291428AD82268D360CBE778
:103DF00000F046FAEBE7B0F5004F3FF454AF4FF454
:103E00000040E6E7B0F5004FF2D100F039FA48E79C
:103E1000B0F5004F0A48DCD145E700F0A7FDD6E732
:103E2000F369FFEF008000400038014000100240BD
:103E30000044004000480040004C0040005000405A
:103E40000024F400FFFC0F00436ADA0710B506D522
:103E50000168846A4A6822F4003222434A609C075F
:103E600006D50168C46A4A6822F4803222434A6057
:103E7000590706D50168046B4A6822F48022224360
:103E80004A601A0706D50168446B4A6822F400426A
:103E900022434A60DC0606D50168846B8A6822F4F6
:103EA000805222438A60990606D50168C46B8A68ED
:103EB00022F4005222438A605A060FD50168046C2E
:103EC0004A6822F480122243B4F5801F4A6005D16B
:103ED0004A68446C22F4C00222434A601B0606D59D
:103EE0000268816C536823F400230B43536010BDB8
:103EF0002DE9F843DDF8209005460F461646984612
:103F00002A68D36937EA03030CBF01230023B342B5
:103F100001D000201BE0B9F1FF3FF2D000F05AF9C8
:103F20002C68A0EB08004845236802D8B9F1000FBF
:103F30000FD123F4D0732360A36823F00103A3609F
:103F400020236B67AB67002385F870300320BDE842
:103F5000F8835A07D4D5E3691B05D1D54FF4006324
:103F60002362236823F4D0732360A36823F0010342
:103F7000A36020236B67AB67EB67E4E72DE9F743AA
:103F80009846436F202B04460E4617464CD1002915
:103F900048D0002A46D090F87030012B44D001233D
:103FA00080F8703000252123C567436700F012F9BF
:103FB000A368A4F85070B3F5805F8146A4F85270EE
:103FC00003D123690BB935461E46002384F87030AF
:103FD000B4F85220CDF8008092B24B463AB9402155
:103FE0002046FFF785FF40B92023636706E00022E3
:103FF00080212046FFF77CFF18B1032003B0BDE805
:10400000F08322685EB935F8023BC3F308031385D9
:10401000B4F85220013A92B2A4F85220D8E716F828
:10402000013BF4E70120E9E70220E7E773B5044626
:104030000026C66700F0CEF823681B681A070546FD
:1040400015D423681B685B070AD56FF07E43009385
:1040500000222B464FF480012046FFF749FF90B91C
:1040600020230020636784F87000A3670CE06FF0E2
:104070007E430093324603464FF400112046FFF77B
:1040800037FF0028DDD0032002B070BD10B5044614
:1040900040B3436F1BB980F8703002F099FF22687B
:1040A00024236367136823F0010313602046FFF79E
:1040B000C1FD012816D0636A13B12046FFF7C4FE84
:1040C00023685A6822F490425A609A6822F02A02C1
:1040D0009A601A6842F0010220461A60BDE810405A
:1040E000FFF7A4BF012010BD38B5044610B3036824
:1040F0004CF6CC421A6045F255521A6042685A603A
:1041000082689A6000F066F805462368DA6832B97A
:104110001969E268914209D01A61002038BD00F0A7
:1041200059F8401B3028F0D90320F7E74AF6AA22B5
:104130001A60F2E70120F1E703684AF6AA221A6042
:104140000020704738B50F4B1A7805460AB9012090
:1041500038BD4FF47A73B3FBF2F30B4A1068B0FB2F
:10416000F3F001F0B7FC04460028F0D10F2DEED893
:10417000024629464FF0FF3001F05AFC034B20461F
:104180001D60E5E7500000207C0000205400002066
:10419000094A136843F4807310B50320136001F0DB
:1041A00035FC0020FFF7CEFF044618B902F0FDF9F8
:1041B000204610BD0124FBE700200240034A044BC7
:1041C00011681B780B441360704700BF780500200E
:1041D00050000020014B1868704700BF7805002090
:1041E0004FF0E022136923F00203136170474FF090
:1041F000E022136943F002031361704737B51E4D87
:10420000AB6DDA00044618D501F0DCFBB0F5007F99
:1042100023D1802C29D9A02C8CBF0224012417493A
:104220000A6822F0070222430A60086800F00700CB
:10423000001B18BF012003B030BDAB6D43F08053AD
:10424000AB65AB6D03F080530193019B01F0BAFBAA
:10425000AB6D23F08053AB65D8E7802C07D808D02E
:10426000A4F170035C425C41D9E70024D7E7032442
:10427000D5E70224D3E700BF00100240002002402F
:10428000204B9A68D96812F00C0205D00C2A2CD168
:1042900001F0030101292FD119681B48090755BFF7
:1042A000D3F894101968C1F30321C1F3031150F836
:1042B000210032B3DA6802F00302022A1ED0134949
:1042C000032A08BF0846D968DA68C2F306224243C7
:1042D000D868C0F34160C1F30211013001314000E0
:1042E000B2FBF1F2B2FBF0F07047042A08D0082AC2
:1042F000064818BF002070470020DBE70448E2E7CB
:1043000003487047001002402CF0010800127A00A8
:104310000024F4002DE9F743054618B9012003B045
:10432000BDE8F083924C0368A668E768D80606F0FB
:104330000C0607F003073DD51EB10C2E66D1012FE8
:1043400064D12368990702D5AB69002BE6D02368B6
:10435000286A1A0756BFD4F8943023681B0903F063
:10436000F00398423BD9FFF749FF0028D6D12368D4
:1043700043F00803236023682A6A23F0F003134301
:1043800023606368EA6923F47F4343EA022363609E
:10439000FFF776FFA368774AC3F30313D35C03F0F8
:1043A0001F03D840744B1860744B1868FFF7CAFE9F
:1043B0000028B4D12B68D9075FD42B689A0700F185
:1043C0009E802B68190700F1DB802B685A0700F1EB
:1043D0000181AB6A002B40F06A8100209FE72368CF
:1043E00043F008032360236823F0F00303432360B2
:1043F0006368EA6923F47F4343EA02236360002E83
:10440000C6D1FFF7FBFE0028C2D087E7AB691BB31C
:10441000236843F001032360FFF7DCFE8046236836
:104420009B0711D5236843F00803236023682A6A99
:1044300023F0F003134323606368EA6923F47F43A6
:1044400043EA02236360B5E7FFF7C4FEA0EB080070
:104450000228E4D9032062E7236823F001032360E4
:10446000FFF7B8FE804623689807A3D5FFF7B2FE92
:10447000A0EB08000228F6D9ECE7082E03D00C2E9A
:1044800008D1032F06D123689B0396D56B68002BB8
:1044900093D143E76B68B3F5803F10D1236843F4B1
:1044A00080332360FFF796FE80462368980384D408
:1044B000FFF790FEA0EB08006428F6D9CAE7B3F531
:1044C000A02F04D1236843F480232360E6E7226809
:1044D00022F480322260226822F480222260002BA3
:1044E000E0D1FFF777FE8046236899037FF565AF3B
:1044F000FFF770FEA0EB08006428F5D9AAE7042EA8
:1045000003D00C2E10D1022F0ED123685A0503D5EB
:10451000EB68002B3FF402AF63682A6923F0F8537D
:1045200043EA026363604CE7EB687BB1236843F4C2
:1045300080732360FFF74EFE074623685B05EBD4CC
:10454000FFF748FEC01B0228F7D983E7236823F44E
:1045500080732360FFF73EFE0746236858057FF50A
:1045600030AFFFF737FEC01B0228F6D972E700BF55
:104570000010024064F001087C000020540000207C
:104580006B699BB1D4F8943043F00103C4F89430C4
:10459000FFF720FE0746D4F894309B073FF515AF90
:1045A000FFF718FEC01B0228F5D953E7D4F8943062
:1045B00023F00103C4F89430FFF70CFE0746D4F84B
:1045C000943098077FF501AFFFF704FEC01B022867
:1045D000F5D93FE7A36DD90029D4A36D43F08053EB
:1045E000A365A36D03F080530193019B4FF0010875
:1045F000894F3B68DA051DD5AB68012B2BD1D4F868
:10460000903043F00103C4F89030FFF7E3FD41F22E
:1046100088390746D4F89030980742D5B8F1000F92
:104620003FF4D7AEA36D23F08053A365D1E64FF0DE
:104630000008DDE73B6843F480733B60FFF7CAFD89
:1046400081463B68DB05D7D4FFF7C4FDA0EB09002A
:104650000228F6D9FEE6052B06D1D4F8903043F0B7
:104660000403C4F89030CAE7D4F8902022F0010285
:10467000C4F89020D4F8902022F00402C4F89020CE
:10468000002BC2D1FFF7A6FD41F288390746D4F8C6
:1046900090309907C2D5FFF79DFDC01B4845F6D95C
:1046A000D8E6FFF797FDC01B4845B3D9D2E6022BE9
:1046B00040F08F80E368EA6A03F00301914224D15D
:1046C000296B03F070020139B2EB011F1DD1696B38
:1046D00003F4FE42B2EB012F17D1AA6B073A03F4A1
:1046E000003118BF012291420FD1EA6B520803F446
:1046F000C001013AB1EB425F07D12A6C520803F0C6
:10470000C063013AB3EB426F4AD00C2E3FF406AEC1
:1047100023685A013FF502AE2368DB003FF5FEAD8A
:10472000236823F080732360FFF754FD0646236857
:104730009F012FD4E268394B1340EA6A13436A6B36
:1047400043EA02232A6B013A43EA0213AA6B1209D5
:1047500043EA4243EA6B5208013A43EA42532A6C65
:104760005208013A43EA4263E360236843F08073EE
:104770002360E36843F08073E360FFF72BFD054699
:10478000236898013FF529AEFFF724FD401B02285E
:10479000F6D95FE6FFF71EFD801B0228C7D959E650
:1047A000236899013FF519AE236843F080732360B5
:1047B000E36843F08073E360FFF70CFD0546236870
:1047C0009A013FF50AAEFFF705FD401B0228F6D916
:1047D00040E60C2E3FF4A2AD236823F080732360E3
:1047E000236813F0205F02BFE36823F00303E36054
:1047F000E36823F0887323F48033E360FFF7EAFC77
:10480000054623689B017FF5E8ADFFF7E3FC401BFD
:104810000228F6D91EE600BF007000408C809DF98A
:104820002DE9F0410D46044610B90120BDE8F081A4
:10483000404A136803F007038B422AD32368D90741
:1048400032D421688A075BD43A4A136803F007031D
:10485000AB425DD811F0040F374D64D10B0706D57C
:10486000AB68226923F4605343EAC203AB60FFF7ED
:1048700007FDAB68314AC3F30313BDE8F041D35CD5
:1048800003F01F03D8402E4B18602E4B1868FFF71B
:1048900059BC136823F007030B431360136803F03C
:1048A00007038B42C1D1C9E76268234E032A3368EC
:1048B0001AD113F0007FB8D0B36823F00303134379
:1048C000B360FFF787FC41F288380746B368626837
:1048D00003F00C03B3EB820FB3D0FFF77BFCC01BDC
:1048E0004045F3D90320A1E7022A02D113F4003F87
:1048F000E1E712B913F0020FDDE713F4806FDAE796
:104900000D4AA068936823F0F003034393609BE78C
:10491000136823F007032B431360136803F00703A6
:10492000AB4282D196E7AB68E26823F4E0631343BD
:10493000AB6093E7002002400010024064F00108E1
:104940007C00002054000020054B064A9B68C3F3FE
:104950000223D35C044A106803F01F03D840704759
:10496000001002405CF001087C000020054B064A64
:104970009B68C3F3C223D35C044A106803F01F038F
:10498000D8407047001002405CF001087C00002015
:104990001F2303602B4B1A68510356BF1A684FF44C
:1049A000A02202F4803242601A6802F001028261A1
:1049B0005A68C2F30722C2611A6802F0F00202626A
:1049C0001A6802F48072C2605A68C2F3046202611B
:1049D000D3F89020520756BFD3F89020052202F05A
:1049E00001028260D3F8942002F0010242610022A9
:1049F00042621A6812F0807F0CBF0122022282629A
:104A0000DA6802F00302C262DA68C2F3021201320B
:104A10000263DA68C2F306224263DA68C2F34152E3
:104A200001325200C263DA68C2F3416201325200BD
:104A30000264DB6813F4003F0CBF07231123836378
:104A4000704700BF001002400F2303600B4B9A68B1
:104A500002F0030242609A6802F0F00282609A68F3
:104A600002F4E062C2609B68DB0803F4E063036168
:104A7000034B1B6803F007030B60704700100240F4
:104A800000200240F8B5414CE3689B0705460E46FE
:104A9000006828D0E36803F0030383423AD1002B77
:104AA00038D0E3686A68C3F302130133934231D10B
:104AB000236823F080632360FFF78CFB074623689D
:104AC0001A0130D4AA681202A6B3012E23694CD170
:104AD000296923F4C003490823F4FE430139134331
:104AE00043EA415330E0022810D0032814D00128B3
:104AF00010D123689F071CD5E3686A6823F073030D
:104B0000013A034343EA0213E360D1E7236813F455
:104B1000806FF1D101200CE023689903ECD4236865
:104B200013F4802FF5E7FFF755FBC01B0228C6D909
:104B30000320F8BD2369E96823F41F3323F440738D
:104B40000909134343EA41432361236843F0806327
:104B50002360FFF73FFB064623681B0110D523693E
:104B6000AA69134323610020E3E7696923F0C06366
:104B7000490823F4FE430139134343EA4163E3E761
:104B8000FFF728FB801B0228E6D9D1E7001002407E
:104B9000F8B53B4CE3689B0705460E46006826D0F7
:104BA000E36803F00303834238D1002B36D0E36877
:104BB0006A68C3F30213013393422FD1236823F0B1
:104BC00080532360FFF706FB074623689A002ED424
:104BD000A968090296B363692A6923F0C063520881
:104BE00023F4FE43013A0B4343EA426330E00228D8
:104BF00010D0032814D0012810D123689F071CD59A
:104C0000E3686A6823F07303013A034343EA02133B
:104C1000E360D3E7236813F4806FF1D101200CE047
:104C200023689903ECD4236813F4802FF5E7FFF78A
:104C3000D1FAC01B0228C8D90320F8BD6369EA680D
:104C400023F41F3323F4407312090B4343EA424316
:104C50006361236843F080532360FFF7BBFA064685
:104C600023689B0005D563696A691343636100206B
:104C7000E3E7FFF7AFFA801B0228F1D9DCE700BFBA
:104C80000010024003682DE9F3471D05044628D5AE
:104C9000416EB1F5000F26D017D851B3B1F5800F92
:104CA0002ED001252368D8040DD5A16EB1F1007F67
:104CB00000F0488129D8002900F04A81B1F1807FB5
:104CC00000F04B8101252F462FE0B1F5400FE8D1D0
:104CD000AC4A616ED2F8883023F440030B43C2F82B
:104CE00088300025DEE7A74AD36843F48033D360D9
:104CF000EEE70430FFF7C6FE05460028D2D1E7E70D
:104D000000212030FFF744FFF6E7B1F1407FD9D111
:104D10002F46002F40F027819A4AA16ED2F88830A2
:104D200023F040730B43C2F88830236899033AD5C7
:104D3000944EB36DDA0000F11881B36D43F08053E7
:104D4000B365B36D03F080530193019B4FF00108ED
:104D5000DFF83492D9F8003043F48073C9F800309A
:104D6000FFF738FA8246D9F80030DB0540F10081C0
:104D70008FB9D6F89030D4F8842013F4407340F003
:104D80000581D6F89030D4F8842023F4407313437F
:104D9000C6F890302F46B8F1000F03D0B36D23F062
:104DA0008053B3653D462368DA0708D57549A06B83
:104DB000D1F8882022F003020243C1F888209F071F
:104DC00008D57049E06BD1F8882022F00C0202432C
:104DD000C1F888205E0708D56A49206CD1F8882080
:104DE00022F030020243C1F88820180708D565492F
:104DF000606CD1F8882022F0C0020243C1F88820FC
:104E0000D90608D55F49A06CD1F8882022F44072F9
:104E10000243C1F888209A0608D55A49E06CD1F8B7
:104E2000882022F440620243C1F888209F0508D5FB
:104E30005449E06DD1F8882022F440220243C1F8A1
:104E400088205E0508D54F49206ED1F8882022F4CD
:104E500040120243C1F88820580608D54949206D00
:104E6000D1F8882022F440520243C1F88820190664
:104E700008D54449606DD1F8882022F440420243AD
:104E8000C1F88820DA0508D53E49A06DD1F8882000
:104E900022F440320243C1F888209F0410D5394AD9
:104EA000E16ED2F8883023F040630B43B1F1006F1C
:104EB000C2F8883040F09280D36843F48013D36006
:104EC0002F4623681E0310D52E4A216FD2F8883052
:104ED00023F040630B43B1F1006FC2F8883040F01B
:104EE0008A80D36843F48013D3603E4623685D0311
:104EF00010D5244A616FD2F8883023F040630B4309
:104F0000B1F1006FC2F8883040F08280D36843F47A
:104F10008013D36035462368580440F189801949CD
:104F2000A26FD1F8883023F040531343B2F1805F71
:104F3000C1F8883079D10221201DFFF7A3FD002898
:104F400076D076E00F4AD36843F48033D360DFE64F
:104F5000201DFFF797FD0746DBE6002104F1200046
:104F6000FFF716FEF7E73D46DFE64FF00008EFE6F5
:104F7000FFF730F9A0EB0A0002287FF6F4AE032712
:104F800009E700BF001002400070004093423FF468
:104F9000F8AED6F89020D6F8903043F48033C6F8B7
:104FA0009030D6F8903022F4407123F48033D0074B
:104FB000C6F89030C6F890107FF5E3AEFFF70AF917
:104FC00041F288390746D6F8903099073FF5D9AEB7
:104FD000FFF700F9C01B4845F5D9D0E7B1F1806F64
:104FE0007FF46EAF0121201DFFF74CFD074600281E
:104FF0003FF466AF65E7B1F1806F7FF476AF0121D2
:10500000201DFFF73FFD064600283FF46EAF6DE719
:10501000B1F1806F7FF47EAF0121201DFFF732FDDB
:10502000054600283FF476AF75E7B2F1005F1BD06C
:1050300028462268110408D50E49E56FD1F888305A
:1050400023F080432B43C1F88830D30309D5094AA4
:10505000D4F88010D2F8883023F000430B43C2F814
:10506000883002B0BDE8F087022104F12000FFF78C
:105070008FFD64E7001002404D4B03604D4B10B5AF
:10508000DC6804F003044460D968C1F30211013103
:1050900081601A69C2F30622C2601A69520B02F0DB
:1050A0001002073202611A69C2F341520132520002
:1050B00042611A69C2F34162C0E9084101325200FB
:1050C00082615A69C2F3062282625A69520B02F067
:1050D00010020732C2625A69C2F3416201325200C1
:1050E0000263D3F8882002F003028263D3F8882099
:1050F00002F00C02C263D3F8882002F0300202648E
:10510000D3F8882002F0C0024264D3F8882002F469
:1051100040728264D3F8882002F44062C264D3F8FB
:10512000882002F440520265D3F8882002F44042FD
:105130004265D3F8882002F440328265D3F8882093
:1051400002F44022C265D3F8882002F440120266BD
:10515000D3F8882002F440024266D3F8882002F097
:1051600040728266D3F8902002F44072C0F8842026
:10517000D3F8882002F04062C266D3F8882002F09B
:1051800040620267D3F8882002F040624267D3F899
:10519000882002F040528267D3F8882002F08042D3
:1051A000C267D3F8883003F00043C0F8803010BDE8
:1051B000FFFF0F0000100240094A536943F48023A7
:1051C00010B55361EFF3108272B600235C581C5087
:1051D0000433B3F5807FF9D182F3108810BD00BF8E
:1051E00000200240064B5A69002ABFBF054A9A6058
:1051F00002F188329A60BABF5869C00F0020704728
:105200000020024023016745034A536943F00043ED
:1052100053610020704700BF0020024070B5054672
:10522000FEF7D8FF104C06462369DA030BD4236936
:105230004CF2FA3213400FD00C494A681A434A60C4
:105240000120236170BD691CEED0FEF7C3FF801BF7
:10525000A842E9D30320F5E72369DB0744BF012314
:1052600023610020EEE700BF00200240580000202C
:105270002DE9F843254D99462B78012B04460F461E
:10528000904641D001234CF250302B70FFF7C6FFFF
:10529000064630BB68601E48026812F4806217BF81
:1052A00003682A7723F4806303601CBF02232B77F3
:1052B000E4B9436943F001034361C7F80080BFF3D9
:1052C0006F8F0124C7F804904CF25030FFF7A6FF0F
:1052D000064624B10E4A536923EA0403536100F0E1
:1052E00049F800232B703046BDE8F883631E012B7C
:1052F00008D841463846FFF75FFFA31E5C425C4179
:10530000A404E1E70024DFE70226ECE758000020D0
:1053100000200240094B10F0010F1EBF5A6942F0F5
:1053200004025A61820742BF5A6942F400425A613C
:105330005A6942F480325A61704700BF002002402F
:105340000B4B5A6911F0010F14BF22F4006242F4B2
:1053500000625A615A6960F3CA025A615A6942F09E
:1053600002025A615A6942F480325A61704700BFA2
:10537000002002401348037FDAB203F0FD03012B43
:105380000CD1114B196841F400611960196821F4BE
:1053900000611960196841F400711960931E012BB6
:1053A0000CD8094B1A6842F480521A601A6822F429
:1053B00080521A601A6842F480621A6000230377F0
:1053C000704700BF58000020002002402DE9F04740
:1053D000354D2B78012B0646884662D001274CF2CA
:1053E00050302F70FFF71AFF044640BB2F4B686008
:1053F0001A6812F4007F1A6826D022F400721A602C
:105400001A68510506D51A6822F480621A600323CF
:105410002B7700E02F773368012B1FD17068FFF7DF
:1054200079FF4CF25030FFF7F9FE204A536923F41C
:10543000004323F0040304465361FFF79BFF00235E
:105440002B702046BDE8F087520505D51A6822F476
:1054500080621A600223DBE72877DCE74FF0FF3336
:10546000C8F80030B768DFF84490DFF844A0D6E908
:1054700002321344BB42E0D971683846FFF760FF3F
:105480004CF25030FFF7CAFED9F8143003EA0A0391
:10549000C9F8143018B1C8F800700446CDE70137D8
:1054A000E5E70224CDE700BF5800002000200240BD
:1054B00005F8FFFF2DE9F74FDFF8B091694D0023A4
:1054C0000A6832FA03F402D103B0BDE8F08F012478
:1054D00004FA03F818EA020200F09A804C6824F0FB
:1054E000100A03264FEA430E0AF1FF3706FA0EFCB4
:1054F000012F6FEA0C0C04EA060640F28B80032EA3
:1055000000F09A80C76807EA0C088F6807FA0EF760
:1055100047EA0807BAF1020FC76016D14FEAD3086D
:1055200000EB880803F0070AD8F820704FEA8A0ACF
:105530004FF00F0B0BFA0AFB27EA0B0B0F6907FA68
:105540000AF747EA0B07C8F82070076806FA0EF654
:1055500007EA0C073E430660E60059D5D9F86060BB
:1055600046F00106C9F86060D9F8606023F00307CF
:1055700007F1804706F0010607F58037019603F032
:10558000030C019EBE684FEA8C0C4FF00F0E0EFA12
:105590000CFEB0F1904F26EA0E0E57D0324EB042BC
:1055A00056D006F58066B04254D006F58066B0420B
:1055B00052D006F58066B04250D006F58066B04203
:1055C0004ED006F58066B04214BF0726062606FABE
:1055D0000CF646EA0E06BE602E68D74314F4803FF0
:1055E0000CBF3E4016432E606E6814F4003F0CBFA3
:1055F0003E4016436E60AE6814F4801F0CBF3E4000
:105600001643AE60EE68A40254BF3E401643EE60FF
:10561000013355E7876807EA0C0BCF6807FA0EF7E6
:1056200047EA0B078760476827EA080827099F4071
:1056300047EA0807476065E7C76A27EA0808C4F32E
:10564000C0079F4047EA0807C7625BE70026BEE73E
:105650000126BCE70226BAE70326B8E70426B6E728
:105660000526B4E700040140000400480010024091
:105670002DE9F04F424C00224FF0010A4FF00F0885
:105680004FF0030B31FA02F301D1BDE8F08F0AFAB3
:1056900002F616EA010765D022F0030505F1804500
:1056A00005F5803502F0030CAB684FEA8C0C08FA64
:1056B0000CF9B0F1904F09EA030E55D0314B9842E6
:1056C00054D003F58063984252D003F5806398422A
:1056D00050D003F5806398424ED003F58063984222
:1056E0004CD003F58063984214BF0723062303FAC6
:1056F0000CF3734513D1236823EA0703236063681F
:1057000023EA07036360A36823EA0703A360E3684F
:1057100023EA0703E360AB6823EA0903AB6005688B
:1057200053000BFA03F3D7081D4300EB870705600E
:1057300002F00705D7F820C0AD0008FA05F52CEAFD
:1057400005053D62856825EA03058560456825EA0B
:1057500006054560C56825EA0303C360C36A23EAFA
:105760000603C36201328DE70023C0E70123BEE7D1
:105770000223BCE70323BAE70423B8E70523B6E70F
:1057800000040140000400480369194214BF0120CD
:10579000002070470AB18161704781627047000044
:1057A000044A5169014208B502D0506100F07EFD03
:1057B00008BD00BF00040140F0B50346002854D0E6
:1057C00004682B4A94424FF014013CD8294A2A48D5
:1057D0002244B2FBF1F29200022183F82510D3E9B2
:1057E00002611F692568314339435F6939439F6905
:1057F0003943DF6939431F6A6FF30E153943294373
:10580000B6F5804FC3E91002216014D05C6802F045
:105810001C020F2191409440174A90426FEA010107
:1058200018D1D0F8A8200A40C0F8A820D0F8A820A5
:105830002243C0F8A82000200122D86383F8240066
:1058400083F82520F0BD0D4A0D482244B2FBF1F249
:105850009200C1E7D2F8A8040140C2F8A814D2F817
:10586000A8142143C2F8A814E5E70120EAE700BF25
:1058700007040240F8FFFDBF00000240F8FBFDBF37
:105880000004024010B500283DD001680B6823F0E9
:1058900001030B601D4B99424FF014022CD81C4B96
:1058A0001C4C0B44B3FBF2F39B000022C0E91043F5
:1058B0000A6003F01C030121994061600F2101FA85
:1058C00003F314498C420CBFD4F8A810D1F8A844B3
:1058D0006FEA03030BBF0B402340C4F8A830C1F8A4
:1058E000A834C263C0E90B22C0E90D2280F825204C
:1058F00080F82420002010BD074B084C0B44B3FB5C
:10590000F2F39B00D1E70120F5E700BF0704024056
:10591000F8FFFDBF00000240F8FBFDBF000402409D
:10592000016C426C036870B402F01C020E681D68C2
:105930000424944034420ED015F0040F0BD01A68A2
:1059400092065EBF1A6822F004021A60036B4C6074
:1059500073B370BC184702249440344212D015F03F
:10596000020F0FD01A68950606D41A6822F00A02B0
:105970001A60012380F8253000234C6080F8243021
:10598000C36AE5E708249440344211D02C070FD5B0
:105990001C6824F00E041C60012303FA02F24A6022
:1059A000C36380F82530002380F82430436BCFE7B1
:1059B00070BC7047024A136843F4807313607047E9
:1059C00000700040024B186800F4C060704700BFD0
:1059D000007000400B4A136823F0070343F00203F2
:1059E0001360094B1A69012842F004021A6105D1BB
:1059F00030BF1A6922F004021A61704740BF20BF0D
:105A000020BFF6E70070004000ED00E00749CA68DB
:105A100022F4E0620302120403F4E063120C134365
:105A200043F0BF6343F40033CB60704700ED00E008
:105A3000164B30B5DC68C4F30224C4F10703251DFE
:105A4000042B28BF0423062D4FF0FF358CBF033CE9
:105A5000002405FA03F321EA0303A54022EA050224
:105A6000A340002843EA0203ACBF00F16040084AAB
:105A70004FEA0313B8BF00F00F00DBB2AABF00F576
:105A80006140135480F8003330BD00BF00ED00E0EA
:105A900014ED00E0002807DB044A4109012300F06F
:105AA0001F00834042F82130704700BF00E100E052
:105AB00000280CDB4309064900F01F0020330122B7
:105AC000824041F82320BFF34F8FBFF36F8F7047A1
:105AD00000E100E00138B0F1807F0BD24FF0E0230D
:105AE000054A5861F02182F82310002007229861AE
:105AF0001A6170470120704700ED00E0704708B55B
:105B0000FFF7FCFF08BD00F00BBC00F045BE00F045
